:020000040800F2
:1000000000800120C506000819070008190700082C
:100010001907000819070008190700080000000068
:1000200000000000000000000000000019070008A8
:100030001907000800000000190700081907000848
:100040001907000819070008190700081907000810
:100050001907000819070008190700081907000800
:1000600019070008190700081907000819070008F0
:1000700019070008190700081907000819070008E0
:1000800019070008190700081907000800000000F8
:100090000000000000000000000000001907000838
:1000A00019070008190700081907000819070008B0
:1000B00019070008190700081907000819070008A0
:1000C0001907000819070008190700081907000890
:1000D00019070008190700081907000800000000A8
:1000E0001907000819070008190700080000000098
:1000F00000000000000000000000000019070008D8
:100100000000000019070008190700081907000877
:1001100000000000000000000000000000000000DF
:10012000190700081907000819070008190700082F
:100130001907000800000000000000000000000097
:100140000000000000000000000000001907000887
:1001500019070008190700081907000819070008FF
:10016000190700081907000800000000000000003F
:10017000000000000000000000000000000000007F
:100180000000000019070008000000000000000047
:100190001907000810B5054C237833B9044B13B187
:1001A0000448AFF300800123237010BD4C020020EF
:1001B000000000007079000808B5064B1BB1064826
:1001C0000649AFF300800648036813B1054B03B13D
:1001D000984708BD00000000707900085002002018
:1001E0004802002000000000154B002B08BF134BF5
:1001F0009D46A3F5803A00218B460F461348144ACA
:10020000121A02F027FA0F4B002B00D098470E4B22
:10021000002B00D098470020002104000D000D485D
:10022000002802D00C48AFF3008002F0CDF9200086
:10023000290000F017FA02F017F800BF00000800CC
:100240000080012000000000000000004C0200209F
:10025000B0040020000000000000000084B070B571
:10026000099E0A9D04AC84E80F003468AC420ADAA7
:10027000214604A801F0C0FC0A34142001F068FEF5
:10028000AC42F5DB0AE0AC4208DD214604A801F0EF
:10029000B3FC142001F05CFE0A3CF4E73460BDE8D6
:1002A000704004B070470000F0B5274887B00321C4
:1002B00001F09CFC06AD244C4FF42F7645F8046DFC
:1002C0002369009340F2DC5794E80F0001950297F0
:1002D000FFF7C4FF05991D4802F05CFA4FF07E500D
:1002E00001F028FE40F6FC03029323690093019578
:1002F00094E80F00FFF7B2FF0599144802F04AFA9C
:100300004FF07E5001F016FE23690093019594E8AA
:100310000F000297FFF7A2FF05990C4802F03AFA86
:100320000B4801F007FE23690093019594E80F0044
:100330000296FFF793FF0599044802F02BFA4FF05D
:100340007E5001F0F7FDB5E7680200206C700008F0
:100350000000F0410148002101F09CBB6802002030
:1003600000B585B072B60521684601F045FD10E084
:10037000039B019A1A60962001F0EAFD9DF9003076
:10038000013310D0019A039B12041A60962001F0E9
:10039000DFFD9DF900300133EAD1064806493422D9
:1003A00001F00CFDE4E703480349342201F006FDA7
:1003B000E8E700BF747000088C7000080F4A30B482
:1003C00093689468B4F1006F1A4604D0103030BCC2
:1003D00042F8201070470A4A03F5CA7553F8044BD7
:1003E00042F8044FAB42F9D14FF00052034B1030AA
:1003F0009A6030BC42F82010704700BF00ED00E06A
:10040000FCFFFF1F70B5114C2368DA68910715D403
:10041000DA68520709D56FF004020D4E1A615D6A61
:100420003368EB1AB3F57A7F00D270BD00F092F911
:100430002368356005F57A759D6370BD6FF0020223
:100440001A6101F065FD2368E2E700BF1404002093
:100450007C020020244B30B51A6C244C42F0080278
:100460001A641A6C83B002F008020192019A1A6AA7
:1004700042F008021A621A6A22F008021A6201F0B7
:10048000FDF81B4A1B4B12681B492160A3FB02129B
:10049000920C0025013A4FF0FF3320466260E36082
:1004A0002561A560656100F0F9FE32201349FFF770
:1004B00085FF134B4FF480225A602946204600F0F6
:1004C0005BFE2046042100F057FE23680D495A6A5E
:1004D0000A6002F57A729A63DA68284642F00402EA
:1004E000DA6003B030BD00BF0038024014040020C1
:1004F0009801002083DE1B43000C00400504000827
:1005000000E100E07C02002008B501F0B7F8BDE88A
:10051000084000F005B900BF02480221032201F0A3
:10052000A5BB00BF90040020022808B50BDDC21E49
:10053000074B53F82200002143F8221028B103682A
:100540005B68984708BD002008BD4FF0FF3008BD2C
:1005500080020020022870B50C4616460FDC0E4BB8
:100560001B680BB9FFF7D8FFA51936B114F8011BAA
:100570000A4801F017FCAC42F8D1304670BD033890
:10058000074B53F8200018B103681B68984770BDEB
:100590004FF0FF3070BD00BFC0030020900400206A
:1005A00080020020022810B50C4609DC0D4B1B68A8
:1005B0008BB10D4801F0EAFB01232070184610BDF5
:1005C00003380A4B53F8200040B103689B689847F2
:1005D0000346184610BDFFF79FFFEAE74FF0FF33D1
:1005E000ECE700BFC0030020900400208002002040
:1005F000022808B508DD0338064B53F8200028B15F
:100600000368DB68984708BD012008BD4FF0FF3044
:1006100008BD00BF80020020022808B508DD0338AD
:10062000064B53F8200028B103681B69984708BDA2
:10063000002008BD4FF0FF3008BD00BF8002002041
:10064000022808B504D84FF400534B60002008BDC1
:1006500001F004FE092303604FF0FF3008BD00BF26
:10066000704700BF08B5FFF74FFFFFF7F9FFBDE880
:100670000840FFF719BE00BF074A13681844EFF39C
:100680000881884202D2106018467047034B0C2242
:100690001A604FF0FF30704794010020AC04002036
:1006A000074C08B523680546986801F09FFE23684B
:1006B000D86801F09BFE05B9FEE7FFF751FEFBE7A6
:1006C000FC010020DFF838D0002100F004B80D4B09
:1006D0005B58435004310C480C4B42189A42FFF4CB
:1006E000F6AF0B4A00F003B8002342F8043B094B75
:1006F0009A42FFF4F9AF01F09FF8FFF775FD7047DC
:10070000008001207C790008940100204C02002028
:100710004C020020B0040020FFF7FEBF704700BF6E
:1007200008B50B4B1A6842F400721A601A6842F45A
:1007300080621A601A6842F480721A60032000F026
:1007400017F80F20FFF786FEFFF7E8FF002008BD2F
:10075000003C0240024B1A6801321A60704700BF29
:1007600080030020014B1868704700BF8003002001
:10077000074AD1684FF6FF030B4043F0BF6300F018
:10078000070043F4003343EA0023D360704700BFFF
:1007900000ED00E02DE9F00FD1F800C07C4E82B0F2
:1007A000002303E00133102B00F09C80012404FAA5
:1007B00003F202EA0C049442F4D14A6822F01009D0
:1007C000B9F1020F00F092805D004FF00308D0F8FD
:1007D00000B008FA05F86FEA080802F0030A08EA10
:1007E0000B0B0AFA05FA09F1FF394BEA0A0AB9F1CB
:1007F000010FC0F800A040F2A280D0F80C908F68E2
:1008000008EA090807FA05F548EA0505C560D500B4
:10081000C8D5604F7D6C45F480457D64D7F8448031
:1008200023F0030508F48048CDF8048005F18045E5
:1008300003F003080F2705F59C354FEA880807FAEF
:1008400008FA554FDDF80490D5F80890B84229EA27
:100850000A0900F08C8007F58067B84200F08A80B2
:100860004E4FB84200F08A804D4FB84200F08B8066
:100870004C4FB8420CBF4FF0040A4FF0050A0AFA79
:1008800008F848EA0908C5F80880D6F80080E5436A
:10089000D7034CBF44EA080805EA0808C6F80080F8
:1008A000D6F8048097034CBF44EA080805EA080814
:1008B000C6F80480D6F80880D7024CBF44EA08087E
:1008C00005EA0808C6F80880D6F80C80920203F101
:1008D000010354BF05EA080444EA0804102BF4603D
:1008E0007FF464AF02B0BDE8F00F70474FEAD30861
:1008F00000EB880803F00709D8F820704FEA89094F
:100900000F2505FA09FB27EA0B0A0F6907FA09F90F
:100910004AEA0905C8F820505D004FF00308D0F8F6
:1009200000A008FA05F86FEA080802F0030908EACF
:100930000A0A09FA05F94AEA0909C0F80090D0F84C
:100940000890CF6808EA090907FA05FA49EA0A098E
:10095000C0F80890D0F804A0C2F300192AEA040AEB
:1009600009FA03F94AEA0909C0F8049045E74FF08B
:10097000000886E7012707FA08F882E74FF0020A25
:100980000AFA08F87DE74FF0030A0AFA08F878E750
:10099000003C0140003802400000024000080240D4
:1009A000000C024000100240F0B50368DE0783B07F
:1009B000044637D5A54A916801F00C01042900F0DE
:1009C000F380916801F00C01082900F0E980A04B48
:1009D0009E4D00221A70FFF7C5FE41F28836074689
:1009E00005E0FFF7BFFEC01BB04200F2C8802B68D5
:1009F0009903F6D4964B22791A706368002B00F0A5
:100A00001181FFF7AFFE914D074641F2883605E0B0
:100A1000FFF7A8FEC01BB04200F2B1802B689A031A
:100A2000F6D523689F072FD5884A916811F00C0FDF
:100A300000F0AC80916801F00C01082900F0A28060
:100A4000E368002B00F0DD80824B804D01221A60AC
:100A5000FFF788FE064605E0FFF784FE801B64284A
:100A600000F28D802B68794A9807F5D51168F82037
:100A700090FAA0F0B0FA80F02369C0B221F0F8013A
:100A800083400B43136023681A0720D4580734D4DB
:100A9000A369CBB16D4DAA6802F00C02082A7CD084
:100AA000022B6D4B4FF000021A6000F0CB80FFF775
:100AB00059FE2C46054604E0FFF754FE401B64280F
:100AC0005DD823689B01F7D4002003B0F0BD6369B3
:100AD000002B73D0614B5D4D01221A60FFF742FE7F
:100AE000064604E0FFF73EFE801B642847D86B6F84
:100AF0009B07F7D523685807CAD5544B584D1A6C35
:100B000042F080521A641B6C03F080530193019BE6
:100B10002B6843F480732B60FFF724FE064604E045
:100B2000FFF720FE801B642829D82B68D905F7D54C
:100B30004C4B464D00221A70FFF714FE41F28836E6
:100B4000074604E0FFF70EFEC01BB04217D82B6F1C
:100B50009A07F7D4434B227A1A70A368002B00F04F
:100B6000C780FFF7FFFD394D074641F288362B6FEE
:100B70009B078DD4FFF7F6FDC01BB042F7D90320C9
:100B800003B0F0BD526856023FF55AAF2F4A1268C3
:100B9000950723D5E268012A20D0012003B0F0BDDB
:100BA000526855027FF513AF284A126890037FF50B
:100BB00039AF6268002A7FF435AFEEE7274A234D4C
:100BC0001360FFF7CFFD064604E0FFF7CBFD801B67
:100BD0006428D4D86B6F9F07F7D48BE71B4AF8259E
:100BE000106895FAA5F5B5FA85F522691749EDB2B1
:100BF00020F0F800AA4002430A601A077FF546AFCA
:100C000065E7144A114D1360FFF7ACFD064604E09A
:100C1000FFF7A8FD801B6428B1D82B689907F7D48B
:100C2000236831E7FFF79EFD084D074641F28836FD
:100C300004E0FFF797FDC01BB042A0D82B689B03D0
:100C4000F7D4EEE6FFF78EFD064612E000380240CC
:100C5000023802400000474260004742800E47428F
:100C60000070004070380240FFF77CFD801B642854
:100C700085D82B689901F7D447F6C07595FAA5F584
:100C8000B5FA85F54FF4403191FAA1F1B1FA81F14D
:100C90004FF0706292FAA2F2B2FA82F2A66AD4F827
:100CA00024C0D4F820E0E769E06A194B194CEDB292
:100CB00076080CFA05F54EEA0707C9B2013E3D4336
:100CC000D2B206FA01F100FA02F2294311430122DD
:100CD00061601A60FFF746FD054605E0FFF742FD3B
:100CE000401B64283FF64BAF23689A01F6D5EBE62C
:100CF000FFF738FD074D074641F288362B6F9807FE
:100D00007FF5C6AEFFF72EFDC01BB042F6D936E721
:100D100060004742003802407C4B1A6802F00F0224
:100D20008A422DE9F0410C46054609D2CAB21A7032
:100D30001B6803F00F038B4258D00120BDE8F081FF
:100D400003689A0706D5724A8168906820F0F0001F
:100D500001439160DF0727D56B68012B79D09A1E7C
:100D6000012A6B4A126840F287809107E5D5684FE7
:100D7000BA6822F003021343BB60FFF7F3FC6B6811
:100D8000012B06467CD0022B00F08880032B65D017
:100D900041F2883804E0FFF7E5FC801B404565D848
:100DA000BB6813F00C0FF6D1584BE2B21A701B68F7
:100DB00003F00F03A342C0D12B685A0706D5544A4B
:100DC000E968906820F4E050014391601B0707D563
:100DD0004F4B29699A6822F4604242EAC1029A6044
:100DE0000F20FFF737FB0020BDE8F08103689F0765
:100DF00006D5474A8168906820F0F0000143916071
:100E0000DE07DAD56B68012B56D09A1E012A404ABC
:100E100012682ED9910790D53D4EB26822F0030298
:100E20001343B360FFF79EFC6B68012B044648D068
:100E3000022B54D0032B60D041F2883704E0FFF737
:100E400091FC001BB84211D8B36813F00C0FF6D117
:100E5000B2E72F4A1268960389D46EE741F28834CC
:100E6000BB68FFF77FFC801BA042F9D90320BDE8D7
:100E7000F0819001D0D460E790013FF578AF5CE756
:100E800041F2883804E0FFF76DFC801B4045EDD847
:100E9000BB6803F00C03042BF5D185E741F28838D9
:100EA00004E0FFF75FFC801B4045DFD8BB6803F020
:100EB0000C03082BF5D177E7154A12689403ABD4DD
:100EC0003BE741F2883704E0FFF74CFC001BB842D7
:100ED000CCD8B36803F00C03042BF5D16CE741F2D6
:100EE000883704E0FFF73EFC001BB842BED8B36869
:100EF00003F00C03082BF5D15EE741F28835B368A7
:100F0000FFF730FC001BA842F9D9AFE7003C0240D4
:100F1000003802401E4B9A6802F00C02042A10B4FA
:100F200032D0082A03D01B485DF8044B704758683C
:100F30005A685C6812F4800F00F03F0147F6C072F7
:100F400092FAA2F2B2FA82F247F6C07314BF1248C4
:100F50001048D2B22340D3400D4AB0FBF1F000FB61
:100F600003F052684FF4403393FAA3F3B3FA83F3D8
:100F700002F44032DBB222FA03F301335B00B0FB30
:100F8000F3F05DF8044B704703485DF8044B70477D
:100F9000003802400024F40000127A0008B5FFF780
:100FA000B9FF094BF0229B6892FAA2F2B2FA82F2E0
:100FB00003F0F003D2B223FA02F20449044B8A5C34
:100FC000D040186008BD00BF00380240FC70000827
:100FD0009801002008B5FFF7E1FF084A4FF4E053FD
:100FE000926893FAA3F3B3FA83F302F4E052DBB20C
:100FF00022FA03F3024AD35CD84008BD003802400D
:10100000FC70000808B5FFF7C9FF084A4FF46043B9
:10101000926893FAA3F3B3FA83F302F46042DBB26B
:1010200022FA03F3024AD35CD84008BD00380240DC
:10103000FC7000080E4B0F22026010B49C680D4A31
:1010400004F0030444609C6804F0F00484609C682D
:1010500004F4E054C4609B685DF8044B03F46043FF
:10106000DB080361136803F00F030B60704700BFD8
:1010700000380240003C0240036A23F00103F0B450
:101080008F680E680362036A104D4268846923F01A
:10109000020324F07304A84243EA070344EA060467
:1010A00006D04968426084614163F0BC03627047C6
:1010B000CF688E694D6923F0080322F440723B43E8
:1010C000354323F004032A43EBE700BF000001404F
:1010D000036A23F48073F0B48F680E680362036AB6
:1010E000114D4268C46923F4007324F07304A842CC
:1010F00043EA072344EA060406D049684260C46113
:10110000C163F0BC03627047CF684E698D6923F4F8
:10111000006322F4405243EA072342EA061223F412
:10112000806342EA0512E8E700000140036A23F405
:101130008053F0B48F680E680362026A0C4D4368F6
:10114000C46922F4005224F4E644A84242EA073279
:1011500044EA062406D049684360C4610164F0BCD7
:10116000026270474D6923F4804343EA8513F2E736
:1011700000000140704700BF03680E4A186A10B4AF
:10118000012404FA01F120EA01001862186A93426E
:1011900041EA0001196207D01A685DF8044B42F079
:1011A000010200201A6070475A6C42F400425A64EF
:1011B000F2E700BF00000140704700BF03680E4A1D
:1011C000186A10B4012404FA01F120EA010018623F
:1011D000186A934241EA0001196207D01A685DF863
:1011E000044B42F0010200201A6070475A6C42F42E
:1011F00000425A64F2E700BF00000140264A03683B
:10120000904230B434D0B0F1804F20D0A2F57C426F
:1012100090421CD002F58062904218D002F58062A4
:10122000904214D002F59A32904214D002F58062B6
:10123000904210D002F5806290420CD08C680A680F
:1012400003600123C462826230BC436170474A6814
:1012500023F070031343CD688C680A6823F440734D
:101260002B4303600123C462826230BC4361704738
:101270004C68CA6823F070031C4324F44074224372
:1012800002608B68C3620B6883620B69036301238E
:10129000436130BC704700BF0000014010B50446F8
:1012A000B0B190F8393003F0FF0263B12146022358
:1012B00051F8040B84F83930FFF7A0FF012384F8BC
:1012C0003930002010BD80F83820FFF753FFEDE7DC
:1012D000012010BD10B50446B0B190F8393003F0CC
:1012E000FF0263B12146022351F8040B84F8393020
:1012F000FFF784FF012384F83930002010BD80F807
:101300003820FFF759FFEDE7012010BD036A23F0F5
:101310001003F0B48F680E680362036A114D4268CF
:10132000846923F0200324F4E644A84243EA071327
:1013300044EA062406D04968426084618163F0BCB7
:1013400003627047CF684E698D6923F0800322F4F1
:10135000406243EA071342EA860223F0400342EA6E
:101360008502E8E70000014038B590F83830012BDD
:1013700004460D4628D00121022380F8381080F859
:1013800039300C2A19D8DFE802F007181818341879
:10139000181847181818210029460068FFF76CFE36
:1013A00023682A69996941F008019961996921F0D6
:1013B0000401996199690A439A610123002084F824
:1013C000393084F8380038BD022038BD294600681D
:1013D000FFF7ACFE23682969DA6942F40062DA613A
:1013E000DA6922F48062DA61DA6942EA0122DA61BA
:1013F000E3E729460068FFF789FF236829699A69AE
:1014000042F400629A619A6922F480629A619A6950
:1014100042EA01229A61D0E729460068FFF758FEA8
:1014200023682A69D96941F00801D961D96921F095
:101430000401D961D9690A43DA61BEE7036804206F
:101440001A6A00FA01F122EA01021A621A6A1143C9
:1014500019625A6C42F400425A641A6842F001025E
:101460001A600020704700BF2DE9F0410568C1688F
:101470002B69C269D0F810E08768466923F44053AD
:101480001943044680692961EB684EEA070123F499
:101490001643314323F00C0311430B43EB606B699C
:1014A00023F440730343B2F5004F6B61594B3CD0BA
:1014B0009D4200F08C8003F580639D4200F08780A0
:1014C000FFF788FD6368544E00EB80009B0000EB43
:1014D0008000B0FBF3F7FFF77DFD636800EB800051
:1014E0009B0000EB8000B0FBF3F8FFF773FD63682F
:1014F00000EB800000EB80009B00B0FBF3F3A6FB49
:101500000727A6FB03237F095B0964203F0100FB3B
:1015100013884FEA081808F13208A6FB0836C6F30C
:1015200043163743AF60BDE8F0819D422DD003F5EF
:1015300080639D4229D0FFF74DFD6368364E00EB76
:1015400080005B0000EB8000B0FBF3F7FFF742FD8B
:10155000636800EB80005B0000EB8000B0FBF3F8F9
:10156000FFF738FDA6FB072763687F0900EB8000C3
:101570003F0100EB80005B00B0FBF3F3A6FB03230D
:101580005B09642202FB1388C3E7FFF73BFD636836
:10159000214E00EB80005B0000EB8000B0FBF3F716
:1015A000FFF730FD636800EB80005B0000EB80001C
:1015B000B0FBF3F8FFF726FDA6FB072763687F095A
:1015C00000EB80003F0100EB80005B00D4E7FFF7F9
:1015D00019FD6368104E00EB80009B0000EB80005B
:1015E000B0FBF3F7FFF70EFD636800EB80009B0094
:1015F00000EB8000B0FBF3F8FFF704FDA6FB072724
:1016000063687F0900EB80003F0100EB80009B00D6
:10161000B2E700BF001001401F85EB51704700BFCB
:1016200010B5044640B390F8393003F0FF02F3B12F
:101630002368022284F83920DA6822F40052DA6042
:101640002046FFF711FF23681A6922F490421A61BD
:101650005A6922F02A025A61D868002240F40050E8
:101660000121D860E263104684F8391010BD80F87B
:101670003820FFF7D3FFDBE7012010BD164B9A6837
:1016800002F00C02042A24D0082A0AD0134A124B72
:1016900013489968134BC1F30311415CCA401A60A7
:1016A0007047586859685B6842024CBF0E4A0B4A43
:1016B00001F03F01C3F38813B2FBF1F202FB03F226
:1016C000054B5B68C3F3014301335B00B2FBF3F2EC
:1016D000DDE7054ADBE700BF003802400024F400E4
:1016E0000C7100089801002000127A00224A234B56
:1016F000116C70B541F080511164126C94B002F01D
:1017000080520192019A1A6822F4404242F4004247
:101710001A601B6803F4404302930123029A089362
:1017200000B1052309934FF4A87107230422022472
:101730004FF48006082508A813930E940F96109571
:1017400011911292FFF730F9034610B1002014B046
:1017500070BD4FF4805221460F2503A804940593D1
:10176000079303950692FFF7D7FAD0F1010038BF2F
:10177000002014B070BD00BF00380240007000406F
:10178000234A244B116CF0B541F080511164126C66
:1017900095B002F080520192019A1A6822F44042F8
:1017A00042F400421A601B6803F4404302934FF076
:1017B000030E1023002404210722012702254FF4E1
:1017C000A87608A80C931093DDF808C0CDF820E0A7
:1017D0000B9709940F940E95119612911392FFF79F
:1017E000E3F8034610B1204615B0F0BD4FF4805227
:1017F00029460F2403A804950593079303940692A2
:10180000FFF78AFAD0F1010038BF002015B0F0BD13
:10181000003802400070004008B50120FFF766FF65
:1018200000B108BDFFF762FF0028FAD1FFF7A8FF5B
:101830000028F6D1FEE700BF174B1848D3F88820E0
:1018400070B542F47002164CC3F888202268154E19
:10185000154D002142F001022260A160226822F0B1
:10186000847222F480322260666026684FF0006243
:1018700026F480262660E1609A600560FEF750FF3E
:10188000FFF7CAFF236A43F008032362236A23F0A9
:101890000803236270BD00BF00ED00E09801002046
:1018A00000380240103000240024F40030B507EE68
:1018B000901A274A03681360F5EEC07AF1EE10FA29
:1018C00089B004463DD4B7EE007AF4EE477AF1EEE3
:1018D00010FAC8BFF0EE477AD4ED026A227CB8EE67
:1018E000667A002367EE277A6020FCEEE77A013AF9
:1018F000C4ED037ACDED027A01900393049305932E
:1019000006930793032A10D8DFE802F0110215139B
:1019100004250F4801A92A46FFF726FDA0B9637CDC
:101920000B4829464BB1FFF789FD09B030BD0025B2
:10193000EFE70C25EDE70825EBE7FFF73FFC09B0E3
:1019400030BDDFED047AC7E7034800F043FAE6E76D
:1019500084030020000000001C710008F0B58268BC
:10196000454D03682B6087B004460E46002A57D0C9
:1019700007EE102AF8EE477A90ED037AF8EE476A00
:10198000B7EE007AC6EEA77AF4EEC77AF1EE10FA57
:10199000C8BF17EE107A45DD196A41F211120A40EC
:1019A0002AB9196A40F244420A40002A3DD001A8EF
:1019B0006946FFF73FFB2368304A934245D039D947
:1019C0002F4A934207D051D92E4A934203D002F5B1
:1019D0008062934222D1FFF715FB059A0090731E97
:1019E000EB60254B002A39D1274AA2FB0010800C5E
:1019F00001385860002320482B61AB60FFF76AFC78
:101A000010B1224800F0E6F939462046FFF74EFFB4
:101A10002B68A6601A6842F001021A6007B0F0BD98
:101A2000DFED1B7A17EE907AB6E71A6822F0010212
:101A30001A60BCE7A2F50062934206D002F580620C
:101A4000934202D0B3F1804FE8D1FFF7C3FA049A72
:101A50000090731EEB60084B002AC5D00A4A400074
:101A6000A2FB0010800C01385860C3E7A2F5804249
:101A70009342B0D0D2E700BF84030020000C0040A6
:101A8000004001400044014083DE1B431C710008FC
:101A90000000000070B50D46044688B0484928464D
:101AA00000F002FA206001306FD02846444900F06F
:101AB00015FA431C06466ED02368424AC6F3C3217A
:101AC0009342C6F3C0362174667444D0B3F1804F9C
:101AD00029D03D4A93424AD102F50D32116C41F0B2
:101AE00002011164126C02F002020392039A374A57
:101AF000934209D1364B5A6C42F480225A645B6C93
:101B000003F480230793079B28462D4900F098F99A
:101B100000232571A360E360204644F62061FFF7AF
:101B20001DFF08B070BD2A4A116C41F0010111641B
:101B3000126C02F001020292029A264A9342D6D116
:101B4000234B5A6C42F400325A645B6C03F400334A
:101B50000693069BD8E702F59C32516C41F00101D7
:101B60005164526C02F001020192019AE5E71A4AAF
:101B7000934216D1164B1A6C42F004021A641B6C85
:101B800003F004030493049BBEE7144814492D2278
:101B900000F014F989E713481149312200F00EF9D9
:101BA0008AE7114A9342C8D1094B5A6C42F48032F9
:101BB0005A645B6C03F480330593059BA4E700BF74
:101BC0006C73000800000140000400400048014020
:101BD0000038024000440140000800403471000811
:101BE0004C710008B4710008004001404FF47A7352
:101BF00003FB01F1FFF7B2BE06EE901AB8EEE67AEB
:101C0000D0ED026AF8EE667AC7EE277A17EE901AE0
:101C1000FFF74CBEF8B5134B90F91970066885684C
:101C2000C468016942691E6001374FF000065D60BB
:101C30009C60D9601A619E6110D090F91820013221
:101C40000CBF04220C225A610648FFF7E9FC00B9D8
:101C5000F8BD0548BDE8F84000F0BCB808225A615C
:101C6000F2E700BF50040020D0710008F0B5044630
:101C700085B008460E463C49154600F015F93B492B
:101C80000746284600F010F90146384600F0FAF8F9
:101C9000411C206061D0364B984247D003F58063E9
:101CA000984236D0A3F55043984225D030462E496D
:101CB00000F0C6F828462D4900F0C2F8721C03D087
:101CC0003046012100F042FA6B1C03D02846012166
:101CD00000F03CFA00234FF41652A260E360236147
:101CE0006361267665762046FFF794FF214A2368D4
:101CF000934228D005B0F0BD1F4B1A6C42F400325D
:101D00001A641B6C03F4003302930123029A63608C
:101D1000CCE7194B5A6C42F020025A645B6C03F01A
:101D200020030393039B05236360BFE7124B5A6CA8
:101D300042F010025A645B6C03F01003019300231D
:101D4000019A6360B2E70D4B0D4821461C22012425
:101D50001C6000F076FC05B0F0BD0A480A49532229
:101D600000F02CF8206896E7D4740008247300086B
:101D7000001001400044004000380240C003002031
:101D800090040020E87100080472000802681368DB
:101D90009B06FCD5024B50681A60C0F308007047E0
:101DA00050040020026813681B06FCD5024BC1F3E7
:101DB000080151601A6070475004002010B40C46AE
:101DC00013460146224602485DF8044B00F002B873
:101DD0006C7200080FB400B5064B83B004AA1B68F0
:101DE00052F8041BD868019200F08AFE012000F02E
:101DF0003BFA00BFFC01002038B50D46044600F058
:101E0000C5F8013511D094F9003001330ED0626865
:101E1000E368120420461A60012100F0D1F8204640
:101E20000021BDE8384000F0C7B838BD024803497A
:101E30003422FFF7C3FFEAE7747000088C700008D3
:101E4000431C10B5044619D091F90030581C04D138
:101E50000FE011F90C3F5A1C0BD09C42F9D12046DF
:101E6000896800F043F920460021BDE8104000F0E9
:101E70006DB90348BDE81040FFF7ACBF10BD00BF0F
:101E8000A0720008884208B50AD0431C07D001316F
:101E900006D00448FFF79EFF4FF0FF3008BD08460C
:101EA00008BD00BFB472000808B5431C0DD091F9FD
:101EB00000305A1C04D109E011F90C3F5A1C05D01E
:101EC0009842F9D14868411C00D008BD0248FFF78C
:101ED00081FF4FF0FF30F8E7C872000808B5431CD7
:101EE0000DD091F900305A1C04D109E011F90C3FD2
:101EF0005A1C05D09842F9D18868411C00D008BD11
:101F00000248FFF767FF4FF0FF30F8E7E87200087C
:101F1000014800F07FB900BF1C73000838B50546C2
:101F200000F04EF9044600F04BF9001BA842FAD32A
:101F300038BD00BF07EE100ADFED047A67EE277A9E
:101F4000FDEEE77A17EE900AFFF7E8BF0024744928
:101F50004FF47A7303FB00F0FFF7E0BF431C10B5AA
:101F6000044608D02046002100F0C0F804F00F0419
:101F70000120A04010BD034803492722FFF71EFFA0
:101F8000F0E700BF1C7500083075000870B5054605
:101F90004B1C0C4629700DD0C1F3031000F030F833
:101FA00006462046FFF7DAFF06F110031836686090
:101FB000AB60EE6070BD00BF90F9000000F0C6B8E5
:101FC00038B5054690F90000431C0C460BD0012C97
:101FD00004D00021BDE8384000F088B82146BDE8B3
:101FE000384000F083B8044804494622FFF7E6FE73
:101FF00095F90000EBE700BF747000083075000829
:1020000000B587B0072859D8DFE800F012202E3C31
:102010004A5858042D4B2E481A6B42F080021A631E
:102020001B6B03F080030593059B07B05DF804FB71
:10203000264B28481A6B42F001021A631B6B03F00F
:1020400001030093009B07B05DF804FB1F4B22487F
:102050001A6B42F002021A631B6B03F00203019336
:10206000019B07B05DF804FB184B1C481A6B42F04B
:1020700004021A631B6B03F004030293029B07B074
:102080005DF804FB114B16481A6B42F008021A6304
:102090001B6B03F008030393039B07B05DF804FB7D
:1020A0000A4B10481A6B42F010021A631B6B03F0C4
:1020B00010030493049B07B05DF804FB0A48FFF784
:1020C00089FE002007B05DF804FB00BF0038024025
:1020D000001C0240000002400004024000080240D0
:1020E000000C024000100240CC75000830B5431CC3
:1020F00087B005460C461CD0C5F30310FFF780FFE0
:1021000005F00F0504F00F0201210D4B01FA05F552
:1021100053F8223001950322C4F3021501A9C4F338
:10212000C3140293039505940492FEF733FB07B0A2
:1021300030BD044804498122FFF740FEDCE700BFC0
:10214000987500081C750008F075000838B5431C28
:1021500004460D4618D0C4F30310FFF751FF04F0F6
:102160000F04C268022D4FEA44044FF0030198BFE8
:10217000A54001FA04F422EA0404C460C26888BFDE
:1021800000251543C56038BD02480349A622FFF764
:1021900015FEE0E71C750008F0750008054B18688F
:1021A00000B17047044A0549116001221A60FEF728
:1021B00051B900BF08040020CC030020000C0040EF
:1021C00008B5044B1B680BB9FFF7E8FF024B586AD0
:1021D00008BD00BF08040020000C0040034B1B6832
:1021E0005863DA6842F00202DA607047CC030020DC
:1021F000034B1B68DA6822F00202DA60704700BF06
:10220000CC030020024B1B686FF002021A6170477A
:10221000CC03002038B50368DB6804469847636840
:102220005B6883B122681D6853689847281A0028A4
:1022300062680CDC50681168836853600029F0D034
:1022400040688847EBE723689B68984738BD236858
:1022500052681B691068984738BD00BF014B186869
:10226000704700BFFC01002008B5074B044613B1BE
:102270000021AFF30080054B1868836A03B19847CB
:102280002046FEF70DFA00BF00000000B8760008F7
:102290008A892DE9F041054610070C4657D44B6852
:1022A000002B02DC0B6C002B18DDE66AB6B102F4E1
:1022B0008052002392B22F682B600AB1626D10E049
:1022C000216A28460123B047411C024609D12B68E8
:1022D0003BB11D2B01D0162B46D12F600020BDE84D
:1022E000F081A3895B0705D56368D21A636B0BB1D4
:1022F000236CD21AE66A216A28460023B047461C9E
:10230000A28905D12B681BB11D2B01D0162B19D129
:1023100000236360D1042369236004D5421C01D1EA
:102320002B6803B96065616B2F600029D6D004F17A
:102330004403994202D0284600F094F900206063DB
:10234000BDE8F08142F04002A281BDE8F0810E6953
:10235000002EC3D00B680E60C6EB030893070CBFBA
:102360004B6900238B6012E0A38943F04003A381F3
:102370004FF0FF30BDE8F081A76A216A2846324657
:102380004346B8470028EFDD0644C0EB0808B8F123
:10239000000FF1DCA2E7000038B50B6905460C46DA
:1023A000DBB118B183690BB900F086F80C4B9C4285
:1023B00001D16C6808E00B4B9C4201D1AC6803E092
:1023C000094B9C4208BFEC68B4F90C302BB128468D
:1023D0002146BDE83840FFF75BBF002038BD00BF95
:1023E000547600087476000894760008014620B9F7
:1023F000044B0549186800F0C9B8044B1868FFF78A
:10240000CBBF00BFB876000899230008FC0100206C
:10241000F8B5074600F1480494B1A5686668013E26
:102420000CD4AB89012B07D9B5F90E30013303D099
:1024300038462946FFF7B0FF6835F0E72468EBE738
:10244000F8BD0000002310B50446036043608360BC
:1024500081814366C28103614361836119465C30B7
:10246000082200F0F7F8054B6362054BA362054BA9
:10247000E362054B2462236310BD00BFE52700081B
:10248000072800083F2800086328000870B54B1E85
:1024900068255D430E4605F1740100F027F90446F6
:1024A00040B1002180E842000C30A06005F16802D4
:1024B00000F0D0F8204670BD836910B5044633BBE8
:1024C0008364C3640365124B124A1B68826298429C
:1024D00004BF0123836100F01FF86060204600F014
:1024E0001BF8A060204600F017F80421E0600022ED
:1024F0006068FFF7A7FFA06809210122FFF7A2FF8C
:10250000E06812210222FFF79DFF0123A36110BDA5
:10251000B876000811240008F8B51B4B1E68B36993
:10252000074613B93046FFF7C7FF4836B4687368EB
:10253000013B04D4B4F90C5075B16834F8E7336842
:102540002BB938460421FFF7A1FF306008B1366887
:10255000ECE70C233B60F8BD4FF6FF73E3810123EA
:10256000A38165662560A560656025616561A561DB
:1025700004F15C002946082200F06CF86563A5634D
:10258000A564E5642046F8BDB87600082DE9F84357
:102590008046894600F14804002694B1A568676822
:1025A000013F0CD4AB89012B07D9B5F90E300133AB
:1025B00003D040462946C84706436835F0E72468FB
:1025C000EBE73046BDE8F88370B50E4B0E4DED1AC3
:1025D000AD1000241E46AC4204D056F8242090478B
:1025E0000134F8E704F036FD084D094BED1AAD1043
:1025F00000241E46AC4204D056F8242090470134F3
:10260000F8E770BD3C0200203C020020440200209C
:102610003C020020024B0146186800F067B800BF7A
:10262000FC01002010B5C9B202449042034606D016
:102630001C788C4200F10100F7D1184610BD002033
:1026400010BD10B50023934203D0CC5CC4540133B9
:10265000F9E710BD02440346934202D003F8011B80
:10266000FAE7704730B500293CD051F8042C0B1F15
:102670001D49002AB8BF9B180A680C4612B95A6057
:102680000B6030BD93420DD219685818904203D1A7
:102690005A581144426819605A60236030BD99420B
:1026A00003D80A4651680029F9D1146815199D42CA
:1026B0000AD11B682344D0188842136012D10868DD
:1026C000034413604B680CE002D90C23036030BD57
:1026D00018681C188C4203D10C68496820441860A3
:1026E0005960536030BD00BF1004002070B5CD1C90
:1026F00025F0030508350C2D38BF0C25002D0646A6
:102700003FDB8D423DD3214B1C6818462146A1B1C9
:102710000B685B1B0ED40B2B03D90B60CC18CD5070
:102720001FE08C4202D1626802601AE04B6863606D
:102730000C4616E00C464968E9E7154C23681BB9BE
:10274000304600F03FF820602946304600F03AF865
:10275000431C014615D0C41C24F0030484420AD152
:10276000256004F10B00231D20F00700C31A0BD0D5
:102770005A42E25070BD3046611A00F023F8013031
:10278000EED10C233360002070BD00BF1004002088
:102790000C0400200FB40A4B13B51C6824B1A369C4
:1027A00013B92046FFF788FE05AB2046A168049ABE
:1027B000019300F0A1F802B0BDE8104004B07047EA
:1027C000FC01002038B5064C00230546084623606E
:1027D000FDF752FF431C02D1236803B12B6038BDC3
:1027E000AC04002010B50C46B1F90E1002F084FBC9
:1027F000002803DB636D0344636510BDA38923F4E4
:102800008053A38110BD2DE9F0411D468B89DB0566
:1028100007460C46164605D5B1F90E1000220223D4
:1028200001F0BEFEA389B4F90E1023F48053A381F6
:10283000384632462B46BDE8F04100F0D7BF10B510
:102840000C46B1F90E1001F0ABFE431CA38903D175
:1028500023F48053A38110BD43F48053A3816065AA
:1028600010BDB1F90E1001F041B8034613F8012B69
:10287000002AFBD1181A0138704770B592B10B4687
:1028800005461C7810F8016BB44201F1010101D139
:10289000012A03D128781B78C01A70BD013A002C98
:1028A000EDD1F7E7104670BD9368013B002B10B5E2
:1028B000936005DA9469A34208DBCBB20A2B05D0FA
:1028C0001368581C10601970C8B210BDBDE81040E4
:1028D00000F038BFF8B505460E461446D718BC427E
:1028E00008D0284614F8011B3246FFF7DDFF431CD1
:1028F000F5D100E00020F8BD2DE9F0439DB00D4674
:1029000017460393064618B183690BB9FFF7D4FD48
:10291000734B9D4201D1756808E0724B9D4201D115
:10292000B56803E0704B9D4208BFF568AB89180796
:102930000AD52B6943B10023099320238DF8293050
:1029400030238DF82A3038E03046294600F060FF09
:102950000028F0D04FF0FF30BFE0039A111D12683D
:102960000391002A70DB0792013423782E2B7DD04F
:102970005E4F217838460322FFF754FE30B1C71B63
:10298000049B4020B8400343049301342178584805
:102990008DF828100622671CFFF744FE002800F07F
:1029A0008A80544B002B7DD1039B073323F0070310
:1029B00008330393099B434409933B461C4613F891
:1029C000012B1AB9B4EB07090ED002E0252AF5D184
:1029D000F8E7304629463A464B46FFF77BFF013081
:1029E00076D0099B4B4409932378002B70D00023A9
:1029F0004FF0FF3204930793059206938DF85330FE
:102A00001A9304F101094C463B4F217838460522C0
:102A1000FFF708FE09F10109049B28B1C71B01203B
:102A2000B84003430493EEE7D90644BF20228DF853
:102A300053201A0744BF2B228DF8532022782A2ACC
:102A40008BD0079B214605E0524243F002030792D8
:102A5000049389E70C4601312278303A092A03D8D9
:102A60000A2000FB0323F5E707937EE763782A2B10
:102A70000AD1039B1A1D1B680392002B04F1020468
:102A8000B8BF4FF0FF330BE0611C00230C4601314F
:102A90002278303A092A03D80A2000FB0323F5E7FD
:102AA000059365E703AB0093304604A92A46134B10
:102AB00000F0C8F807E003AB0093304604A92A46AB
:102AC0000E4B00F03FFBB0F1FF3F80467FF472AF4A
:102AD000AB895B063FF53EAF09981DB0BDE8F083BA
:102AE000547600087476000894760008C2760008D0
:102AF000C6760008452C0008BC760008D5280008DA
:102B000030B51346044A05460C461068294622464D
:102B1000BDE83040FFF7F0BEFC0100202DE9F04792
:102B200088B0002B14461D46109E1299139F05DA9B
:102B300005F100431D4614462D2300E000230B70D1
:102B4000149B23F0200ABAF1460F04D0BAF1450FC6
:102B500003D1013601E0032300E002238DE8C80021
:102B600006AB039307AB049322462B4600F05CFFB1
:102B7000BAF1470F804602D1119BDB0725D5BAF188
:102B8000460F08EB06090FD198F80030302B09D119
:102B9000204629460022002304F092F910B9C6F11C
:102BA00001063E603B6899442046294600220023E6
:102BB00004F086F908B1CDF81C90079B4B4504D270
:102BC0005A1C079230221A70F7E7079BC8EB0302E2
:102BD000159B40461A6008B0BDE8F087034673B500
:102BE000002903F8022B03DA49421A462D2401E09A
:102BF0001A462B24092944701ADD0DF106040A2611
:102C000091FBF6F506FB15113031092D234604F82A
:102C100001192946F3DC05F1300103F8011D0DF11E
:102C200007018B420AD213F8011B02F8011BF6E7D9
:102C300030241A46214402F8024B5970101A02B08F
:102C400070BD00002DE9F04F8FB00C4616461F46B0
:102C5000DDF86090054601F09FFCD0F800A05046DA
:102C6000FFF703FE00230C93D9F8003009900733D7
:102C700023F00703D3E9000103F1080294F8188058
:102C8000C9F80020C4E9120102F048F90128D4E98A
:102C9000120117D10022002304F01CF910B12D23DA
:102CA00084F84330904B914AB8F1470F8CBF91465E
:102CB000994603232361236823F0040323604FF024
:102CC000000B86E002F02AF9236848B9884A89494E
:102CD000B8F1470F8CBF8946914603222261EBE78A
:102CE0006268511C28F0200B01D1062204E0BBF1E0
:102CF000470F02D10AB9012262606068CDF81080E6
:102D000043F480618DE803000DF12B0002900BA8C5
:102D100003900CA80590002021600690D4E91223AE
:102D20002846FFF7FBFEBBF1470F81460B9909D1FF
:102D3000C81C02DB6368994230DDA8F102085FFA23
:102D400088F802E0B8F1650F12D80139424604F163
:102D500050000B91FFF742FF0C9A8318012A83461B
:102D6000236102DC2268D2072DD5013323612AE0DA
:102D7000B8F1660F14D10029636807DD216113B92A
:102D80002268D0071CD501330B4418E013B9226820
:102D9000D20701D5023312E0012310E04FF067089B
:102DA0000C9A914205DB23682161D80708D54B1C9A
:102DB00005E00029D4BFC1F10203012313442361BC
:102DC000A1654FF0000B9DF82B3013B12D2384F833
:102DD00043300097284621460DAA334600F040F9BB
:102DE000013002D14FF0FF3036E123685A0504D498
:102DF000284631464A46236908E1B8F1650F40F29A
:102E0000CB80D4E912010022002304F059F80028F5
:102E10002AD028463146384A0123B8470130E1D04C
:102E20000C9B0B9A9A4207DB2368D80704D42368CB
:102E30009B0700F1F880FDE0284631465246099B89
:102E4000B8470130CED04FF000080C9B013B9845AD
:102E5000EDDA2846314604F11A020123B847013061
:102E6000C0D008F10108F0E70B9B002B28DC2846B6
:102E70003146214A0123B8470130B3D00B9B23B917
:102E80000C9B13B92368D907D1D528463146524641
:102E9000099BB8470130A5D04FF000080B9B5B425F
:102EA00098452846314608DA04F11A020123B8474A
:102EB000013097D008F10108F0E74A460C9BA5E0E5
:102EC000A36D0C9A9A42B4BF93469B46BBF1000F88
:102ED00002DC4FF000081CE0284631464A465B46BB
:102EE000B8470130F5D17DE7CD760008D1760008EE
:102EF000D5760008D9760008DD76000828463146E8
:102F000004F11A020123B84701303FF46BAF08F116
:102F10000108A36D2BEAEB729A1A9045EEDB09EBE0
:102F200003080B9A0C9B9A420FDB2368DA070CD438
:102F30000C9B0B9A9944C8EB09099B1A9945A8BFA9
:102F40009946B9F1000F08DC0FE028463146524699
:102F5000099BB8470130EBD144E728463146424649
:102F60004B46B84701303FF43DAF4FF000080AE050
:102F70002846314604F11A020123B84701303FF4D4
:102F800031AF08F101080B9B0C9A29EAE971D31AB9
:102F90005B1A9845ECDB4AE70C9A012A01DCDB0757
:102FA00039D5284631464A460123B84701303FF417
:102FB00019AF284631465246099BB84701303FF4C5
:102FC00011AFD4E912010022002303F079FF10B100
:102FD0004FF0000811E00C9B2846314609F1010230
:102FE000013B1CE02846314604F11A020123B84790
:102FF00001303FF4F7AE08F101080C9B013B984506
:10300000F0DB2846314604F150025B46B8470130F8
:103010007FF40DAFE6E6284631464A460123B8471D
:103020000130EED1DEE64FF00008E2680D9BD31AC6
:10303000984505DBE0680D9B9842B8BF18460BE049
:103040002846314604F119020123B84701303FF404
:10305000C9AE08F10108E8E70FB0BDE8F08F00BF86
:103060002DE9F84315461F468A680B69DDF8208074
:103070009A42A8BF13462B6091F8432006460C469F
:103080000AB101332B602368990602D52B680233FD
:103090002B60236813F006091DD094F84330226892
:1030A000003318BF012392061FD5E1185A1C3020A7
:1030B00081F84300224494F8451082F8431002330B
:1030C00013E03046394604F119020123C0470130AC
:1030D00007D009F10109E2682B68D31A9945F0DBA2
:1030E000DBE74FF0FF30BDE8F8833046394604F1A6
:1030F0004302C0470130F4D023682A68E16803F036
:103100000603042B08BFC2EB01052369A2680CBFAC
:1031100025EAE57500259A42C4BFC3EB0203ED180A
:103120004FF00009A9450ADA3046394604F11A027F
:103130000123C0470130D4D009F10109F2E7002092
:10314000BDE8F8832DE9FF470E7E0C9D6E2E80466C
:103150000C4691469A4601F1430000F0A58011D833
:10316000632E22D009D8002E00F0AF80582E40F0F8
:10317000BF8081F845607B4A4FE0642E1ED0692EE7
:103180001CD0B5E0732E00F0A48009D86F2E2BD090
:10319000702E40F0AD800B6843F020030B6038E0E8
:1031A000752E21D0782E34D0A2E02B681A1D1B6812
:1031B0002A6001F1420781F842309DE022682B68C5
:1031C00012F0800F03D01A1D2A601D6805E0510619
:1031D000F9D51A1D2A60B3F90050002D39DA2D23D4
:1031E0006D4284F8433034E022682B6812F0800F7F
:1031F00003D01A1D2A601D6804E05206F9D51A1D75
:103200002A601D88237E574A6F2B14BF0A23082388
:103210001BE07823544A84F845302368296813F06A
:10322000800F01F104062E6001D00D6802E05F06F8
:10323000FBD50D88DE0744BF43F0200323601DB992
:10324000236823F0200323601023002184F8431017
:1032500001E0444A0A236668A660002E03DB216869
:1032600021F00401216005B96EB104F14201B5FB02
:10327000F3F603FB16550F46555D01F80159354627
:10328000002EF4D100E00746082B0AD12368DD07A1
:1032900007D5626823699A4203DC302307F8013CB2
:1032A000013FC01B20612CE009682B68626911F0A6
:1032B000800F04D0191D29601B681A6005E04906BB
:1032C000F8D5191D29601B681A8000232361074661
:1032D00017E02B681A1D2A601F683846FFF7C5FAE9
:1032E00063682061984288BF23612369636005E0B9
:1032F00004F1420784F8426001232361002384F82B
:103300004330CDF800A04046214603AA4B46FFF7C4
:10331000A7FE013002D14FF0FF301FE04046494682
:103320003A462369D0470130F5D023689B0705D47E
:10333000E068039B9842B8BF18460FE00025E2689A
:10334000039BD31A9D42F3DA4046494604F1190221
:103350000123D0470130DED00135F0E704B0BDE8ED
:10336000F08700BFDF760008F07600082DE9F04F07
:10337000164687B08A680293531EB3F5AE7F0746A0
:103380000C4606D96FF4AE731A4440F25D138B609D
:1033900000E000222368A04643F4F06348F81C3B99
:1033A0004FF0000B4546DA46CDF814B0CDF810B01A
:1033B000D946CDF80CB0A168002900F0E980336847
:1033C0001B78492B75D016D8392B0DD8312B3ED20E
:1033D0002D2B45D002D82B2B42D0D9E02E2B00F03C
:1033E0009780302B23D0D3E0452B00F09A80462BDA
:1033F0007CD0412B0CE0652B00F093800AD8542B35
:103400007AD002D84E2B33D0C2E0592B7AD0612B20
:1034100049D0BDE06E2B2BD004D8662B66D0692B2B
:1034200047D0B5E0742B67D0792B6BD0B0E0206823
:1034300010F4807F0BD020F08000206009F101099A
:10344000002A00F08C800131013AA16087E00AEB8C
:103450000B01002940F09C80216821F4C07105E037
:103460002168080640F1948021F08001216074E019
:10347000BAF1000F0ED1B9F1000F0ED1216801F49D
:10348000E060B0F5E06F08D121F4F06121604FF009
:10349000010A62E0BAF1020F5DD0BBF1010F20D04A
:1034A000BBF1040F1CE0BAF1010F71D14FF0020A19
:1034B00053E0BBF1000F0ED1B9F1000F6BD12168C1
:1034C00001F4E060B0F5E06F69D121F4F0612160B2
:1034D0004FF0010B41E0BBF1030F02D0BBF1050F30
:1034E00056D10BF1010B5FFA8BFB36E0BBF1020FFB
:1034F0004ED14FF0030B30E0BBF1060F48D14FF037
:10350000070B2AE0BBF1070F42D14FF0080B24E074
:10351000216888053CD521F420712160CDF80C90FC
:103520001BE0216801F4A060B0F5806F04D048056D
:103530002ED5B9F1000F32D0880504D40398059533
:10354000C0EB0900049021F4F06141F4C0712160E6
:103550004FF0000901E04FF0030A2B700135A3681A
:10356000013BA3602369013323617368013B002B96
:10357000736003DD3368013333601CE70192D4F8D4
:103580008031384631469847019A00283FF413AFFE
:10359000B9F1000F03D0236823F4807323600AF18C
:1035A000FF3ABAF1010F10D845452A460BD9D4F895
:1035B0007C3112F8011C3846324698472369013B9A
:1035C000013D2361F0E70126B5E00BF1FF33062B47
:1035D0002CD8BBF1020F1AD9ABF1030B5FFA8BFBAE
:1035E000AA46CBEB050CE2450ED0D4F87C311AF894
:1035F000011DCDF804C03846324698472369DDF8EE
:1036000004C0013B2361EEE7CBEB05050EE0454529
:103610002A46D8D9D4F87C3112F8011C38463246F3
:1036200098472369013B013D2361F0E72368DA05F0
:103630002ED55B050ED545452A46C4D9D4F87C3134
:1036400012F8011C3846324698472369013B013D78
:103650002361F0E715F8011C2369652903F1FF33A5
:1036600005F1FF3A23610DD045290BD0D4F87C3108
:10367000384632469847236915F8021C013BA5F1EC
:10368000020A2361D4F87C313846324698475546C1
:10369000266816F010064DD12E70236803F4C0631F
:1036A000B3F5806F05D10399C1EB09035A4263B9A1
:1036B00015E0049D9DB1059D3246691C38460A23DC
:1036C00002F0C6FA049D421B059D04F26F139D4251
:1036D00028BF04F5B7752846194901F045FC414655
:1036E0000022384601F098FC2268029D12F0020F79
:1036F000804689462B6802D01A1D2A6006E0029D8A
:1037000012F0040F03F104022A6003D01B68C3E91E
:1037100000890BE01D6801F001FC10B901F020FCEC
:1037200003E04046494603F045FC2860E368013366
:10373000E36000E00026304607B0BDE8F08F00BF30
:103740000177000870B50E461446054618B1836926
:103750000BB9FEF7B1FE224B9C4201D16C6808E028
:10376000204B9C4201D1AC6803E01F4B9C4208BF38
:10377000EC68A369A360A3891A0709D523693BB143
:1037800023692068C01A63699842F6B20FDB08E02B
:103790002846214600F03CF80028F1D04FF0FF30D9
:1037A00070BD28462146FEF7F7FD0028F6D1A36834
:1037B000013BA36023685A1C22601E7063690130BC
:1037C000984204D0A389DB0707D50A2E05D12846E5
:1037D0002146FEF7E1FD0028E0D1304670BD00BF74
:1037E00054760008747600089476000838B5074CC3
:1037F000054600202060084611461A46FCF7AAFE3E
:10380000431C02D1236803B12B6038BDAC040020F7
:10381000324B70B51D6806460C4625B1AB6913B92D
:103820002846FEF749FE2E4B9C4201D16C6808E009
:103830002C4B9C4201D1AC6803E02B4B9C4208BF4F
:10384000EC68A28993B2190720D4DD0605D40923B8
:1038500042F040023360A2813BE0580712D5616B11
:1038600041B104F14403994202D03046FEF7FAFE1A
:1038700000236363A38923F02403A38100236360EF
:1038800023692360A38943F00803A38123694BB90B
:10389000A38903F42073B3F5007F03D0304621469B
:1038A00000F090FEA38913F0010205D00022A2606F
:1038B00062695242A26103E0990758BF6269A2603F
:1038C00022694AB903F0800080B230B143F040036E
:1038D000A3814FF0FF3070BD002070BDFC010020BF
:1038E00054760008747600089476000838B5064CC3
:1038F0000023054608462360FCF716FE431C02D150
:10390000236803B12B6038BDAC0400202DE9F74FCC
:1039100003690C69A3428046C0F28180013C01F139
:103920001407A20000F114059146009257F8246094
:103930002A44019255F824200136B2FBF6F6B94428
:10394000002E3AD04FF0000E3A462846F34652F881
:1039500004CB03681FFA8CFA4FEA1C4C0AFB06EAF8
:103960000CFB06FC0CEB1A4C1FFA8AFACAEB0B0A8A
:103970004FEA1C4E1FFA8CFC1AFA83FACCEB134C5C
:103980000CEB2A4C1FFA8AFA4AEA0C4A4A454FEADB
:103990002C4B40F804ABDAD9009AAB586BB9019ABA
:1039A000131FAB421A4602D8C8F8104005E012684F
:1039B000043B002AF8D1013CF3E7404601F0C3F88C
:1039C00000282ADB01362B46002057F804CB1A6862
:1039D0001FFA8CF1411A4FEA1C4C11FA82F1CCEB20
:1039E000124202EB214289B210144F4541EA0242D1
:1039F00043F8042BE9D955F8242005EB840362B978
:103A0000043BAB421A4602D8C8F8104005E01268E1
:103A1000043B002AF8D1013CF3E7304600E00020E7
:103A200003B0BDE8F08F00002DE9F04F456A9BB070
:103A30008246279CCDE9042345B91020FEF7EAFD14
:103A4000CAF82400456085600560C560DAF8243056
:103A5000196861B15B684B60012202FA03F38B6065
:103A6000504600F04DFEDAF8243000221A60059925
:103A7000002905DA012321F000422360059201E0CC
:103A800000232360059F9C4A27F000431B0D1B0564
:103A900093421DD12699049A42F20F730B6042B9EA
:103AA000964B974AC7F3130000280CBF10461846E0
:103AB00000E09248289F002F00F06885C37813B17A
:103AC00000F1080300E0C31C289F3B6000F05EBDCE
:103AD000DDE90445002220462946002303F0F0F9E1
:103AE000804658B1269F01233B60289F002F00F09D
:103AF0004A8584483860013800F048BD19AB00930E
:103B000018AB0193504622462B4601F00CF9C7F33F
:103B10000A5683465EB1C5F3130343F07F51204636
:103B200041F44011A6F2FF36CDF854801CE0199BF9
:103B3000189E1E446FF482639E4209DB04991F3372
:103B400006F212409B1B21FA00F09F40384304E02C
:103B50006D48049A801B02FA00F002F0D3FE0127A0
:103B6000A1F1F871013E15970022684B02F08CFD1F
:103B70005BA3D3E9002302F03BFF5BA3D3E900235F
:103B800002F084FD044630460D4602F0CBFE58A3F9
:103B9000D3E9002302F02CFF02460B4620462946BB
:103BA00002F074FD04460D4603F0BCF92946814637
:103BB00000222046002303F08DF958B1484602F058
:103BC000B1FE02460B462046294603F079F908B9B2
:103BD00009F1FF39B9F1160F0DD84D4B03EBC903AD
:103BE000D3E90001DDE9042303F092F930B109F1D2
:103BF000FF39002700E00127149700E01490189B7C
:103C00009E1B013E099604D5774208970027099725
:103C100001E000270897B9F1000F07DB099FCDF8F5
:103C200044904F44099700270E9708E0089FC9EB7E
:103C300007070897C9F100070E9700271197249FDF
:103C4000092F28D8052FC4BF043F2497249FA7F12C
:103C50000203CCBF00250125032B21D8DFE803F0A8
:103C6000060F0204012702E0012709E000270F9751
:103C7000259F002F1EDD0B9707973B461FE000276F
:103C80000F97259F4F440B9701373B460797012B12
:103C9000B8BF012313E00125002724970F9501E009
:103CA00001270F974FF0FF370B9707970027122335
:103CB000259704E001270B9707973B462597DAF8ED
:103CC000244000226260042101F114029A4221D8AA
:103CD0006268013262604900F6E700BFAFF300801E
:103CE00061436F63A787D23FB3C8608B288AC63F02
:103CF000FB799F501344D33F0000F07F10780008F9
:103D000007780008DE760008EEFBFFFF0000F83FB2
:103D1000207800085046616800F0BDFCDAF82430D5
:103D2000079F20601B680A930E2F00F26981002D07
:103D300000F066819DED047BB9F1000F8DED127BE3
:103D400031DD804A09F00F0302EBC30393ED007BE2
:103D50004FEA2914E0068DED0C7B0CD57A4BDDE99A
:103D60001201D3E9082302F06DFF04F00F04CDE93E
:103D70000401032700E00227734D6CB1E10708D569
:103D8000DDE90C01D5E9002302F032FECDE90C019A
:103D9000013764100835F0E7DDE90401DDE90C23A3
:103DA00002F050FF1BE0C9F10004DCB1654B664D29
:103DB00004F00F0203EBC203DDE91201D3E9002393
:103DC00002F016FE241102274CB1E20704D5D5E912
:103DD0000023013702F00CFE64100835F4E7CDE94A
:103DE000040100E002271499E1B1DDE90445002255
:103DF00020462946554B03F06DF8C0B1079ADAB159
:103E00000B9B002B40F3F88009F1FF311091002249
:103E1000204629464E4B02F0EBFD0137CDE9040167
:103E20000B9A0CE0079BCDF840900C9308E00799A3
:103E3000CDF840900C9103E0079ACDF840900C9299
:103E4000384602F06FFDDDE9042302F0D1FD0022C7
:103E5000404B02F01BFC0C9F0446A1F15075CFB9FA
:103E600000223D4BDDE9040102F00EFC22462B4608
:103E700006460F4603F04CF8002840F04B822246DD
:103E800005F100433046394603F024F8002840F09D
:103E90003782B1E00C9F2B4B7A1E0F9F03EBC203BE
:103EA000002F5DD0D3E9002300202C4902F0CAFE88
:103EB00022462B4602F0E8FBDDE90467DDF82880A6
:103EC00004460D463946304603F02CF8029002F0C5
:103ED00029FD02460B463046394602F0D5FBDDF897
:103EE00008C00CF1300308F8013B22462B46064679
:103EF0000F4602F0EFFF002840F0338332463B4686
:103F00000020124902F0C0FB22462B4602F0E2FFDD
:103F1000002840F0D4800A990C9AC1EB0803934220
:103F20006ADA204629460022094B02F061FD002290
:103F300004460D4630463946054B02F059FD06460B
:103F40000F46BFE720780008F87800080000F03F2F
:103F50000000244000001C40000014400000E03F2E
:103F6000D3E9000122462B4602F042FDDDF828800D
:103F70000C9B0A9CCDE91601DDE90467984439469B
:103F8000304602F0CFFF054602F0CCFC3035024649
:103F90000B463046394602F077FB04F8015B444596
:103FA00006460F4621D10022874BDDE9160102F0BB
:103FB0006DFB02460B463046394602F0A9FF002849
:103FC0007DD1DDE9162300207F4902F05DFB02462A
:103FD0000B463046394602F07DFF68B1A046013CF1
:103FE00018F8013C302BF9D0BBE20022774B02F0ED
:103FF000FFFC06460F46C2E79DED127B8DED047B6C
:10400000199B002B7CDBB9F10E0F79DC704B259FDF
:1040100003EBC903002FD3E9004514DA079F002FF3
:1040200011DC40F06F81204629460022694B02F0E6
:10403000DFFCDDE9042302F061FF079D2C46002828
:1040400040F062816AE1DDE90467DDF828802246FC
:104050002B463046394602F0F5FD02F063FF04902E
:1040600002F060FC22462B4602F0C2FC02460B46E0
:104070003046394602F008FB049F07F1300608F885
:10408000016B0A9FC7EB0806079FBE4202460B461C
:1040900029D102F0FBFA22462B4606460F4602F0D3
:1040A00037FF70B93046394622462B4602F008FFEA
:1040B000002800F05882049FFB0702D453E2DDF889
:1040C000409043469846013B18F8012C392A06D106
:1040D0000A9F9F42F6D1302209F101093A701A78FD
:1040E00001321A703FE20022384B02F081FC0022BC
:1040F000002306460F4602F0E3FE0028A7D032E276
:104100000F9F002F30D0249F012F0ADC159F17B17D
:1041100003F2334302E0189BC3F136030E9D089E61
:1041200016E0079F7D1E0E9FAF4201DB7D1B06E060
:104130000E9F0E95EB1B119F1F4411970025079FA3
:10414000002F03DA08990023CE1B01E0089E079B8D
:10415000089F1F440897099F50461F440121099753
:1041600000F0AEFB044602E00E9D089E0F9C6EB16F
:10417000099F002F0ADD3B46089FB342A8BF334684
:10418000FF1A0897099FFF1AF61A09970E9F002F2A
:1041900028DD0F9F07B3002D10DD21462A4650462B
:1041A00000F030FC04465A462146504600F091FB90
:1041B00059460746504600F0A3FABB460E9F7A1BAD
:1041C00010D0504659460AE00000E03F000024406D
:1041D00020780008000014400E9A5046594600F01E
:1041E00011FC83465046012100F06AFB119F002F0D
:1041F000054605DD294650463A4600F003FC0546D3
:10420000249F012F12DC049981B9059AC2F313038C
:1042100073B922F000473F0D3F0557B1089F0137A2
:104220000897099F01370997012702E0002700E05E
:10423000049F119941B12B6905EB8303186900F0C4
:10424000F2FAC0F1200000E00120099B034413F0C2
:104250001F0308D0C3F12002042A02DDC3F11C03AE
:1042600002E008D013461C33089A09991A441944ED
:1042700008921E440991089A002A04DD59465046C6
:1042800000F00EFC8346099B002B05DD29465046B5
:104290001A4600F005FC05461499E1B15846294636
:1042A00000F051FC002816DA59460A225046002335
:1042B00000F03DFA0F9A09F1FF3983464AB12146D1
:1042C000002350460A2200F032FA0B9B0793044663
:1042D00001E00B990791079A002A29DC249B022B05
:1042E00026DD8AB929460522079B504600F01FFAB1
:1042F00005462946584600F026FC00280EDC03E05F
:104300000C9D00E000252C46259FDDF828806FEAF3
:1043100007090AE00C9DDDF840902C460A9F3123E6
:1043200007F101083B7009F101092746002407E164
:104330000F99002900F0BB80002E05DD2146504674
:10434000324600F0ADFB04469FB16168504600F074
:10435000A2F922690232064604F10C0192000C30E7
:10436000FEF76FF950463146012200F099FB0746EF
:1043700000E027460A9E29465846FFF7C7FA21461D
:1043800000F1300C80465846CDF808C000F0DBFB49
:104390003A4608902946504600F0F2FBC368DDF823
:1043A00008C002464BB911465846039200F0CBFBB9
:1043B000039ADDF808C0034600E001235046114689
:1043C0000393CDF808C000F09BF9039BDDF808C00B
:1043D00063B9249A52B9049901F0010232B9BCF1CF
:1043E000390F35D0089B002B24DC25E008990029E3
:1043F00002DA002B08DC1FE023D1249A0ABB0499BF
:1044000001F00102EAB9F4E7594601225046CDF81D
:1044100008C000F045FB2946834600F094FB0028C5
:10442000DDF808C003DC07D11CF0010F04D0BCF19B
:10443000390F0DD008F1310C06F1010886F800C0E3
:104440007EE0002B06F1010809DDBCF1390F03D134
:104450003923337001365BE00CF1010368E00A9AFE
:1044600007994646C2EB08038B4206F801CC3CD0C4
:1044700059460A220023504600F059F9BC428346AF
:10448000214650464FF00A024FF0000304D100F0DD
:104490004EF9044607466EE700F049F939460446EE
:1044A0000A225046002300F042F9074663E70F9EB8
:1044B00058462946FFF72AFA0A9F00F1300C07F800
:1044C00006C0079F0136BE4207DB0A9E012FACBF24
:1044D000F61901362746002407E0594650460A22BD
:1044E000002300F024F98346E2E7594601225046B2
:1044F000CDF808C000F0D4FA2946834600F023FB2B
:104500000028DDF808C003DC14D11CF0010F11D025
:1045100016F8013C392BB04606F1FF3607D10A994F
:10452000B142F5D1312309F101090B7008E00133E3
:10453000337005E0B046013E18F8013C302BF9D04D
:104540005046294600F0DCF86FB12CB1BC4203D0D4
:104550005046214600F0D4F85046394600F0D0F8D5
:1045600001E0DDF840905046594600F0C9F80023BC
:10457000269F88F8003009F101033B60289F27B18E
:10458000C7F8008001E0034800E00A981BB0BDE8CE
:10459000F08F00BFDD76000800487047040200205D
:1045A00038B5074C054600202060084611461A46DB
:1045B000FCF732F8431C02D1236803B12B6038BDED
:1045C000AC040020F0B58B899E0791B005460C46DF
:1045D00026D4B1F90E10002909DAA38913F0800F4F
:1045E0004FF0000714BF40264FF480660DE001AA8B
:1045F00001F0FAFC0028F0DB029F07F47047B7F5E2
:1046000000514F424F414FF4806628463146FEF735
:104610006DF860B9A3899A051DD443F00203A38104
:1046200004F14703236023610123636113E00B4B13
:10463000AB62A389206043F08003A381206166619F
:104640004FB12846B4F90E1002F000F818B1A38952
:1046500043F00103A38111B0F0BD00BF1124000895
:10466000814270B501D300230EE08C18A042FAD22B
:104670008518134613F1FF3305D3514266182944B8
:10468000F65CCE54F6E770BD934203D0CC5CC454C4
:104690000133F9E770BD70B5456A04460E463DB971
:1046A0001020FDF7B7FF6062456085600560C5605A
:1046B000656AEB6843B1636ADA6852F8260078B13C
:1046C000016842F8261017E020460421212200F05C
:1046D000DEFB636AE860DB68002BECD1002070BD74
:1046E000012101FA06F56A1D2046920000F0CFFB79
:1046F0000028F3D04660856000220261C26070BD70
:1047000070B5446A06460D463CB91020FDF782FF9D
:104710007062446084600460C4603DB1736A6A681A
:10472000DB6853F82210296043F8225070BD2DE950
:10473000F0410C461E460D690746143100230868F7
:104740001FFA80FC000C02FB0C6C504300EB1C4079
:1047500001331FFA8CFC060CAB420CEB004041F815
:10476000040BECDBD6B1A3689D4212DB61683846CE
:104770000131FFF790FF2269023204F10C018046FB
:1047800092000C30FDF75DFF21463846FFF7B8FF79
:10479000444604EB850301355E6125612046BDE892
:1047A000F0812DE9F8431446984603F108020923E5
:1047B0000D4692FBF3F20646012300219A4202DDE8
:1047C0005B000131FAE73046FFF765FF089B436164
:1047D000092C4FF001030146036111DD05F10909C0
:1047E0004F46254417F8013B30460A22303BFFF77D
:1047F0009EFFAF420146F5D109EB0407083F02E0F6
:1048000005F10A0709242546454509DA3B1B3046D0
:104810005B5D0A22303BFFF78AFF01350146F3E773
:104820000846BDE8F883030C1B0413B900041023E9
:1048300000E0002310F07F4F04BF0002083310F0A7
:10484000704F04BF0001043310F0404F04BF8000DC
:104850000233002803DB420003D5581C704718467A
:10486000704720207047036813F007020BD0D90768
:1048700022D49A0703D55B080360012070479B0888
:1048800003600220704799B209B91B0C102213F083
:10489000FF0F04BF1B0A0832190704BF1B090432AB
:1048A000990704BF9B080232D90702D45B0805D0E0
:1048B0000132036010467047002070472020704787
:1048C00010B50C460121FFF7E6FE012244610261AA
:1048D00010BD2DE9F04F16460A6933699A4285B03A
:1048E0000D4601DA35460E46D5F810803769AB68BB
:1048F000696808EB07049C42C8BF0131FFF7CBFE93
:1049000000F1140303EB840101911A46DDF804A0C1
:10491000524503D2002142F8041BF7E705F11401C8
:1049200006F1140201EB880802EB8707CDF8088036
:104930000397039EB242154656D2B5F800C0043222
:10494000BCF1000F25D00F461D46002657F8049BEA
:10495000D5F800801FFA89FB1FFA88FA0CFB0BAA16
:104960004FEA19494FEA1848B2440CFB098808EB92
:104970001A481FFA8AFA4AEA084A4FEA1846DDF846
:104980000880AB46B8454BF804AB01D95D46DDE77E
:104990006E6032F8028CB8F1000F23D01E680F460B
:1049A0001D464FF00009B7F800A0B5F802C008FB9B
:1049B0000ACCE144B6B2AC4646EA09464CF8046B70
:1049C00057F8046BB5F804A0360C08FB06A6DDF812
:1049D00008A006EB194657454FEA164901D265462D
:1049E000E1E76E600433A4E7019B002C03DC046163
:1049F00005B0BDE8F08F53F8042D002AF7D1013C33
:104A0000F3E7000012F003032DE9F04105460E46DE
:104A1000174607D0013B214A52F823200023FFF715
:104A200086FE0646BF1035D06C6A3CB91020FDF7F3
:104A3000F1FD6862446084600460C460D5F824803D
:104A4000D8F808407CB9284640F27121FFF738FFBA
:104A50000023C8F808000446036004E07F1019D062
:104A6000206870B10446FB07F8D531462246284637
:104A7000FFF72FFF314680462846FFF741FE4646A6
:104A8000ECE7284621462246FFF723FF002320605B
:104A90000360E7E73046BDE8F08100BFE878000832
:104AA0002DE9F0470C464FEA621A236949680AEB80
:104AB0000309A3688046154609F101079F4202DDFC
:104AC00001315B00FAE74046FFF7E5FD00230646AB
:104AD00000F11402534504DA002142F82310013397
:104AE000F8E720692AEAEA7104F1140315F01F0CB3
:104AF00002EB810103EB800E16D0CCF1200A0025D9
:104B000018680A4600FA0CF0054342F8045B53F8B3
:104B1000045B734525FA0AF501D21146F0E74D60B2
:104B200045B109F1020705E053F8042B41F8042BC5
:104B30007345F9D3013F404637612146FFF7E0FD59
:104B40003046BDE8F08702690B69D21A10B513D15F
:104B50009C00143001F114020319224453F8044D4F
:104B600052F8041D8C4203D008D24FF0FF3010BD24
:104B70009842F3D3002010BD104610BD012010BD97
:104B80002DE9F04706460C46084611461546FFF744
:104B9000DAFF071E08D130463946FFF77CFD0123B6
:104BA00003614761BDE8F08701DB002703E023468E
:104BB00001272C461D4661683046FFF76CFD2269CF
:104BC0002B69C760143405F1140606EB830A04EB65
:104BD000820C00F11403002154F8047B56F8049B66
:104BE00011FA87F11FFA89F54FEA1949C5EB010857
:104BF000C9EB174707EB28471FFA88F83914B24565
:104C000048EA0747254643F8047BE5D865450DD2B9
:104C100055F8044B11FA84F6240C04EB2644B6B282
:104C2000211446EA044443F8044BEFE753F8041D0B
:104C300009B9013AFAE70261BDE8F0870F4B0B4072
:104C4000A3F15073002B01DD194609E05B421B15EF
:104C5000132B4FF0000105DC4FF4002242FA03F160
:104C600000207047322B4FF00102DABFC3F133034B
:104C700002FA03F313461846704700BF0000F07FA6
:104C80002DE9F041066900F1140707EB8606884616
:104C900056F8044C2046FFF7C6FDC0F120030A2851
:104CA000A6F10405C8F8003014DCBD42C0F10B01C8
:104CB00088BF56F8085C24FA01FC98BF002515301F
:104CC0004CF07F5325FA01F1844043F4401341EA4C
:104CD000040224E0BD4286BFA6F1080556F8081C70
:104CE0000021B0F10B0615D0B440C0F12B0044F008
:104CF0007F5444F4401421FA00FCBD4244EA0C0302
:104D00008CBF55F8044C002424FA00F0B14040EA6E
:104D1000010204E044F07F5343F440130A46104676
:104D20001946BDE8F0812DE9F74301211D46DDF864
:104D30002890DDF82C801446FFF7ADFCC5F30A5728
:104D40000646C5F313030FB143F480130193D4B1A6
:104D500002A840F8084D6846FFF785FD009B48B162
:104D6000019AC0F1200102FA01F10B43C2407361C4
:104D7000019200E07361019BB361002B0CBF012421
:104D80000224346107E001A8FFF76DFD0124019BB7
:104D90007361346120303FB1A7F233470744C9F84B
:104DA0000070C0F135000AE006EB8403A0F2324047
:104DB000C9F800001869FFF736FDC0EB4410C8F8C9
:104DC0000000304603B0BDE8F0832DE9F3410E4604
:104DD00069468046FFF754FF0D46044601A9304658
:104DE000FFF74EFF009F0B46019902467F1AD8F845
:104DF00010003169411A07EB41110029CCBF05EBC6
:104E00000155A3EB01532046294601F01BFF02B0D8
:104E1000BDE8F08110B5013902F11403491112699E
:104E2000013100EB810103EB8202934204D253F87B
:104E3000044B40F8044BF8E7884203D2002340F8C3
:104E4000043BF9E710BD00F1140200694B118342E5
:104E500010B50CDC0CDA11F01F0109D052F8230058
:104E600020FA01F404FA01F181420ED100E0034678
:104E700002EB83039342194605D951F8041C043B05
:104E80000029F7D001E0002010BD012010BD38B589
:104E900002FB01F42146FDF729FC054618B100216B
:104EA0002246FDF7D7FB284638BDF8B5064614461E
:104EB0000D4621B91146BDE8F840FDF717BC1AB9F7
:104EC000FDF7D0FB2046F8BD01F0D0FBA0420ED28A
:104ED00030462146FDF70AFC074650B129462246D6
:104EE000FDF7AFFB30462946FDF7BCFB01E0284645
:104EF000F8BD3846F8BD000038B5074C054600201F
:104F00002060084611461A46FBF74CFB431C02D1B1
:104F1000236803B12B6038BDAC04002031F000439E
:104F200010B500D178B10C4AA3F5801494420CD985
:104F3000B3F5801F0BD3094A93420AD1D0F1010087
:104F400038BF002010BD022010BD042010BD03207A
:104F500010BD002010BD00BFFFFFDF7F0000F07F0D
:104F6000004870470000C07F0EB400B59CB04FF4FD
:104F70000271ADF814106FF00041049107914FF6E3
:104F8000FF711DABADF81610084953F8042B0290C1
:104F900006900868019302A900F038FF029B0022E6
:104FA0001A701CB05DF804EB03B07047FC010020E0
:104FB00030B5026811F8015B541C5DB1537822468C
:104FC000A3F14104E4B2192C98BF2033AB42F1D0D5
:104FD000002030BD0460012030BD2DE9F0410D46B8
:104FE0009046FFF72BFE06460F46B8F1000F0FD094
:104FF000C5F30A53C3F16B03002B09DD1C0504F153
:105000007F5303F54013002201F0F2FCBDE8F0816C
:1050100030463946BDE8F0812DE9F04F9FB00023BE
:105020008146049115921A934FF0000A4FF0000B3D
:105030001991199A13780D2B05D8092B14D2002B2E
:1050400000F0B38113E02B2B07D02D2B02D0202BA7
:105050000DD109E00126099601E000270997531CAC
:10506000199353782BB9A0E101321992E1E7002698
:105070000996199C2378302B5AD16378582B01D08C
:10508000782B49D11AAB099F00930197484619A97B
:105090009D4A1BAB01F007F810F00706054600F02B
:1050A000AF85062E02D10134199480E11A9A3AB1E3
:1050B0001CA83521FFF7AEFE48461A99FFF720FBE2
:1050C0001B9A062E21D8DFE806F0040D08171C0DE8
:1050D00004004FF0000BDA4617E0DDF870A0DDF8B1
:1050E00074B012E01D9BDDF870A002F2334223F48D
:1050F000801343EA025B08E0DFF810B24FF0000AC9
:1051000003E06FF0004B4FF0FF3A2B0740F178853A
:105110004BF0004B00F074BD199B5A1C19925B7840
:10512000302BF9D0002B00F06B850123059301E0B3
:10513000002605964FF00008199F0797CDF80C80C0
:105140004446199E3578A5F13003DAB2092A10D801
:10515000082CD8BF039F4FF00A02D8BF02FB0737C5
:1051600006F10106D4BF039702FB083801341996F3
:10517000E7E74846FFF710FA07684846FFF70CFADA
:105180000068FDF772FB394602463046FDF775FBB5
:10519000064628B100232A46194625460A935FE0B1
:1051A0004846199DFFF7F8F90068FDF75EFB2B18DC
:1051B00019932A5C002C45D12346302A05D1199A2F
:1051C000511C199101335278F7E7A2F131010829F6
:1051D00042D8199E0796194600231D46303A03F11E
:1051E000010029D001446E1C771B874210DA771E1C
:1051F000082F06DC039F4FF00A0C0CFB07F7039700
:1052000004E0102EDCBF0A2707FB08F80136EBE7A5
:10521000002BACBFEB182B1C082B03F1010505DCA0
:10522000039E0A2303FB0626039604E0102DDCBF31
:105230000A2303FB08280020199B5A1C19925A784C
:10524000034602E0254633463146A2F130000928E4
:10525000C4D901270A9703E00025012029460A90B6
:1052600022F02006452E55D125B91BB9059E002EEA
:1052700000F09B80199F04977A1C19927A782B2A48
:1052800004D02D2A05D000260F9608E000200F90AC
:1052900001E001270F97049EB21C1992B278A2F187
:1052A0003007092F34D8302A04D1199A571C19977E
:1052B0005278F8E7A2F13107082F2BD819980690F9
:1052C000A2F13007199A561C199652780E96A2F13F
:1052D0003000C6B2092E05D84FF00A0C0CFB072788
:1052E000303FEFE70E98069EC6EB000CBCF1080FAE
:1052F00044F61F6C02DC6745B8BFBC460F9F5FB128
:10530000CCF1000C08E000BF347900080000F07F09
:10531000049E19964FF0000C002D4CD1002B40F04C
:105320006F84059F002F40F06B840A9800283CD1C1
:105330004E2A1BD002DC492A05D036E0692A02D069
:105340006E2A13D031E019A8AC49FFF731FE60B3E3
:10535000199BAB49013B19A81993FFF729FE10B916
:10536000199B01331993DFF8B4B21AE019A8A549C3
:10537000FFF71EFEC8B1199B1B78282B0FD119A867
:10538000A1491CAA01F0D1F8052808D11D9BDDF820
:1053900070A043F0FF4B4BF4E00B00F031BCDFF8A2
:1053A00080B24FF0000A00F02BBC049B199300263A
:1053B000099600F025BCC1EB0C0103980691102D55
:1053C000B4BFAC464FF0100CCDF808C001F09AFA0B
:1053D000DDF808C0002C08BF2C46BCF1090F82463E
:1053E0008B4615DD894B03EBCC0353E9122301F007
:1053F000FFFA064640460F4601F084FA02460B4685
:105400003046394601F042F9DDF808C082468B4645
:105410000F2D37DC069F002F00F0F28323DD162FBF
:1054200007DC7A4901EBC701D1E9000152465B462E
:1054300014E0069EC5F125039E4223DC734CC5F1A2
:105440000F0504EBC503751BD3E9000152465B460B
:1054500004EBC50401F0CCFAD4E9002301F0C8FA4A
:1054600082468B46CCE3069F16370BDBDDF818C06F
:10547000664FA7EBCC0750465946D7E9002301F009
:10548000E1FBEDE7069ECCEB0508B044B8F1000F58
:1054900061DD18F00F030AD05C4A02EBC303D3E9C5
:1054A000000152465B4601F0A3FA82468B4638F073
:1054B0000F0800F0C880B8F59A7F13DD4FF00008A0
:1054C000CDF80C80CDF81C80CDF81480079FDFF854
:1054D0004CB12223C9F800304FF0000A002F40F0F1
:1054E0007B838DE34FEA2818504659460026B8F1D1
:1054F000010F0DDD18F0010F06D0454B03EBC6037D
:10550000D3E9002301F074FA01364FEA6808EEE7A8
:105510003F4B8246A1F1547B03EBC60652465B46E5
:10552000D6E9000101F064FA21F000438B461B0D1F
:1055300038491B058B428246C0D8A1F580118B42A9
:1055400006D90026DFF8DCB004964FF0FF3A7CE085
:105550000BF1547B77E076D0C8F1000818F00F0308
:105560000AD02A4A02EBC30350465946D3E9002326
:1055700001F068FB82468B465FEA281863D0B8F1D9
:105580001F0F08DD4FF00008CDF80C80CDF81C800F
:10559000CDF814801EE118F0100F14BF6A26002603
:1055A00004961D4E50465946B8F1000F0ADD18F01A
:1055B000010F03D0D6E9002301F01AFA4FEA680878
:1055C0000836F1E7049F82468B469FB3C1F30A5326
:1055D000C3F16B03002B2DDD1F2B25DD342B4FF08A
:1055E000000A02DD4FF05C7B24E0203B4FF0FF31EE
:1055F00001FA03F303EA0B0B1CE000BFD2760008AC
:105600000A780008DA760008207900082078000877
:10561000F87800080000A07C487900080000F07FBE
:105620000000F8FFFFFFEF7F4FF0FF3202FA03F3B5
:1056300003EA000A504659460022002301F040FCCC
:1056400000289FD101E000270497039E009648465A
:10565000079922462B46FFF7A4F8079000283FF44D
:105660002DAF069F7B42002FA8BF00234FF00008FC
:105670000E93CDF80C80079E48467168FFF70BF833
:10568000059000283FF422AF3269023206F10C0186
:1056900092000C30FCF7D5FF1BAB00931CAB0193C1
:1056A000484652465B46CDE90AABFFF73CFB1A90F1
:1056B00000283FF40BAF48460121FFF701F90390A2
:1056C00000283FF403AF1B9BDDF818C0002B2CEA29
:1056D000EC77C0F28B800E9C3A461C44049E1C9DC5
:1056E0009B1B59196FF47F739942C5F1360580F2FF
:1056F00087805B1A1F2BC3EB05054FF0010078DC98
:105700009840002314900F93049866191544A642FC
:10571000B4BF334623460544AB42A8BF2B46002BFB
:1057200002DDF61AED1AE41A0E9900296FD1002E47
:1057300000F38780002F40F08E80002D00F39580CD
:10574000002C00F39C8048461A99059AFFF718FA36
:10575000804600283FF4BAAE0023C6680399C360B0
:105760000896FFF7F0F9002880F29880002E40F0AC
:105770002082BAF1000F40F01C82CBF31303002B00
:1057800040F017822BF000431B0D1B05B3F1D66FC1
:1057900040F20F82D8F81430002B7AD04146012213
:1057A0004846FFF77DF903998046FFF7CCF90028BA
:1057B00040F3FF812BF00043049F1B0D1B05002FBE
:1057C00000F09C80B3F1D66F00F29880B3F15C7F5B
:1057D00000F2F181079E22234FF0000A4FF0000BE8
:1057E000C9F80030002E40F0F78109E2FA1A0E9C49
:1057F00074E7844E1490761A00FA06F60F9683E743
:1058000000264FF0010C0F96CDF850C07CE74846BB
:1058100003990E9AFFF7F6F8039000283FF456AE6E
:10582000484603991A9AFFF754F8034600283FF4B4
:105830004DAE48461A990293FEF762FF029B1A93F7
:1058400075E748461A993246FFF72AF91A90002858
:105850007FF470AF3AE6484605993A46FFF7D2F82A
:10586000059000287FF469AF30E6484605992A463E
:10587000FFF716F9059000287FF462AF26E6484648
:1058800003992246FFF70CF9039000287FF45BAFE1
:105890001CE6D8F81030012B80DC8AE163D1089F28
:1058A000CBF313032FB358498B425A462FD1049E92
:1058B00051466EB1554B0BEA0303B3F1D46F07D8D1
:1058C0001B0DC3F16B034FF0FF3000FA03F301E04F
:1058D0004FF0FF3399421AD14D4B9A4202D1013118
:1058E0003FF4F4AD494B134003F5801B4FF0000A21
:1058F0005FE163B9BAF1000F09D15BE7A3F580134B
:105900006FEA135B6FEA0B5B4FF0FF3A51E10F9BBD
:1059100013B113EA0B0F02E0149E16EA0A0F00F00F
:105920004881089F049A5046594657B1FFF755FBE6
:1059300002460B46DDE90A0100F0A8FE82468B46CE
:1059400037E1FFF74AFB02460B46DDE90A0100F0AA
:105950009BFE0022002382468B4601F0B1FA00280C
:105960007FF438AF25E140460399FFF72EFA002275
:105970004FF0804304460D4601F0B6FA002832D0BD
:10598000089E26B1234F002634463D464CE0BAF12E
:10599000000F03D1CBF313033BB90BE0BAF1010FB6
:1059A00003D1BBF1000F3FF415AF00261A4F194D7C
:1059B000002439E0204629460022164B01F08AFADD
:1059C00040B9204629460022144B01F011F8044644
:1059D0000D4601E0114D002405F10047169417977C
:1059E000DDE9166720E02046294600220B4B00F037
:1059F000FFFF089E04460D4696B901F1004710903E
:105A000011970FE0E3FBFFFFFFFF0F000000F07FA7
:105A1000FFFFEF7F0000F03F0000F0BF0000E03F1D
:105A2000CDE91045DDE910672BF0004C4FEA1C5C16
:105A3000834B4FEA0C5C9C4531D19DED0A7BABF169
:105A4000547B50465946CDF808C08DED0C7BFFF7CE
:105A5000F5F802460B463046394600F0C9FF0246CB
:105A60000B465046594600F011FE21F000431B0D35
:105A7000744ADDF808C01B05934282460CD9724B6C
:105A80000D98984203D10C9901313FF41FADDFF816
:105A9000B8B14FF0FF3A7BE001F1547B42E0049A49
:105AA00052B3BCF1D46F27D8204629465CA3D3E972
:105AB0000023CDF808C001F017FADDF808C0B8B12E
:105AC0002946204601F056FA002808BF012000F0C0
:105AD00019FF089EDDF808C004460D4626B901F1FD
