:020000040800F2
:100000000080012061080008B5080008B508000854
:10001000B5080008B5080008B50800080000000091
:10002000000000000000000000000000B50800080B
:10003000B508000800000000B5080008B508000871
:10004000B5080008B5080008B5080008B50800089C
:10005000B5080008B5080008B5080008B50800088C
:10006000B5080008B5080008B5080008B50800087C
:10007000B5080008B5080008B5080008B50800086C
:10008000B5080008B5080008B50800080000000021
:10009000000000000000000000000000B50800089B
:1000A000B5080008B5080008B5080008B50800083C
:1000B000B5080008B5080008B5080008B50800082C
:1000C000B5080008B5080008B5080008B50800081C
:1000D000B5080008B5080008B508000800000000D1
:1000E000B5080008B5080008B508000800000000C1
:1000F000000000000000000000000000B50800083B
:1001000000000000B5080008B5080008B5080008A0
:1001100000000000000000000000000000000000DF
:10012000B5080008B5080008B5080008B5080008BB
:10013000B5080008000000000000000000000000FA
:10014000000000000000000000000000B5080008EA
:10015000B5080008B5080008B5080008B50800088B
:10016000B5080008B5080008000000000000000005
:10017000000000000000000000000000000000007F
:1001800000000000B50800080000000000000000AA
:10019000B508000810B5054C237833B9044B13B1EA
:1001A0000448AFF300800123237010BD50020020EB
:1001B000000000000894000808B5064B1BB1064873
:1001C0000649AFF300800648036813B1054B03B13D
:1001D000984708BD00000000089400085402002061
:1001E0004C02002000000000154B002B08BF134BF1
:1001F0009D46A3F5803A00218B460F461348144ACA
:10020000121A03F01BF90F4B002B00D098470E4B2E
:10021000002B00D098470020002104000D000D485D
:10022000002802D00C48AFF3008003F06BF82000E8
:10023000290000F0E1FA02F07FFD00BF0000080095
:10024000008001200000000000000000500200209B
:10025000B40500200000000000000000014B036016
:10026000704700BFA887000810B5034B0360044621
:1002700002F047FD204610BDA887000810B5074BC7
:10028000036003F118024C33044642658365543021
:1002900002F0C0FA024B2360204610BDF08B00082C
:1002A000A8870008A0F15800FFF7E8BFA0F15400AC
:1002B000FFF7E4BF10B50446FFF7E0FF204602F069
:1002C00020FD204610BDA0F15800F3E7A0F1540036
:1002D000F0E7000010B5084801F0EEFD04460748BD
:1002E00001F0EAFD21460246054803F059F94FF0B6
:1002F0007E5002F091FBEEE708030020EC020020A4
:10030000B087000810B50F480F4C272101F0FCFF03
:100310000E48092101F0F8FF0023204602210322A4
:1003200002F0E4F920460A490A4A02F0E5FC0A48CC
:10033000002101F069FD09480121BDE8104001F0EC
:1003400063BD00BFD80200206C020020F402002030
:100350007D0200089401002008030020EC02002028
:1003600000B585B072B60521684602F0B7FA10E014
:10037000039B019A1A60962002F05CFB9DF9003005
:10038000013310D0019A039B12041A60962002F0E8
:1003900051FB9DF900300133EAD106480649342269
:1003A00002F07EFAE4E703480349342202F078FAC7
:1003B000E8E700BF3C880008548800080F4A30B4C2
:1003C00093689468B4F1006F1A4604D0103030BCC2
:1003D00042F8201070470A4A03F5CA7553F8044BD7
:1003E00042F8044FAB42F9D14FF00052034B1030AA
:1003F0009A6030BC42F82010704700BF00ED00E06A
:10040000FCFFFF1F70B5114C2368DA68910715D403
:10041000DA68520709D56FF004020D4E1A615D6A61
:100420003368EB1AB3F57A7F00D270BD00F060FA42
:100430002368356005F57A759D6370BD6FF0020223
:100440001A6102F0D7FA2368E2E700BFD404002063
:1004500010030020244B30B51A6C244C42F00802E3
:100460001A641A6C83B002F008020192019A1A6AA7
:1004700042F008021A621A6A22F008021A6201F0B7
:10048000ABFB1B4A1B4B12681B492160A3FB0212EA
:10049000920C0025013A4FF0FF3320466260E36082
:1004A0002561A560656101F0A7F932201349FFF7C6
:1004B00085FF134B4FF480225A602946204601F0F5
:1004C00009F92046042101F005F923680D495A6A0B
:1004D0000A6002F57A729A63DA68284642F00402EA
:1004E000DA6003B030BD00BF00380240D404002001
:1004F0009C01002083DE1B43000C00400504000823
:1005000000E100E01003002008B501F065FBBDE844
:10051000084000F0D3B900BF036870B51B69002123
:10052000012204469847431C05460ED02368204606
:100530001B690021022298472368064629461B6949
:10054000204600229847304670BD70BD084B094ACE
:10055000026010B403F58071002453F8042B82422A
:1005600008BF43F8044C8B42F7D15DF8044B704749
:1005700014030020E88800080A4B0B4A10B503F565
:10058000807104460260002053F8042B944208BF97
:1005900043F8040C8B42F7D1204602F0B2FB204610
:1005A00010BD00BF14030020E888000802480221A3
:1005B000032201F081BF00BF94050020F0B50E4674
:1005C00085B03549054603F036F920B9334B1B6831
:1005D00063B105B0F0BD2846314903F02CF978B974
:1005E0002E4B1B6843B1012005B0F0BD0190FFF711
:1005F000DDFF019805B0F0BDFFF7D8FF0120E8E767
:100600002846284903F017F910B3274B002402E0CD
:100610000134402C21D053F8040F0028F8D12B7856
:100620003A2B32D0294602A801F0FCFF02A802F0C2
:100630004BF890B102A802F02FF888B102A802F09E
:1006400035F803464BB1194AE01C42F82430C0E7A4
:10065000124B1B68ABB10220BBE74FF0FF30B8E78D
:1006600002A802F00DF805460028F6D0036802A89B
:100670009F6802F003F8324601462846B847034611
:10068000E0E7FFF793FF0220A3E72846084902AA04
:1006900003F062F8029BD5E7C488000858040020E4
:1006A000D4880008CC880008100300201403002020
:1006B00010890008022808B50BDDC21E074B53F84D
:1006C0002200002143F8221028B103685B68984794
:1006D00008BD002008BD4FF0FF3008BD1403002006
:1006E000022870B50C4616460FDC0E4B1B680BB982
:1006F000FFF75CFFA51936B114F8011B0A4801F099
:1007000085FFAC42F8D1304670BD0338074B53F833
:10071000200018B103681B68984770BD4FF0FF3088
:1007200070BD00BF58040020940500201403002071
:10073000022810B50C4609DC0D4B1B688BB10D4827
:1007400001F058FF01232070184610BD03380A4BF2
:1007500053F8200040B103689B6898470346184649
:1007600010BDFFF723FFEAE74FF0FF33ECE700BFD0
:10077000580400209405002014030020022808B526
:1007800008DD0338064B53F8200028B10368DB6806
:10079000984708BD012008BD4FF0FF3008BD00BFDD
:1007A00014030020022808B508DD0338064B53F86F
:1007B000200028B103681B69984708BD002008BDC8
:1007C0004FF0FF3008BD00BF14030020022808B519
:1007D00004D84FF400534B60002008BD02F0A6FA85
:1007E000092303604FF0FF3008BD00BF08B50120AA
:1007F00002F0A2FA704700BF08B5FFF785FEFFF7C9
:10080000F9FFBDE80840FFF765BD00BF074A136860
:100810001844EFF30881884202D2106018467047EE
:10082000034B0C221A604FF0FF30704798010020F4
:10083000B0050020074C08B523680546986802F00B
:1008400097FB2368D86802F093FB05B9FEE7FFF732
:1008500087FDFBE700020020002102F0C9BE00BFB7
:10086000DFF838D0002100F004B80D4B5B5843503E
:1008700004310C480C4B42189A42FFF4F6AF0B4A75
:1008800000F003B8002342F8043B094B9A42FFF4FE
:10089000F9AF01F07FFAFFF7A7FC70470080012055
:1008A00014940008940100205002002050020020FF
:1008B000B4050020FFF7FEBF704700BF08B50B4B23
:1008C0001A6842F400721A601A6842F480621A6070
:1008D0001A6842F480721A60032000F0F7F90F20C2
:1008E000FFF7B8FDFFF7E8FF002008BD003C02401D
:1008F000024B1A6801321A60704700BF14040020CE
:10090000014B1868704700BF14040020704700BFF7
:10091000F8B50446002800F0998090F83D3003F0C7
:10092000FF02002B00F08480494A4A48022384F8E1
:100930003D305168236821F4403151605568616849
:10094000294351605E682769A568E168E26A26F478
:1009500080765E605E6846EA07265E605E6826F026
:1009600040765E605E6835435D609D6825F4006595
:100970009D609D68824245EA010199605DD098685A
:10098000216B20F070609860986802439A609A68C2
:1009900022F040529A609A680A439A609968A06966
:1009A000626A21F002019960996841EA4001996008
:1009B00042BB5A6822F400625A60DD6AE169226A29
:1009C000606925F47005DD62DD6A013A45EA02528C
:1009D000DA629A6822F400729A609A6842EA4122C6
:1009E0009A609A6822F480629A609968002241EACB
:1009F0008020012198602264104684F83C2084F80D
:100A00003D10F8BD5A6842F400625A605A6822F4F8
:100A100060425A6059684FF4604090FAA0F0B0FA12
:100A200080F0A26AC0B2013A82400A435A60C4E729
:100A300080F83C20FFF76AFF76E79A6822F0706240
:100A40009A609A6822F040529A60A7E70120F8BDA8
:100A5000002301400100000F30B490F83C3082B018
:100A60000022012B01923DD090F83D300122222B33
:100A70000CBF3223122380F83C20026880F83D30FE
:100A80009368DB0714D41E491E4B0C689168A3FBC6
:100A900004539B0C03EB430341F00101916001936C
:100AA000019B2BB1019B013B0193019B002BF9D1D1
:100AB000154B5B68002113F01F0380F83C1006D033
:100AC000124B9A4216D0084602B030BC704791686B
:100AD00011F040500AD1936843F08043936002B014
:100AE00030BC7047022002B030BC7047184602B0DC
:100AF00030BC7047906810F04050ECD0E3E700BF86
:100B00009C01002083DE1B430023014000200140A4
:100B100003689A6870B5560505460C4602D59B6871
:100B2000D80520D4FFF7ECFE06462A6801E0611CD8
:100B30000CD113689B07FAD595F83D30252B0CBFD7
:100B40003523152385F83D30002070BD24B1FFF713
:100B5000D7FE801B8442E8D20320002385F83D00A5
:100B600085F83C3070BD0422002385F83D2085F8CF
:100B70003C30012070BD00BF0368D86C704700BFD7
:100B8000F0B490F83C3082B00022012B019259D091
:100B90000A680123092A144680F83C302BD80368E0
:100BA0008F681E69496802EB42054FF0070C0CFA8A
:100BB00005FC26EA0C061E611E6907FA05F5354399
:100BC00006291D612DD801EB81015E6B05391F25BA
:100BD0008D4026EA05055D635D6B04FA01F129434A
:100BE000596337498B423ED0002380F83C30184689
:100BF00002B0F0BC704703688F68DE68496894B241
:100C000004EB44051E3D4FF0070C0CFA05FC26EAE8
:100C10000C06DE60DE6807FA05F535430629DD605F
:100C2000D1D90C2901EB810110D81E6B23391F2566
:100C30008D4026EA05051D631D6B04FA01F1294369
:100C40001963CEE7022002B0F0BC7047DE6A41397A
:100C50001F258D4026EA0505DD62DD6A04FA01F1F3
:100C60002943D962BDE7122A23D0A2F11003012B38
:100C7000BAD8144B5968102A41F400015960B3D115
:100C8000114A03F1467303F52E33126803F28333DE
:100C9000A3FB02139B0C03EB83035B000193019BFB
:100CA000002BA1D0019B013B0193019B002BF9D1AB
:100CB0009AE7044B5A6842F480025A6094E700BFF6
:100CC00000200140002301409C010020074AD16818
:100CD0004FF6FF030B4043F0BF6300F0070043F4FF
:100CE000003343EA0023D360704700BF00ED00E00B
:100CF0002DE9F00FD1F800C07C4E82B0002303E054
:100D00000133102B00F09C80012404FA03F202EA64
:100D10000C049442F4D14A6822F01009B9F1020F90
:100D200000F092805D004FF00308D0F800B008FAA0
:100D300005F86FEA080802F0030A08EA0B0B0AFA42
:100D400005FA09F1FF394BEA0A0AB9F1010FC0F8B7
:100D500000A040F2A280D0F80C908F6808EA090841
:100D600007FA05F548EA0505C560D500C8D5604F06
:100D70007D6C45F480457D64D7F8448023F00305FD
:100D800008F48048CDF8048005F1804503F003089D
:100D90000F2705F59C354FEA880807FA08FA554FE2
:100DA000DDF80490D5F80890B84229EA0A0900F065
:100DB0008C8007F58067B84200F08A804E4FB842B9
:100DC00000F08A804D4FB84200F08B804C4FB84203
:100DD0000CBF4FF0040A4FF0050A0AFA08F848EA77
:100DE0000908C5F80880D6F80080E543D7034CBF52
:100DF00044EA080805EA0808C6F80080D6F8048026
:100E000097034CBF44EA080805EA0808C6F80480BE
:100E1000D6F80880D7024CBF44EA080805EA08085B
:100E2000C6F80880D6F80C80920203F1010354BF83
:100E300005EA080444EA0804102BF4607FF464AF68
:100E400002B0BDE8F00F70474FEAD30800EB880806
:100E500003F00709D8F820704FEA89090F2505FA31
:100E600009FB27EA0B0A0F6907FA09F94AEA09059B
:100E7000C8F820505D004FF00308D0F800A008FA31
:100E800005F86FEA080802F0030908EA0A0A09FAF5
:100E900005F94AEA0909C0F80090D0F80890CF682F
:100EA00008EA090907FA05FA49EA0A09C0F80890A8
:100EB000D0F804A0C2F300192AEA040A09FA03F9D7
:100EC0004AEA0909C0F8049045E74FF0000886E7B0
:100ED000012707FA08F882E74FF0020A0AFA08F831
:100EE0007DE74FF0030A0AFA08F878E7003C014072
:100EF000003802400000024000080240000C02409E
:100F000000100240F0B50368DE0783B0044637D511
:100F1000A54A916801F00C01042900F0F380916862
:100F200001F00C01082900F0E980A04B9E4D002241
:100F30001A70FFF7E5FC41F28836074605E0FFF737
:100F4000DFFCC01BB04200F2C8802B689903F6D4C6
:100F5000964B22791A706368002B00F01181FFF71D
:100F6000CFFC914D074641F2883605E0FFF7C8FCFB
:100F7000C01BB04200F2B1802B689A03F6D52368FB
:100F80009F072FD5884A916811F00C0F00F0AC80B4
:100F9000916801F00C01082900F0A280E368002BA1
:100FA00000F0DD80824B804D01221A60FFF7A8FC23
:100FB000064605E0FFF7A4FC801B642800F28D8044
:100FC0002B68794A9807F5D51168F82090FAA0F0B7
:100FD000B0FA80F02369C0B221F0F80183400B43DE
:100FE000136023681A0720D4580734D4A369CBB1FF
:100FF0006D4DAA6802F00C02082A7CD0022B6D4BC2
:101000004FF000021A6000F0CB80FFF779FC2C460D
:10101000054604E0FFF774FC401B64285DD8236894
:101020009B01F7D4002003B0F0BD6369002B73D09F
:10103000614B5D4D01221A60FFF762FC064604E039
:10104000FFF75EFC801B642847D86B6F9B07F7D5C2
:1010500023685807CAD5544B584D1A6C42F0805239
:101060001A641B6C03F080530193019B2B6843F4BB
:1010700080732B60FFF744FC064604E0FFF740FC5A
:10108000801B642829D82B68D905F7D54C4B464DD1
:1010900000221A70FFF734FC41F28836074604E05C
:1010A000FFF72EFCC01BB04217D82B6F9A07F7D45E
:1010B000434B227A1A70A368002B00F0C780FFF719
:1010C0001FFC394D074641F288362B6F9B078DD4A4
:1010D000FFF716FCC01BB042F7D9032003B0F0BDE8
:1010E000526856023FF55AAF2F4A1268950723D52A
:1010F000E268012A20D0012003B0F0BD52685502F9
:101100007FF513AF284A126890037FF539AF626804
:10111000002A7FF435AFEEE7274A234D1360FFF72F
:10112000EFFB064604E0FFF7EBFB801B6428D4D8F6
:101130006B6F9F07F7D48BE71B4AF825106895FA69
:10114000A5F5B5FA85F522691749EDB220F0F8004A
:10115000AA4002430A601A077FF546AF65E7144AC2
:10116000114D1360FFF7CCFB064604E0FFF7C8FB08
:10117000801B6428B1D82B689907F7D4236831E71E
:10118000FFF7BEFB084D074641F2883604E0FFF743
:10119000B7FBC01BB042A0D82B689B03F7D4EEE688
:1011A000FFF7AEFB064612E000380240023802406C
:1011B0000000474260004742800E474200700040F6
:1011C00070380240FFF79CFB801B642885D82B6891
:1011D0009901F7D447F6C07595FAA5F5B5FA85F5E6
:1011E0004FF4403191FAA1F1B1FA81F14FF0706200
:1011F00092FAA2F2B2FA82F2A66AD4F824C0D4F823
:1012000020E0E769E06A194B194CEDB276080CFA58
:1012100005F54EEA0707C9B2013E3D43D2B206FAD0
:1012200001F100FA02F229431143012261601A60C0
:10123000FFF766FB054605E0FFF762FB401B6428ED
:101240003FF64BAF23689A01F6D5EBE6FFF758FB64
:10125000074D074641F288362B6F98077FF5C6AEDB
:10126000FFF74EFBC01BB042F6D936E7600047429D
:10127000003802407C4B1A6802F00F028A422DE9C6
:10128000F0410C46054609D2CAB21A701B6803F039
:101290000F038B4258D00120BDE8F08103689A0704
:1012A00006D5724A8168906820F0F0000143916091
:1012B000DF0727D56B68012B79D09A1E012A6B4A6C
:1012C000126840F287809107E5D5684FBA6822F02E
:1012D00003021343BB60FFF713FB6B68012B064649
:1012E0007CD0022B00F08880032B65D041F2883837
:1012F00004E0FFF705FB801B404565D8BB6813F091
:101300000C0FF6D1584BE2B21A701B6803F00F03B2
:10131000A342C0D12B685A0706D5544AE9689068A1
:1013200020F4E050014391601B0707D54F4B29691A
:101330009A6822F4604242EAC1029A600F20FFF7E5
:1013400089F80020BDE8F08103689F0706D5474A69
:101350008168906820F0F00001439160DE07DAD5E3
:101360006B68012B56D09A1E012A404A12682ED96A
:10137000910790D53D4EB26822F003021343B3604B
:10138000FFF7BEFA6B68012B044648D0022B54D0FD
:10139000032B60D041F2883704E0FFF7B1FA001B5D
:1013A000B84211D8B36813F00C0FF6D1B2E72F4A48
:1013B0001268960389D46EE741F28834BB68FFF760
:1013C0009FFA801BA042F9D90320BDE8F08190016B
:1013D000D0D460E790013FF578AF5CE741F2883800
:1013E00004E0FFF78DFA801B4045EDD8BB6803F0A1
:1013F0000C03042BF5D185E741F2883804E0FFF7B0
:101400007FFA801B4045DFD8BB6803F00C03082B34
:10141000F5D177E7154A12689403ABD43BE741F264
:10142000883704E0FFF76CFA001BB842CCD8B368E9
:1014300003F00C03042BF5D16CE741F2883704E08C
:10144000FFF75EFA001BB842BED8B36803F00C0386
:10145000082BF5D15EE741F28835B368FFF750FA03
:10146000001BA842F9D9AFE7003C02400038024017
:101470001E4B9A6802F00C02042A10B432D0082ADB
:1014800003D01B485DF8044B704758685A685C6885
:1014900012F4800F00F03F0147F6C07292FAA2F2F8
:1014A000B2FA82F247F6C07314BF12481048D2B2A3
:1014B0002340D3400D4AB0FBF1F000FB03F052682B
:1014C0004FF4403393FAA3F3B3FA83F302F44032B8
:1014D000DBB222FA03F301335B00B0FBF3F05DF8FB
:1014E000044B704703485DF8044B704700380240D6
:1014F0000024F40000127A0008B5FFF7B9FF094B89
:10150000F0229B6892FAA2F2B2FA82F203F0F003A0
:10151000D2B223FA02F20449044B8A5CD04018602C
:1015200008BD00BF00380240208900089C0100204F
:1015300008B5FFF7E1FF084A4FF4E053926893FAC9
:10154000A3F3B3FA83F302F4E052DBB222FA03F31B
:10155000024AD35CD84008BD003802402089000808
:1015600008B5FFF7C9FF084A4FF46043926893FA41
:10157000A3F3B3FA83F302F46042DBB222FA03F37B
:10158000024AD35CD84008BD0038024020890008D8
:101590000E4B0F22026010B49C680D4A04F0030445
:1015A00044609C6804F0F00484609C6804F4E05497
:1015B000C4609B685DF8044B03F46043DB0803617F
:1015C000136803F00F030B60704700BF0038024040
:1015D000003C0240036A23F00103F0B48F680E68F8
:1015E0000362036A104D4268846923F0020324F009
:1015F0007304A84243EA070344EA060406D0496894
:10160000426084614163F0BC03627047CF688E69B9
:101610004D6923F0080322F440723B43354323F025
:1016200004032A43EBE700BF00000140036A23F4F0
:101630008073F0B48F680E680362036A114D4268CC
:10164000C46923F4007324F07304A84243EA072317
:1016500044EA060406D049684260C461C163F0BC34
:1016600003627047CF684E698D6923F4006322F4EA
:10167000405243EA072342EA061223F4806342EA17
:101680000512E8E700000140036A23F48053F0B438
:101690008F680E680362026A0C4D4368C46922F4C5
:1016A000005224F4E644A84242EA073244EA0624FF
:1016B00006D049684360C4610164F0BC02627047AF
:1016C0004D6923F4804343EA8513F2E700000140AB
:1016D000704700BF03680E4A186A10B4012404FA68
:1016E00001F120EA01001862186A934241EA000100
:1016F000196207D01A685DF8044B42F0010200201D
:101700001A6070475A6C42F400425A64F2E700BF14
:1017100000000140704700BF03680E4A186A10B409
:10172000012404FA01F120EA01001862186A9342C8
:1017300041EA0001196207D01A685DF8044B42F0D3
:10174000010200201A6070475A6C42F400425A6449
:10175000F2E700BF00000140264A0368904230B41F
:1017600034D0B0F1804F20D0A2F57C4290421CD002
:1017700002F58062904218D002F58062904214D047
:1017800002F59A32904214D002F58062904210D055
:1017900002F5806290420CD08C680A6803600123D5
:1017A000C462826230BC436170474A6823F07003B0
:1017B0001343CD688C680A6823F440732B4303609D
:1017C0000123C462826230BC436170474C68CA68BE
:1017D00023F070031C4324F44074224302608B689E
:1017E000C3620B6883620B6903630123436130BCEE
:1017F000704700BF0000014010B50446B0B190F83A
:10180000393003F0FF0263B12146022351F8040B83
:1018100084F83930FFF7A0FF012384F83930002025
:1018200010BD80F83820FFF753FFEDE7012010BD11
:1018300010B50446B0B190F8393003F0FF0263B13F
:101840002146022351F8040B84F83930FFF784FF56
:10185000012384F83930002010BD80F83820FFF7CC
:1018600059FFEDE7012010BD036A23F01003F0B427
:101870008F680E680362036A114D4268846923F021
:10188000200324F4E644A84243EA071344EA06246A
:1018900006D04968426084618163F0BC036270478E
:1018A000CF684E698D6923F0800322F4406243EAD9
:1018B000071342EA860223F0400342EA8502E8E782
:1018C0000000014038B590F83830012B04460D4631
:1018D00028D00121022380F8381080F839300C2AF2
:1018E00019D8DFE802F00718181834181818471824
:1018F0001818210029460068FFF76CFE23682A6942
:10190000996941F008019961996921F0040199618F
:1019100099690A439A610123002084F8393084F8D8
:10192000380038BD022038BD29460068FFF7ACFEFC
:1019300023682969DA6942F40062DA61DA6922F41B
:101940008062DA61DA6942EA0122DA61E3E7294674
:101950000068FFF789FF236829699A6942F40062E9
:101960009A619A6922F480629A619A6942EA012234
:101970009A61D0E729460068FFF758FE23682A6974
:10198000D96941F00801D961D96921F00401D9610F
:10199000D9690A43DA61BEE7036804201A6A00FACB
:1019A00001F122EA01021A621A6A114319625A6CA1
:1019B00042F400425A641A6842F001021A600020A0
:1019C000704700BF2DE9F0410568C1682B69C26905
:1019D000D0F810E08768466923F440531943044661
:1019E00080692961EB684EEA070123F4164331430D
:1019F00023F00C0311430B43EB606B6923F440733A
:101A00000343B2F5004F6B61594B3CD09D4200F04F
:101A10008C8003F580639D4200F08780FFF788FD8E
:101A20006368544E00EB80009B0000EB8000B0FB2D
:101A3000F3F7FFF77DFD636800EB80009B0000EB90
:101A40008000B0FBF3F8FFF773FD636800EB8000E4
:101A500000EB80009B00B0FBF3F3A6FB0727A6FB7F
:101A600003237F095B0964203F0100FB13884FEAD1
:101A7000081808F13208A6FB0836C6F343163743A8
:101A8000AF60BDE8F0819D422DD003F580639D429B
:101A900029D0FFF74DFD6368364E00EB80005B00F8
:101AA00000EB8000B0FBF3F7FFF742FD636800EB4B
:101AB00080005B0000EB8000B0FBF3F8FFF738FD1F
:101AC000A6FB072763687F0900EB80003F0100EB5E
:101AD00080005B00B0FBF3F3A6FB03235B096422E9
:101AE00002FB1388C3E7FFF73BFD6368214E00EB61
:101AF00080005B0000EB8000B0FBF3F7FFF730FDE8
:101B0000636800EB80005B0000EB8000B0FBF3F843
:101B1000FFF726FDA6FB072763687F0900EB80001F
:101B20003F0100EB80005B00D4E7FFF719FD63681D
:101B3000104E00EB80009B0000EB8000B0FBF3F741
:101B4000FFF70EFD636800EB80009B0000EB800058
:101B5000B0FBF3F8FFF704FDA6FB072763687F09D6
:101B600000EB80003F0100EB80009B00B2E700BF6C
:101B7000001001401F85EB51704700BF10B50446AF
:101B800040B390F8393003F0FF02F3B1236802222A
:101B900084F83920DA6822F40052DA602046FFF730
:101BA00011FF23681A6922F490421A615A6922F0DF
:101BB0002A025A61D868002240F400500121D860FE
:101BC000E263104684F8391010BD80F83820FFF722
:101BD000D3FFDBE7012010BD164B9A6802F00C0220
:101BE000042A24D0082A0AD0134A124B13489968B1
:101BF000134BC1F30311415CCA401A607047586827
:101C000059685B6842024CBF0E4A0B4A01F03F0123
:101C1000C3F38813B2FBF1F202FB03F2054B5B68DE
:101C2000C3F3014301335B00B2FBF3F2DDE7054A86
:101C3000DBE700BF003802400024F40030890008D0
:101C40009C01002000127A00224A234B116C70B5CF
:101C500041F080511164126C94B002F080520192F4
:101C6000019A1A6822F4404242F400421A601B684A
:101C700003F4404302930123029A089300B1052321
:101C800009934FF4A8710723042202244FF480061D
:101C9000082508A813930E940F961095119112928F
:101CA000FFF730F9034610B1002014B070BD4FF4B7
:101CB000805221460F2503A80494059307930395AA
:101CC0000692FFF7D7FAD0F1010038BF002014B018
:101CD00070BD00BF0038024000700040234A244B12
:101CE000116CF0B541F080511164126C95B002F0A6
:101CF00080520192019A1A6822F4404242F4004252
:101D00001A601B6803F4404302934FF0030E102344
:101D1000002404210722012702254FF4A87608A8F1
:101D20000C931093DDF808C0CDF820E00B970994D0
:101D30000F940E95119612911392FFF7E3F8034654
:101D400010B1204615B0F0BD4FF4805229460F2443
:101D500003A804950593079303940692FFF78AFA64
:101D6000D0F1010038BF002015B0F0BD00380240AE
:101D70000070004008B50120FFF766FF00B108BD04
:101D8000FFF762FF0028FAD1FFF7A8FF0028F6D17D
:101D9000FEE700BF174B1848D3F8882070B542F40F
:101DA0007002164CC3F888202268154E154D00218C
:101DB00042F001022260A160226822F0847222F4C3
:101DC00080322260666026684FF0006226F480262A
:101DD0002660E1609A600560FEF770FDFFF7CAFFBC
:101DE000236A43F008032362236A23F00803236273
:101DF00070BD00BF00ED00E09C01002000380240F3
:101E0000103000240024F40070B50C46054682B062
:101E10002249204600F0BAFD2860013037D0204624
:101E20001E4900F0CDFD431C06462AD0C6F3C3264A
:101E30006E712046194900F075FD194A2C7113681E
:101E4000EBB918492D68486C01241460164A40F417
:101E5000807053604864496C936001F48071019113
:101E60001046019915601361936153629362136385
:101E7000D362D3601462D3615361FEF749FD02B0AF
:101E800070BD0A480A49322200F00AFDCEE709482F
:101E900007492E2200F004FDC1E700BF448F00086F
:101EA000180400200038024010050020C4890008F2
:101EB000588900084089000800B5314A0168437913
:101EC000116085B0002201210191029203920F2B33
:101ED00009D8DFE803F0272A2D303336393C3F425A
:101EE00045484B4E510C002005B05DF804FB0F2314
:101EF000009369462248FEF743FE2148FEF7ACFDF9
:101F00001F480A21FEF704FE0028ECD11C48FEF70A
:101F100033FE80B2C0F3032343EA001080B205B061
:101F20005DF804FB00230093E3E701230093E0E75F
:101F300002230093DDE703230093DAE704230093F1
:101F4000D7E705230093D4E706230093D1E70723BF
:101F50000093CEE708230093CBE709230093C8E75B
:101F60000A230093C5E70B230093C2E70C230093D9
:101F7000BFE70D230093BCE70E230093B9E700BF32
:101F80001005002000B587B0072859D8DFE800F019
:101F900012202E3C4A5858042D4B2E481A6B42F002
:101FA00080021A631B6B03F080030593059B07B047
:101FB0005DF804FB264B28481A6B42F001021A63B5
:101FC0001B6B03F001030093009B07B05DF804FB5B
:101FD0001F4B22481A6B42F002021A631B6B03F07C
:101FE00002030193019B07B05DF804FB184B1C48EA
:101FF0001A6B42F004021A631B6B03F00403029392
:10200000029B07B05DF804FB114B16481A6B42F0B7
:1020100008021A631B6B03F008030393039B07B0CA
:102020005DF804FB0A4B10481A6B42F010021A6369
:102030001B6B03F010030493049B07B05DF804FBD3
:102040000A4800F039FC002007B05DF804FB00BF2F
:1020500000380240001C0240000002400004024020
:1020600000080240000C024000100240148A0008E0
:1020700030B5431C87B005460C461CD0C5F3031091
:10208000FFF780FF05F00F0504F00F0201210D4B53
:1020900001FA05F553F8223001950322C4F3021525
:1020A00001A9C4F3C3140293039505940492FEF7A7
:1020B0001FFE07B030BD04480449812200F0F0FB48
:1020C000DCE700BFE0890008388A00084C8A000875
:1020D00038B5431C04460D4618D0C4F30310FFF76F
:1020E00051FF04F00F04C268022D4FEA44044FF080
:1020F000030198BFA54001FA04F422EA0404C46075
:10210000C26888BF00251543C56038BD0248034931
:10211000A62200F0C5FBE0E7388A00084C8A0008D8
:1021200030B507EE901A274A03681360F5EEC07ABF
:10213000F1EE10FA89B004463DD4B7EE007AF4EE21
:10214000477AF1EE10FAC8BFF0EE477AD4ED026A92
:10215000227CB8EE667A002367EE277A6020FCEED8
:10216000E77A013AC4ED037ACDED027A0190039348
:102170000493059306930793032A10D8DFE802F02F
:102180001102151304250F4801A92A46FFF79AFBEF
:10219000A0B9637C0B4829464BB1FFF7FDFB09B0A2
:1021A00030BD0025EFE70C25EDE70825EBE7FFF74D
:1021B000B3FA09B030BDDFED047AC7E7034800F099
:1021C0007BFBE6E71C04002000000000B08A00084A
:1021D000F0B58268454D03682B6087B004460E4613
:1021E000002A57D007EE102AF8EE477A90ED037ACE
:1021F000F8EE476AB7EE007AC6EEA77AF4EEC77A31
:10220000F1EE10FAC8BF17EE107A45DD196A41F2F7
:1022100011120A402AB9196A40F244420A40002ABF
:102220003DD001A86946FFF7B3F92368304A9342CD
:1022300045D039D92F4A934207D051D92E4A9342DB
:1022400003D002F58062934222D1FFF789F9059A03
:102250000090731EEB60254B002A39D1274AA2FB60
:102260000010800C01385860002320482B61AB60BF
:10227000FFF7DEFA10B1224800F01EFB3946204677
:10228000FFF74EFF2B68A6601A6842F001021A6041
:1022900007B0F0BDDFED1B7A17EE907AB6E71A684B
:1022A00022F001021A60BCE7A2F50062934206D058
:1022B00002F58062934202D0B3F1804FE8D1FFF77C
:1022C00037F9049A0090731EEB60084B002AC5D0C2
:1022D0000A4A4000A2FB0010800C01385860C3E796
:1022E000A2F580429342B0D0D2E700BF1C04002088
:1022F000000C0040004001400044014083DE1B43CD
:10230000B08A00080000000070B50D46044688B091
:102310004849284600F03AFB206001306FD028463B
:10232000444900F04DFB431C06466ED02368424AE8
:10233000C6F3C3219342C6F3C0362174667444D0F9
:10234000B3F1804F29D03D4A93424AD102F50D3274
:10235000116C41F002011164126C02F0020203924E
:10236000039A374A934209D1364B5A6C42F4802281
:102370005A645B6C03F480230793079B28462D491E
:1023800000F0D0FA00232571A360E360204644F6F4
:102390002061FFF71DFF08B070BD2A4A116C41F0A3
:1023A00001011164126C02F001020292029A264AA3
:1023B0009342D6D1234B5A6C42F400325A645B6C80
:1023C00003F400330693069BD8E702F59C32516C68
:1023D00041F001015164526C02F001020192019A34
:1023E000E5E71A4A934216D1164B1A6C42F00402E2
:1023F0001A641B6C03F004030493049BBEE71448A7
:1024000014492D2200F04CFA89E713481149312272
:1024100000F046FA8AE7114A9342C8D1094B5A6C38
:1024200042F480325A645B6C03F480330593059B5D
:10243000A4E700BF948D00080000014000040040A4
:1024400000480140003802400044014000080040BC
:10245000C88A0008E08A0008C489000800400140DA
:10246000F8B5134B90F9197006688568C46801695E
:1024700042691E6001374FF000065D609C60D960C4
:102480001A619E6110D090F9182001320CBF04220D
:102490000C225A610648FFF771FB00B9F8BD0548E8
:1024A000BDE8F84000F008BA08225A61F2E700BF20
:1024B00054050020488B0008F0B5044685B0084656
:1024C0000E463C49154600F061FA3B49074628464E
:1024D00000F05CFA0146384600F046FA411C2060E4
:1024E00061D0364B984247D003F58063984236D08E
:1024F000A3F55043984225D030462E4900F012FAF9
:1025000028462D4900F00EFA721C03D030460121F6
:10251000FFF7DEFD6B1C03D028460121FFF7D8FD35
:1025200000234FF41652A260E360236163612676B4
:1025300065762046FFF794FF214A2368934228D00E
:1025400005B0F0BD1F4B1A6C42F400321A641B6CCC
:1025500003F4003302930123029A6360CCE7194B22
:102560005A6C42F020025A645B6C03F02003039320
:10257000039B05236360BFE7124B5A6C42F01002C5
:102580005A645B6C03F0100301930023019A6360AB
:10259000B2E70D4B0D4821461C2201241C6000F0BF
:1025A00044FF05B0F0BD0A480A49532200F078F90B
:1025B000206896E7FC8E00084C8D00080010014052
:1025C00000440040003802405804002094050020D8
:1025D000608B00087C8B000810B4044B44680448EE
:1025E000196040F824205DF8044B70477C040020FB
:1025F0005C040020026813689B06FCD5024B5068FF
:102600001A60C0F308007047540500200268136880
:102610001B06FCD5024BC1F3080151601A607047DC
:102620005405002038B50023036043600A782F2A40
:10263000044601D0204638BD4A78002AFAD0481C0A
:1026400020604A782F2A14D0B2B18D1C194600E0C0
:1026500052B125602A782F2A2B4601F1010105F19C
:102660000105F5D10133236000F002FB60602046D4
:1026700038BD19460346F5E71146F5E7006870478F
:1026800010B50446406828B100F010FB012801D1C4
:10269000606810BD002010BD406808B528B100F08A
:1026A00005FBD0F1010038BF002008BD10B504467D
:1026B000406830B100F0FAFA18B9606808B104381F
:1026C00010BD002010BD00BF4068003018BF0120C1
:1026D000704700BF00F058B8A0F15400FFF7FABFF0
:1026E00000F056B8A0F15400FFF7FABF38B5044621
:1026F0001D4600F025F8294604F1540000F0AEF81C
:10270000054B03F1080103F1200254332160626597
:10271000A365204638BD00BFE88B000801EB4101EE
:1027200008B5CB002033C1184A6922B1C05808B19E
:102730000431904708BDC358002BFBD0984708BD13
:1027400038B504460E4B0360251D00234FF4165088
:10275000206563602846A360E36023616361A36131
:102760002377637723626363A363E364FFF7A4FEC5
:10277000284622460349FFF72FFF204638BD00BFF9
:10278000A88700081D2700080430FFF733BF00BFEB
:1027900010B504300C46FFF739FF204610BD00BFCE
:1027A00000207047F8B58E18B1420F4605460FD08D
:1027B0000C4601E0A64209D02B6814F8011B5B6AA5
:1027C000284698470130F5D1E01BF8BDF01BF8BD55
:1027D0000020F8BDF8B58E18B1420F4605460FD05F
:1027E0000C4603E004F8010BA64207D02B682846EC
:1027F0009B6A9847431CF5D1E01BF8BDF01BF8BD60
:102800000020F8BD0020704700207047002070476E
:102810000020704710B5074B03F108023C33044613
:1028200080E80C00406900F0EDFA204600F096F9CF
:10283000204610BD488C0008A0F10400FFF7EABF55
:1028400010B50446FFF7E6FF204600F05AFA20468E
:1028500010BD00BFA0F10400FFF7F2BF10B584B0B7
:10286000044600F0ABF90B4B0B4903F108000022C2
:102870003C3384E80900626101A8224600F048FF69
:10288000064901A800F086FC6061FDF7E5FF2046DF
:1028900004B010BD488C000810890008908C000816
:1028A00010B40C4613460146224602485DF8044B1C
:1028B00000F002B8948C00080FB400B5064B83B04A
:1028C00004AA1B6852F8041BD868019201F034FC7A
:1028D000012000F031FA00BF0002002038B50D469B
:1028E000044600F0C5F8013511D094F900300133E9
:1028F0000ED06268E368120420461A60012100F0DD
:10290000D1F820460021BDE8384000F0C7B838BDF6
:10291000024803493422FFF7C3FFEAE73C88000876
:1029200054880008431C10B5044619D091F90030B2
:10293000581C04D10FE011F90C3F5A1C0BD09C42DB
:10294000F9D120468968FFF793FB20460021BDE8B6
:102950001040FFF7BDBB0348BDE81040FFF7ACBF18
:1029600010BD00BFC88C0008884208B50AD0431CBF
:1029700007D0013106D00448FFF79EFF4FF0FF302B
:1029800008BD084608BD00BFDC8C000808B5431C24
:102990000DD091F900305A1C04D109E011F90C3F17
:1029A0005A1C05D09842F9D14868411C00D008BD96
:1029B0000248FFF781FF4FF0FF30F8E7F08C000886
:1029C00008B5431C0DD091F900305A1C04D109E020
:1029D00011F90C3F5A1C05D09842F9D18868411C66
:1029E00000D008BD0248FFF767FF4FF0FF30F8E75F
:1029F000108D0008014800F05BB900BF448D00084D
:102A000038B5054600F080F8044600F07DF8001B5C
:102A1000A842FAD338BD00BF07EE100ADFED047AF2
:102A200067EE277AFDEEE77A17EE900AFFF7E8BF28
:102A3000002474494FF47A7303FB00F0FFF7E0BF02
:102A4000431C10B5044608D020460021FFF710FBB8
:102A500004F00F040120A04010BD034803492722C1
:102A6000FFF71EFFF0E700BF388A0008109000084B
:102A700070B505464B1C0C4629700DD0C1F30310F0
:102A8000FFF780FA06462046FFF7DAFF06F110034B
:102A900018366860AB60EE6070BD00BF90F9000052
:102AA000FFF716BB38B5054690F90000431C0C46ED
:102AB0000BD0012C04D00021BDE83840FFF7D8BA74
:102AC0002146BDE83840FFF7D3BA044804494622FE
:102AD000FFF7E6FE95F90000EBE700BF3C88000831
:102AE00010900008054B186800B17047044A05496A
:102AF000116001221A60FDF7ADBC00BFC4040020C4
:102B000088040020000C004008B5044B1B680BB97A
:102B1000FFF7E8FF024B586A08BD00BFC40400205D
:102B2000000C0040034B1B685863DA6842F0020255
:102B3000DA60704788040020034B1B68DA6822F0D3
:102B40000202DA60704700BF88040020024B1B6855
:102B50006FF002021A6170478804002010B5074B1D
:102B6000044603F108023433226040F8043F00F0C9
:102B700039F82046FDF7EAFC204610BD78900008A1
:102B8000A0F10400FFF7EABF094B10B5044603F1BA
:102B900008023433226040F8043F00F023F8204656
:102BA000FDF7D4FC204600F0ACF8204610BD00BF75
:102BB00078900008A0F10400FFF7E6BF10B5074BBE
:102BC0000446002240F8043B00F042F8044B03F1B5
:102BD0000802343384E80C00204610BDE888000861
:102BE000789000088368094A026053B1084B1A685C
:102BF000824201D106E01A4653688342FBD1436802
:102C00005360704742681A60704700BFC090000868
:102C1000C804002083680C4A10B50446026053B112
:102C20000A4B1A68904201D10AE01A4653689C4246
:102C3000FBD163685360204600F063F8204610BD66
:102C400042681A60F7E700BFC0900008C80400207F
:102C5000054B0273002281600360426019B1034B8F
:102C60001A68426018607047C0900008C8040020CD
:102C70000D4B70B51C6806460D4614B912E0646829
:102C800084B1A36831462A461846002BF7D000F0DD
:102C9000E4FD0028F3D1A06800F0D7FDA842EED1F2
:102CA000204670BD002070BDC8040020007B704726
:102CB00038B50368DB680446984763685B6883B18E
:102CC00022681D6853689847281A002862680CDC3F
:102CD00050681168836853600029F0D040688847C5
:102CE000EBE723689B68984738BD236852681B69E7
:102CF0001068984738BD00BF03460846194600F0E3
:102D000005B808B100F07ABB7047000070B5064CFA
:102D100006460D4613462CB131462A460220AFF333
:102D2000008070BD204670BD00000000014B186897
:102D3000704700BF0002002008B5074B044613B1DE
:102D40000021AFF30080054B1868836A03B19847F0
:102D50002046FDF76FFD00BF000000002C91000829
:102D600070B505460C4609B9002070BD18B18369DD
:102D70000BB900F063F9204B9C4201D16C6808E06C
:102D80001E4B9C4201D1AC6803E01D4B9C4208BF26
:102D9000EC68B4F90C30002BE6D02846214600F050
:102DA000BDF8236B064633B12846216A98470028B0
:102DB000B8BF4FF0FF36A3891B0603D5284621690B
:102DC00000F044FB616B41B104F14403994202D02D
:102DD000284600F03BFB00236363A16C21B1284629
:102DE00000F034FB0023A36400F092F90023A381D8
:102DF00000F08FF9304670BDC8900008E8900008D8
:102E000008910008024B01461868FFF7A9BF00BFF0
:102E1000000200208A892DE9F041054610070C4682
:102E200057D44B68002B02DC0B6C002B18DDE66AD4
:102E3000B6B102F48052002392B22F682B600AB11F
:102E4000626D10E0216A28460123B047411C02460A
:102E500009D12B683BB11D2B01D0162B46D12F6019
:102E60000020BDE8F081A3895B0705D56368D21A0D
:102E7000636B0BB1236CD21AE66A216A28460023E1
:102E8000B047461CA28905D12B681BB11D2B01D070
:102E9000162B19D100236360D1042369236004D564
:102EA000421C01D12B6803B96065616B2F6000295A
:102EB000D6D004F14403994202D0284600F0C6FA65
:102EC00000206063BDE8F08142F04002A281BDE8CD
:102ED000F0810E69002EC3D00B680E60C6EB0308AC
:102EE00093070CBF4B6900238B6012E0A38943F06A
:102EF0004003A3814FF0FF30BDE8F081A76A216A4B
:102F0000284632464346B8470028EFDD0644C0EB6A
:102F10000808B8F1000FF1DCA2E7000038B50B6932
:102F200005460C46DBB118B183690BB900F086F891
:102F30000C4B9C4201D16C6808E00B4B9C4201D1C8
:102F4000AC6803E0094B9C4208BFEC68B4F90C3054
:102F50002BB128462146BDE83840FFF75BBF002073
:102F600038BD00BFC8900008E8900008089100082C
:102F7000014620B9044B0549186800F0A5B9044B77
:102F80001868FFF7CBBF00BF2C9100081D2F000869
:102F900000020020F8B5074600F1480494B1A56886
:102FA0006668013E0CD4AB89012B07D9B5F90E3008
:102FB000013303D038462946FFF7B0FF6835F0E704
:102FC0002468EBE7F8BD0000002310B50446036059
:102FD0004360836081814366C28103614361836191
:102FE00019465C30082200F029FA054B6362054B54
:102FF000A362054BE362054B2462236310BD00BF4F
:10300000AD370008D33700080B3800082F38000808
:1030100070B54B1E68255D430E4605F1740100F046
:1030200059FA044640B1002180E842000C30A0600B
:1030300005F1680200F002FA204670BD836910B500
:10304000044633BB8364C3640365124B124A1B6896
:103050008262984204BF0123836100F01FF8606020
:10306000204600F01BF8A060204600F017F804216D
:10307000E06000226068FFF7A7FFA0680921012235
:10308000FFF7A2FFE06812210222FFF79DFF012354
:10309000A36110BD2C910008952F0008F8B51B4BBB
:1030A0001E68B369074613B93046FFF7C7FF4836B5
:1030B000B4687368013B04D4B4F90C5075B168343A
:1030C000F8E733682BB938460421FFF7A1FF3060D9
:1030D00008B13668ECE70C233B60F8BD4FF6FF7390
:1030E000E3810123A38165662560A5606560256194
:1030F0006561A56104F15C002946082200F09EF993
:103100006563A563A564E5642046F8BD2C910008BD
:1031100070477047F7B50F46114601AA054602F001
:10312000AFFE064608B9002029E02846FFF7B6FFA3
:1031300004460028F7D028463946019A4FF4DB733D
:1031400000F01CFA002806DA0025FFF7E1FFA58150
:10315000FFF7DFFFE7E70B4B63620B4BA3620B4B01
:10316000E3620B4B2363F305E081A681246205D55E
:10317000284621460022022300F016F8204603B01C
:10318000F0BD00BFAD370008D33700080B3800088A
:103190002F3800080A460349034608681946FFF716
:1031A000B9BF00BF0002002000F000B82DE9F843CD
:1031B0000C4691461E46054618B183690BB9FFF7C8
:1031C0003DFF3E4B9C4201D16C6808E03C4B9C4269
:1031D00001D1AC6803E03B4B9C4208BFEC68A3897B
:1031E00003F48473B3F5847F03D128462146FFF7A7
:1031F00095FED4F82C801D23B8F1000F2BD0012EA2
:1032000004D0022E2BD056B3162324E028462146A4
:10321000FFF784FEA28902F4805292B20AB1606D77
:1032200005E0216A28463346C047411C14D0A389D3
:103230005A0706D56368C01A636B4BB1236CC01A7A
:1032400006E01B0704D5236813B122699B1A1844B2
:103250008144002603E02B604FF0FF372BE0236909
:103260001BB92846214600F073F828462146FFF78F
:1032700055FE07460028EFD12846216A4A463346C4
:10328000C0470130E8D0616B41B104F14403994279
:1032900002D0284600F0DAF8002363632369236034
:1032A000A389002123F402636160A38104F15C001F
:1032B000082200F0C3F83846BDE8F883C89000083B
:1032C000E8900008089100082DE9F84380468946F7
:1032D00000F14804002694B1A5686768013F0CD44A
:1032E000AB89012B07D9B5F90E30013303D0404625
:1032F0002946C84706436835F0E72468EBE73046BF
:10330000BDE8F88370B50E4B0E4DED1AAD100024DC
:103310001E46AC4204D056F8242090470134F8E70A
:1033200005F032FA084D094BED1AAD1000241E4687
:10333000AC4204D056F8242090470134F8E770BD21
:1033400040020020400200204802002040020020ED
:10335000F0B58B899E0791B005460C4626D4B1F98D
:103360000E10002909DAA38913F0800F4FF000072F
:1033700014BF40264FF480660DE001AA02F0B8FDAC
:103380000028F0DB029F07F47047B7F500514F4269
:103390004F414FF480662846314600F09BF860B9F3
:1033A000A3899A051DD443F00203A38104F14703C6
:1033B000236023610123636113E00B4BAB62A3899C
:1033C000206043F08003A381206166614FB12846ED
:1033D000B4F90E1002F09EFD18B1A38943F0010369
:1033E000A38111B0F0BD00BF952F0008024B01462C
:1033F000186800F06FB800BF00020020024B0146C1
:10340000186800F023B800BF0002002010B5C9B250
:1034100002449042034606D01C788C4200F1010021
:10342000F7D1184610BD002010BD10B500239342FF
:1034300003D0CC5CC4540133F9E710BD0244034609
:10344000934202D003F8011BFAE7704730B5002918
:103450003CD051F8042C0B1F1D49002AB8BF9B1803
:103460000A680C4612B95A600B6030BD93420DD207
:1034700019685818904203D15A581144426819608B
:103480005A60236030BD994203D80A46516800292A
:10349000F9D1146815199D420AD11B682344D0182C
:1034A0008842136012D10868034413604B680CE033
:1034B00002D90C23036030BD18681C188C4203D15C
:1034C0000C684968204418605960536030BD00BFE3
:1034D000D004002070B5CD1C25F0030508350C2D57
:1034E00038BF0C25002D06463FDB8D423DD3214BD6
:1034F0001C6818462146A1B10B685B1B0ED40B2B30
:1035000003D90B60CC18CD501FE08C4202D1626809
:1035100002601AE04B6863600C4616E00C4649688E
:10352000E9E7154C23681BB9304600F051F82060DC
:103530002946304600F04CF8431C014615D0C41C07
:1035400024F0030484420AD1256004F10B00231DFA
:1035500020F00700C31A0BD05A42E25070BD30462B
:10356000611A00F035F80130EED10C2333600020F1
:1035700070BD00BFD0040020CC04002038B5074C3B
:10358000054600202060084611461A46FDF716F849
:10359000431C02D1236803B12B6038BDB005002065
:1035A0000FB40A4B13B51C6824B1A36913B92046A4
:1035B000FFF744FD05AB2046A168049A019300F093
:1035C000B7FC02B0BDE8104004B070470002002014
:1035D00038B5064C0023054608462360FDF716F96A
:1035E000431C02D1236803B12B6038BDB005002015
:1035F00000290CBF022200224FF4806300F000B8C3
:103600002DE9F0411E463D4B1D6804460F4690468D
:1036100025B1AB6913B92846FFF710FD384B9C4222
:1036200001D16C6808E0374B9C4201D1AC6803E0E3
:10363000354B9C4208BFEC68B8F1020F59D8002EF8
:1036400057DB28462146FFF769FC00236360A3612E
:10365000A3891B0603D528462169FFF7F7FEA38936
:10366000B8F1020F23F08303A38112D037BB002EE1
:1036700008BF4FF480663046FFF7B8FE0746C8B96A
:103680004FF48060FFF7B2FE074688B94FF0FF3075
:1036900000E00020A38943F00203A3810023A3607C
:1036A00004F147032360236101236361BDE8F081D6
:1036B0004FF48066A38943F08003A381B8F1010F22
:1036C00005D1A38943F00103A3817342A3610F4B8A
:1036D000AB62A389276003F0080080B227616661AE
:1036E00048B113F0030F18BF0026A6600020BDE804
:1036F000F0814FF0FF30BDE8F08100BF00020020F4
:10370000C8900008E890000808910008952F00086C
:103710000EB400B59CB04FF40271ADF814106FF008
:103720000041049107914FF6FF711DABADF81610E3
:10373000084953F8042B029006900868019302A9E7
:1037400000F0FEF8029B00221A701CB05DF804EB3A
:1037500003B07047000200200EB430B59CB01FAC1F
:103760004FF4017254F8045BADF8142002900690F7
:1037700000F06BF80B4B0B9300230F9314934FF651
:10378000FF73ADF81630084B0390079002A9186834
:1037900001942A46234600F01BFA1CB0BDE83040D5
:1037A00003B07047CF3700080002002010B50C4668
:1037B000B1F90E1003F020F8002803DB636D034419
:1037C000636510BDA38923F48053A38110BD00203D
:1037D00070472DE9F0411D468B89DB0507460C46F5
:1037E000164605D5B1F90E100022022302F0A6FB01
:1037F000A389B4F90E1023F48053A38138463246CE
:103800002B46BDE8F04101F063BC10B50C46B1F9A0
:103810000E1002F093FB431CA38903D123F48053C1
:10382000A38110BD43F48053A381606510BDB1F93D
:103830000E1001F0CDBC10F8012B11F8013B012A4C
:1038400028BF9A42F7D0D01A7047034613F8012BCD
:10385000002AFBD1181A0138704770B592B10B4697
:1038600005461C7810F8016BB44201F1010101D149
:10387000012A03D128781B78C01A70BD013A002CA8
:10388000EDD1F7E7104670BD2DE9F0478D68AB42EA
:1038900081460C4692461F4643D38B8913F4906FA2
:1038A0003DD026680969C1EB06086669022206EB6D
:1038B000460696FBF2F608F101023A44964238BFFA
:1038C00016465B050FD53146FFF704FE054698B155
:1038D00021694246FFF7A9FDA38923F4906343F0D1
:1038E0008003A38113E0324602F05FFF054670B902
:1038F00048462169FFF7AAFD0C23C9F80030A389C7
:1039000043F04003A3814FF0FF30BDE8F08725610D
:1039100066614544C8EB06062560A6603D46AF4299
:1039200000D23D462A462068514602F019FBA368A2
:103930005B1BA36023681D4425600020BDE8F08761
:103940002DE9F0439DB0074603938B891C060D4675
:1039500016460CD50B6953B94021FFF7BBFD286013
:10396000286110B90C233B60C8E040236B61002341
:10397000099320238DF8293030238DF82A303346DF
:103980001C4613F8012B1AB9B4EB06090FD002E05C
:10399000252AF5D1F8E73846294632464B46FFF747
:1039A00073FF013000F0A580099B4B4409932378F5
:1039B000002B00F09E8000234FF0FF32049307930A
:1039C000059206938DF853301A9304F101094C4681
:1039D0004D4E217830460522FFF718FD09F1010907
:1039E000049B28B1861B0120B04003430493EEE7FB
:1039F000D90644BF20228DF853201A0744BF2B223A
:103A00008DF8532022782A2A02D0079B21460EE007
:103A1000039A111D12680391002A01DB079204E04A
:103A2000524243F002030792049301340AE00C4629
:103A300001312278303A092A03D80A2000FB0323F7
:103A4000F5E7079323782E2B1AD163782A2B0AD116
:103A5000039B1A1D1B680392002B04F10204B8BFDC
:103A60004FF0FF330BE0611C00230C46013122783C
:103A7000303A092A03D80A2000FB0323F5E705930F
:103A8000224E217830460322FFF7C0FC30B1861B5E
:103A9000049B4020B04003430493013421781C4828
:103AA0008DF828100622661CFFF7B0FC88B1194B70
:103AB00033B9039B073323F007030833039314E060
:103AC00003AB0093384604A92A46134B00F0D6FBFB
:103AD00007E003AB0093384604A92A460E4B00F0DA
:103AE0004DFEB0F1FF3F804603D0099B434409934C
:103AF00045E7AB895B0601D4099801E04FF0FF3040
:103B00001DB0BDE8F08300BF309100083691000879
:103B10003A9100087D4200088938000838B54B1CEE
:103B2000144602D14FF0FF3038BD938923F02003B3
:103B30009381536B5268CDB283B1A36B9A4207DA7B
:103B400023685A1E226003F8015C636801331FE09A
:103B5000214600F089F90028F2D0E3E721692368C3
:103B600051B18B4208D913F8010CA84204D1013B92
:103B700001322360626038BDE36304F14403636390
:103B80000323A3632346226403F8465F23600123D3
:103B90006360284638BD10B50C46496B69B104F125
:103BA0004403994201D0FFF751FC236C636000206D
:103BB000606313B1E36B236010BD236923600023AE
:103BC0006360A38943F02003A3814FF0FF3010BD51
:103BD0002DE9F047ADF5247D0DF10C09019300238B
:103BE000469347939B4BA2939B4BCDF8209107465E
:103BF0000C469046A39398F80050002D00F02281C7
:103C000096490B682B448A465A7802F0080202F063
:103C1000FF03EAB16368002B10DD2368DAF80020A7
:103C200019780A44527815070ED5479A01324792FF
:103C300062680133013A62602360EBE7A39B384678
:103C4000214698470028E8D008F10106B046D2E79F
:103C5000252D08F101064FD14593439398F8013083
:103C60002A2B03D11023439308F102063178A1F1E6
:103C70003003092B354606F1010606D8459B0A227A
:103C800002FB0313303B4593F0E7DFF8D8810322B2
:103C90004046FFF7BBFB40B1C8EB0008439B012047
:103CA00000FA08F00343439335466E1C2D78672DC8
:103CB0000FD8652D72D25B2D4ED005D8002D00F0A7
:103CC000C380252D18D06BE0632D51D0642D39D0E1
:103CD00066E0702D2CD007D86E2D4FD034D8692DCA
:103CE0005ED10023449333E0752D2BD0782D23D063
:103CF000732D55D1022339E06368002B0DDD236855
:103D00001A78AA4240F09E80013362682360479B84
:103D1000013A01336260479398E7A39B38462146F6
:103D200098470028EBD04698002840F087808BE029
:103D3000439B43F020034393439B43F4007343931B
:103D4000102302E00A2300E008236E2D449301DCD7
:103D500003230BE0042309E03146484602F080FDCE
:103D6000439B43F0400343930646012349931BE0E2
:103D7000439B43F0400343930023F7E7439AD00665
:103D80003FF564AF12F0010F019A479B02F1040165
:103D90000191126814BF1380136057E70523E5E70C
:103DA000032349930A2344936368002B03DD439B59
:103DB000590611D518E0A39B38462146984700289C
:103DC000F5D0B0E7479A013247926268013A002A7B
:103DD000626013DD013323602368DAF8002019786C
:103DE0000A4452781207EDD4499B022B0DDC384669
:103DF00043A9224601AB00F0C1FF19E0A39B38465E
:103E0000214698470028E7D08DE7042B06DC38468A
:103E100043A9224601AB01F011F809E0104B002B39
:103E20003FF414AF384643A9224601AB00F0BAFD77
:103E3000012807D002287FF409AF74E7A3895B0645
:103E400004D501E0469801E04FF0FF300DF5247DE8
:103E5000BDE8F0871D3B0008973B000804020020E6
:103E6000A5490008369100082DE9F0410C46496B40
:103E700004F1440399421CD14FF48061FFF72AFBFF
:103E800018B94FF0FF30BDE8F0814FF48063A363B1
:103E900094F84630606380F8FF3394F8453080F83A
:103EA000FE3394F8443080F8FD3300F2FD3020609A
:103EB00012E0A66B77003A4602F077FC0546002830
:103EC000DFD000EB0608404629463246FFF7ADFA40
:103ED000C4F800806563A7630020BDE8F0819368A3
:103EE000013B002B10B5936005DA9469A34208DB0F
:103EF000CBB20A2B05D01368581C10601970C8B2D9
:103F000010BDBDE8104001F08FB8F8B505460E466B
:103F10001446D718BC4208D0284614F8011B324674
:103F2000FFF7DDFF431CF5D100E00020F8BD0000E5
:103F30002DE9F0439DB00D4617460393064618B190
:103F400083690BB9FFF77AF8734B9D4201D175680D
:103F500008E0724B9D4201D1B56803E0704B9D4271
:103F600008BFF568AB8918070AD52B6943B1002350
:103F7000099320238DF8293030238DF82A3038E03A
:103F80003046294601F0B6F80028F0D04FF0FF3057
:103F9000BFE0039A111D12680391002A70DB07929B
:103FA000013423782E2B7DD05E4F217838460322B2
:103FB000FFF72CFA30B1C71B049B4020B8400343E5
:103FC00004930134217858488DF828100622671C84
:103FD000FFF71CFA002800F08A80544B002B7DD19B
:103FE000039B073323F0070308330393099B4344E0
:103FF00009933B461C4613F8012B1AB9B4EB070989
:104000000ED002E0252AF5D1F8E7304629463A4697
:104010004B46FFF77AFF013076D0099B4B4409935A
:104020002378002B70D000234FF0FF3204930793C6
:10403000059206938DF853301A9304F101094C460A
:104040003B4F217838460522FFF7E0F909F10109D5
:10405000049B28B1C71B0120B84003430493EEE73B
:10406000D90644BF20228DF853201A0744BF2B22C3
:104070008DF8532022782A2A8BD0079B214605E011
:10408000524243F002030792049389E70C46013140
:104090002278303A092A03D80A2000FB0323F5E7E7
:1040A00007937EE763782A2B0AD1039B1A1D1B68AE
:1040B0000392002B04F10204B8BF4FF0FF330BE072
:1040C000611C00230C4601312278303A092A03D8BA
:1040D0000A2000FB0323F5E7059365E703AB009394
:1040E000304604A92A46134B00F0C8F807E003AB9A
:1040F0000093304604A92A460E4B00F03FFBB0F176
:10410000FF3F80467FF472AFAB895B063FF53EAF61
:1041100009981DB0BDE8F083C8900008E890000839
:1041200008910008369100083A9100087D42000885
:10413000309100080B3F000830B51346044A05468D
:104140000C46106829462246BDE83040FFF7F0BE15
:10415000000200202DE9F04788B0002B14461D46D0
:10416000109E1299139F05DA05F100431D4614466F
:104170002D2300E000230B70149B23F0200ABAF1DA
:10418000460F04D0BAF1450F03D1013601E00323F5
:1041900000E002238DE8C80006AB039307AB04934D
:1041A00022462B4601F0B4F8BAF1470F804602D1FF
:1041B000119BDB0725D5BAF1460F08EB06090FD195
:1041C00098F80030302B09D12046294600220023E0
:1041D00004F010FA10B9C6F101063E603B6899443C
:1041E000204629460022002304F004FA08B1CDF845
:1041F0001C90079B4B4504D25A1C079230221A7020
:10420000F7E7079BC8EB0302159B40461A6008B00E
:10421000BDE8F087034673B5002903F8022B03DAE3
:1042200049421A462D2401E01A462B2409294470DC
:104230001ADD0DF106040A2691FBF6F506FB1511B1
:104240003031092D234604F801192946F3DC05F124
:10425000300103F8011D0DF107018B420AD213F85A
:10426000011B02F8011BF6E730241A46214402F82C
:10427000024B5970101A02B070BD00002DE9F04FCA
:104280008FB00C4616461F46DDF86090054601F0DB
:1042900051FED0F800A05046FFF7D7FA00230C9348
:1042A000D9F800300990073323F00703D3E9000160
:1042B00003F1080294F81880C9F80020C4E912013B
:1042C00002F0ACFA0128D4E9120117D10022002330
:1042D00004F09AF910B12D2384F84330904B914AA1
:1042E000B8F1470F8CBF9146994603232361236899
:1042F00023F0040323604FF0000B86E002F08EFAF7
:10430000236848B9884A8949B8F1470F8CBF894664
:10431000914603222261EBE76268511C28F0200BD2
:1043200001D1062204E0BBF1470F02D10AB90122F4
:1043300062606068CDF8108043F480618DE803000E
:104340000DF12B0002900BA803900CA80590002003
:1043500021600690D4E912232846FFF7FBFEBBF14B
:10436000470F81460B9909D1C81C02DB636899424B
:1043700030DDA8F102085FFA88F802E0B8F1650FB5
:1043800012D80139424604F150000B91FFF742FF69
:104390000C9A8318012A8346236102DC2268D20723
:1043A0002DD5013323612AE0B8F1660F14D100291D
:1043B000636807DD216113B92268D0071CD501337A
:1043C0000B4418E013B92268D20701D5023312E07A
:1043D000012310E04FF067080C9A914205DB236837
:1043E0002161D80708D54B1C05E00029D4BFC1F1D5
:1043F0000203012313442361A1654FF0000B9DF8D4
:104400002B3013B12D2384F84330009728462146E2
:104410000DAA334600F040F9013002D14FF0FF30D1
:1044200036E123685A0504D4284631464A462369B2
:1044300008E1B8F1650F40F2CB80D4E91201002207
:10444000002304F0D7F800282AD028463146384AFD
:104450000123B8470130E1D00C9B0B9A9A4207DB4D
:104460002368D80704D423689B0700F1F880FDE097
:10447000284631465246099BB8470130CED04FF00E
:1044800000080C9B013B9845EDDA2846314604F1C3
:104490001A020123B8470130C0D008F10108F0E743
:1044A0000B9B002B28DC28463146214A0123B847C4
:1044B0000130B3D00B9B23B90C9B13B92368D907E8
:1044C000D1D5284631465246099BB8470130A5D080
:1044D0004FF000080B9B5B4298452846314608DAAE
:1044E00004F11A020123B847013097D008F10108FE
:1044F000F0E74A460C9BA5E0A36D0C9A9A42B4BF24
:1045000093469B46BBF1000F02DC4FF000081CE015
:10451000284631464A465B46B8470130F5D17DE72B
:104520004191000845910008499100084D9100080B
:104530009A9100082846314604F11A020123B8472F
:1045400001303FF46BAF08F10108A36D2BEAEB7269
:104550009A1A9045EEDB09EB03080B9A0C9B9A42E2
:104560000FDB2368DA070CD40C9B0B9A9944C8EB39
:1045700009099B1A9945A8BF9946B9F1000F08DCB3
:104580000FE0284631465246099BB8470130EBD12F
:1045900044E72846314642464B46B84701303FF48F
:1045A0003DAF4FF000080AE02846314604F11A02F8
:1045B0000123B84701303FF431AF08F101080B9BEC
:1045C0000C9A29EAE971D31A5B1A9845ECDB4AE7A1
:1045D0000C9A012A01DCDB0739D5284631464A46C8
:1045E0000123B84701303FF419AF284631465246FF
:1045F000099BB84701303FF411AFD4E91201002202
:10460000002303F0F7FF10B14FF0000811E00C9BFE
:104610002846314609F10102013B1CE0284631469B
:1046200004F11A020123B84701303FF4F7AE08F154
:1046300001080C9B013B9845F0DB2846314604F10C
:1046400050025B46B84701307FF40DAFE6E62846DE
:1046500031464A460123B8470130EED1DEE64FF03D
:104660000008E2680D9BD31A984505DBE0680D9BB6
:104670009842B8BF18460BE02846314604F11902AB
:104680000123B84701303FF4C9AE08F10108E8E75B
:104690000FB0BDE8F08F00BF2DE9F84315461F4667
:1046A0008A680B69DDF820809A42A8BF13462B6008
:1046B00091F8432006460C460AB101332B6023686B
:1046C000990602D52B6802332B60236813F0060984
:1046D0001DD094F843302268003318BF012392069E
:1046E0001FD5E1185A1C302081F84300224494F869
:1046F000451082F84310023313E03046394604F186
:1047000019020123C047013007D009F10109E2680D
:104710002B68D31A9945F0DBDBE74FF0FF30BDE89B
:10472000F8833046394604F14302C0470130F4D0E3
:1047300023682A68E16803F00603042B08BFC2EB74
:1047400001052369A2680CBF25EAE57500259A4298
:10475000C4BFC3EB0203ED184FF00009A9450ADA04
:104760003046394604F11A020123C0470130D4D043
:1047700009F10109F2E70020BDE8F8832DE9FF47C0
:104780000E7E0C9D6E2E80460C4691469A4601F197
:10479000430000F0A58011D8632E22D009D8002E46
:1047A00000F0AF80582E40F0BF8081F845607B4A12
:1047B0004FE0642E1ED0692E1CD0B5E0732E00F0A1
:1047C000A48009D86F2E2BD0702E40F0AD800B68DE
:1047D00043F020030B6038E0752E21D0782E34D0C2
:1047E000A2E02B681A1D1B682A6001F1420781F8BC
:1047F00042309DE022682B6812F0800F03D01A1D12
:104800002A601D6805E05106F9D51A1D2A60B3F922
:104810000050002D39DA2D236D4284F8433034E006
:1048200022682B6812F0800F03D01A1D2A601D68C1
:1048300004E05206F9D51A1D2A601D88237E574AC6
:104840006F2B14BF0A2308231BE07823544A84F8F3
:1048500045302368296813F0800F01F104062E60AB
:1048600001D00D6802E05F06FBD50D88DE0744BF6E
:1048700043F0200323601DB9236823F02003236045
:104880001023002184F8431001E0444A0A2366689B
:10489000A660002E03DB216821F00401216005B928
:1048A0006EB104F14201B5FBF3F603FB16550F465A
:1048B000555D01F801593546002EF4D100E0074658
:1048C000082B0AD12368DD0707D5626823699A425D
:1048D00003DC302307F8013C013FC01B20612CE0C2
:1048E00009682B68626911F0800F04D0191D2960D6
:1048F0001B681A6005E04906F8D5191D29601B6878
:104900001A8000232361074617E02B681A1D2A60CE
:104910001F683846FEF799FF63682061984288BF98
:1049200023612369636005E004F1420784F8426073
:1049300001232361002384F84330CDF800A04046D2
:10494000214603AA4B46FFF7A7FE013002D14FF0E4
:10495000FF301FE0404649463A462369D0470130C0
:10496000F5D023689B0705D4E068039B9842B8BF45
:1049700018460FE00025E268039BD31A9D42F3DA44
:104980004046494604F119020123D0470130DED0E8
:104990000135F0E704B0BDE8F08700BF5191000891
:1049A000629100082DE9F04F164687B08A6802939D
:1049B000531EB3F5AE7F07460C4606D96FF4AE73AF
:1049C0001A4440F25D138B6000E000222368A04689
:1049D00043F4F06348F81C3B4FF0000B4546DA46C1
:1049E000CDF814B0CDF810B0D946CDF80CB0A16810
:1049F000002900F0E98033681B78492B75D016D860
:104A0000392B0DD8312B3ED22D2B45D002D82B2B54
:104A100042D0D9E02E2B00F09780302B23D0D3E06A
:104A2000452B00F09A80462B7CD0412B0CE0652B67
:104A300000F093800AD8542B7AD002D84E2B33D072
:104A4000C2E0592B7AD0612B49D0BDE06E2B2BD020
:104A500004D8662B66D0692B47D0B5E0742B67D09D
:104A6000792B6BD0B0E0206810F4807F0BD020F061
:104A70008000206009F10109002A00F08C800131DA
:104A8000013AA16087E00AEB0B01002940F09C800D
:104A9000216821F4C07105E02168080640F1948086
:104AA00021F08001216074E0BAF1000F0ED1B9F15C
:104AB000000F0ED1216801F4E060B0F5E06F08D17D
:104AC00021F4F06121604FF0010A62E0BAF1020FB7
:104AD0005DD0BBF1010F20D0BBF1040F1CE0BAF197
:104AE000010F71D14FF0020A53E0BBF1000F0ED15C
:104AF000B9F1000F6BD1216801F4E060B0F5E06F0F
:104B000069D121F4F06121604FF0010B41E0BBF16C
:104B1000030F02D0BBF1050F56D10BF1010B5FFA69
:104B20008BFB36E0BBF1020F4ED14FF0030B30E0B0
:104B3000BBF1060F48D14FF0070B2AE0BBF1070F7E
:104B400042D14FF0080B24E0216888053CD521F4C0
:104B500020712160CDF80C901BE0216801F4A06069
:104B6000B0F5806F04D048052ED5B9F1000F32D0D2
:104B7000880504D403980595C0EB0900049021F43E
:104B8000F06141F4C07121604FF0000901E04FF085
:104B9000030A2B700135A368013BA360236901332D
:104BA00023617368013B002B736003DD33680133BD
:104BB00033601CE70192D4F880313846314698477B
:104BC000019A00283FF413AFB9F1000F03D0236816
:104BD00023F4807323600AF1FF3ABAF1010F10D871
:104BE00045452A460BD9D4F87C3112F8011C3846C9
:104BF000324698472369013B013D2361F0E70126D6
:104C0000B5E00BF1FF33062B2CD8BBF1020F1AD9FC
:104C1000ABF1030B5FFA8BFBAA46CBEB050CE2452D
:104C20000ED0D4F87C311AF8011DCDF804C03846F6
:104C3000324698472369DDF804C0013B2361EEE763
:104C4000CBEB05050EE045452A46D8D9D4F87C3192
:104C500012F8011C3846324698472369013B013D52
:104C60002361F0E72368DA052ED55B050ED54545AF
:104C70002A46C4D9D4F87C3112F8011C3846324691
:104C800098472369013B013D2361F0E715F8011CBA
:104C90002369652903F1FF3305F1FF3A23610DD044
:104CA00045290BD0D4F87C313846324698472369E1
:104CB00015F8021C013BA5F1020A2361D4F87C31EE
:104CC0003846324698475546266816F010064DD1AC
:104CD0002E70236803F4C063B3F5806F05D1039988
:104CE000C1EB09035A4263B915E0049D9DB1059DCE
:104CF0003246691C38460A2302F03AFC049D421BE6
:104D0000059D04F26F139D4228BF04F5B775284630
:104D10001949FEF7FDFC41460022384601F00CFE21
:104D20002268029D12F0020F804689462B6802D04D
:104D30001A1D2A6006E0029D12F0040F03F104021E
:104D40002A6003D01B68C3E900890BE01D6801F0ED
:104D500065FD10B901F0B6FD03E04046494603F099
:104D6000C3FC2860E3680133E36000E000263046BE
:104D700007B0BDE8F08F00BF739100082DE9F04146
:104D800015468A6880460C4632B98A69002A14BFE3
:104D90004FF0FF3201228A602268D10603D41A68DC
:104DA000111D196017680026A069E0B92368DA06AA
:104DB00006F1010603D42B681B783B7001372A6883
:104DC0006B6801322A60A268013B013A6B60A26005
:104DD00012B3002BE8DCD4F88031404629469847CE
:104DE0000028E1D018E0012807D12A68117862690B
:104DF000525C002ADAD1EEB10EE0022801D04EB1A9
:104E00000AE02A680C49127809680A4452781307A4
:104E1000CCD5F4E701280DD0236813F0100305D199
:104E2000E2680132E260A26902B13B7023691E446C
:104E300026610020BDE8F081040200202DE9F04F3A
:104E4000984689B0744B0C4605A9029181461646D6
:104E500093E80700029B83E80700A3696F4A704943
:104E6000032B08BF1146A36803915A1EB2F5AE7F0B
:104E700007D96FF4AE7503EB050A40F25D13A3602A
:104E800001E04FF0000A236804F11C0743F450636B
:104E90002360BB460023326805A951F8230011782E
:104EA00001930222FEF7B2FA019B002835D0012BB4
:104EB0000BD162682AB908226260226842F400724B
:104EC0002260226822F4A0620BE0022B0AD1226841
:104ED00002F4C061B1F5007F1FD11021616042F47E
:104EE00080722260A268511EA160B2B13268511C6A
:104EF000316012788BF800207268013A002A0BF1B9
:104F00000105726008DC0193D4F8802148463146DF
:104F10009047019B002840D1AB460133032BBAD107
:104F200063680BB90A23636063683E496069C91A04
:104F300001F096FC5D464FF0000BA368002B2ED0CD
:104F4000326860691178405C48B3302921680BD120
:104F5000080509D50BF1010BBAF1000F0AD0013396
:104F60000AF1FF3AA36005E021F410612160137893
:104F70002B7001357368013B002B736003DD3368D0
:104F80000133336005E0D4F8803148463146984714
:104F900028B9A368013BA360CFE74FF0000B23685B
:104FA000D9050DD5BD4209D915F8011CD4F87C31BD
:104FB00048463246984705F1FF3A5546BD4226D04D
:104FC000226812F010021BD12A706368039E4846C3
:104FD0003946B0472268D8F8003012F0200F07D1C8
:104FE000D20705D51A1DC8F800201B68188004E0F8
:104FF0001A1DC8F800201B681860E3680133E360DD
:105000002369ED1BAB445B442361002000E00120D9
:1050100009B0BDE8F08F00BF7891000871750008F5
:10502000757600089491000870B50E461446054642
:1050300018B183690BB9FEF701F8224B9C4201D1EC
:105040006C6808E0204B9C4201D1AC6803E01F4B28
:105050009C4208BFEC68A369A360A3891A0709D51D
:1050600023693BB123692068C01A63699842F6B28C
:105070000FDB08E02846214600F03CF80028F1D07C
:105080004FF0FF3070BD28462146FDF747FF00284E
:10509000F6D1A368013BA36023685A1C22601E70EE
:1050A00063690130984204D0A389DB0707D50A2E33
:1050B00005D128462146FDF731FF0028E0D13046D2
:1050C00070BD00BFC8900008E89000080891000873
:1050D00038B5074C054600202060084611461A46A0
:1050E000FBF7FEFA431C02D1236803B12B6038BDE5
:1050F000B0050020324B70B51D6806460C4625B140
:10510000AB6913B92846FDF799FF2E4B9C4201D19C
:105110006C6808E02C4B9C4201D1AC6803E02B4B3F
:105120009C4208BFEC68A28993B2190720D4DD061F
:1051300005D4092342F040023360A2813BE05807C6
:1051400012D5616B41B104F14403994202D030465B
:10515000FEF77CF900236363A38923F02403A38172
:105160000023636023692360A38943F00803A381BC
:1051700023694BB9A38903F42073B3F5007F03D0EF
:1051800030462146FEF7E4F8A38913F0010205D06A
:105190000022A26062695242A26103E0990758BFEF
:1051A0006269A26022694AB903F0800080B230B11E
:1051B00043F04003A3814FF0FF3070BD002070BD6D
:1051C00000020020C8900008E8900008089100083C
:1051D00038B5064C0023054608462360FBF76AFAFB
:1051E000431C02D1236803B12B6038BDB0050020F9
:1051F0002DE9F74F03690C69A3428046C0F2818014
:10520000013C01F11407A20000F11405914600923F
:1052100057F824602A44019255F824200136B2FB45
:10522000F6F6B944002E3AD04FF0000E3A46284622
:10523000F34652F804CB03681FFA8CFA4FEA1C4C71
:105240000AFB06EA0CFB06FC0CEB1A4C1FFA8AFA66
:10525000CAEB0B0A4FEA1C4E1FFA8CFC1AFA83FAAF
:10526000CCEB134C0CEB2A4C1FFA8AFA4AEA0C4A94
:105270004A454FEA2C4B40F804ABDAD9009AAB58B8
:105280006BB9019A131FAB421A4602D8C8F81040F6
:1052900005E01268043B002AF8D1013CF3E74046E0
:1052A00001F0D1F800282ADB01362B46002057F800
:1052B00004CB1A681FFA8CF1411A4FEA1C4C11FA00
:1052C00082F1CCEB124202EB214289B210144F451D
:1052D00041EA024243F8042BE9D955F8242005EBB2
:1052E000840362B9043BAB421A4602D8C8F81040A6
:1052F00005E01268043B002AF8D1013CF3E7304690
:1053000000E0002003B0BDE8F08F000000000000C6
:105310002DE9F04F456A9BB08246279CCDE90423D6
:1053200045B91020FEF762F8CAF824004560856090
:105330000560C560DAF82430196861B15B684B60BC
:10534000012202FA03F38B60504600F059FEDAF8AE
:10535000243000221A600599002905DA012321F082
:1053600000422360059201E000232360059F9C4AD0
:1053700027F000431B0D1B0593421DD12699049A6B
:1053800042F20F730B6042B9964B974AC7F3130072
:1053900000280CBF1046184600E09248289F002FB6
:1053A00000F06885C37813B100F1080300E0C31C66
:1053B000289F3B6000F05EBDDDE9044500222046E9
:1053C0002946002303F016F9804658B1269F012391
:1053D0003B60289F002F00F04A85844838600138E0
:1053E00000F048BD19AB009318AB0193504622461C
:1053F0002B4601F018F9C7F30A5683465EB1C5F390
:10540000130343F07F51204641F44011A6F2FF36CA
:10541000CDF854801CE0199B189E1E446FF48263E3
:105420009E4209DB04991F3306F212409B1B21FAAE
:1054300000F09F40384304E06D48049A801B02FA54
:1054400000F002F0F9FD0127A1F1F871013E159776
:105450000022684B02F0B2FC5BA3D3E9002302F008
:1054600061FE5BA3D3E9002302F0AAFC04463046A8
:105470000D4602F0F1FD58A3D3E9002302F052FEDD
:1054800002460B462046294602F09AFC04460D4689
:1054900003F0E2F82946814600222046002303F06B
:1054A000B3F858B1484602F0D7FD02460B462046F5
:1054B000294603F09FF808B909F1FF39B9F1160F31
:1054C0000DD84D4B03EBC903D3E90001DDE90423FB
:1054D00003F0B8F830B109F1FF39002700E00127E7
:1054E000149700E01490189B9E1B013E099604D56A
:1054F000774208970027099701E000270897B9F13C
:10550000000F07DB099FCDF844904F44099700270F
:105510000E9708E0089FC9EB07070897C9F1000735
:105520000E9700271197249F092F28D8052FC4BF55
:10553000043F2497249FA7F10203CCBF0025012537
:10554000032B21D8DFE803F0060F0204012702E055
:10555000012709E000270F97259F002F1EDD0B97DD
:1055600007973B461FE000270F97259F4F440B9757
:1055700001373B460797012BB8BF012313E00125F4
:10558000002724970F9501E001270F974FF0FF3771
:105590000B97079700271223259704E001270B9705
:1055A00007973B462597DAF82440002262600421E1
:1055B00001F114029A4221D8626801326260490006
:1055C000F6E700BFAFF3008061436F63A787D23F68
:1055D000B3C8608B288AC63FFB799F501344D33FE2
:1055E0000000F07FA9920008A09200089B9100089B
:1055F000EEFBFFFF0000F83FB892000850466168DC
:1056000000F0C9FCDAF82430079F20601B680A9379
:105610000E2F00F26981002D00F066819DED047B64
:10562000B9F1000F8DED127B31DD804A09F00F03D7
:1056300002EBC30393ED007B4FEA2914E0068DEDE6
:105640000C7B0CD57A4BDDE91201D3E9082302F07B
:1056500093FE04F00F04CDE90401032700E00227C4
:10566000734D6CB1E10708D5DDE90C01D5E90023E4
:1056700002F058FDCDE90C01013764100835F0E760
:10568000DDE90401DDE90C2302F076FE1BE0C9F13F
:105690000004DCB1654B664D04F00F0203EBC2035E
:1056A000DDE91201D3E9002302F03CFD24110227B9
:1056B0004CB1E20704D5D5E90023013702F032FDF1
:1056C00064100835F4E7CDE9040100E002271499DD
:1056D000E1B1DDE90445002220462946554B02F0A0
:1056E00093FFC0B1079ADAB10B9B002B40F3F8800F
:1056F00009F1FF3110910022204629464E4B02F05D
:1057000011FD0137CDE904010B9A0CE0079BCDF8A0
:1057100040900C9308E00799CDF840900C9103E07D
:10572000079ACDF840900C92384602F095FCDDE9DE
:10573000042302F0F7FC0022404B02F041FB0C9FD7
:105740000446A1F15075CFB900223D4BDDE90401BB
:1057500002F034FB22462B4606460F4602F072FF4B
:10576000002840F04B82224605F10043304639467E
:1057700002F04AFF002840F03782B1E00C9F2B4B2B
:105780007A1E0F9F03EBC203002F5DD0D3E90023E5
:1057900000202C4902F0F0FD22462B4602F00EFBC1
:1057A000DDE90467DDF8288004460D4639463046B9
:1057B00002F052FF029002F04FFC02460B463046C8
:1057C000394602F0FBFADDF808C00CF1300308F8A6
:1057D000013B22462B4606460F4602F015FF0028E5
:1057E00040F0338332463B460020124902F0E6FA8D
:1057F00022462B4602F008FF002840F0D4800A9988
:105800000C9AC1EB080393426ADA2046294600222B
:10581000094B02F087FC002204460D46304639460B
:10582000054B02F07FFC06460F46BFE7B892000822
:10583000909300080000F03F0000244000001C404E
:10584000000014400000E03FD3E9000122462B464F
:1058500002F068FCDDF828800C9B0A9CCDE916015B
:10586000DDE9046798443946304602F0F5FE054606
:1058700002F0F2FB303502460B463046394602F064
:105880009DFA04F8015B444506460F4621D10022EB
:10589000874BDDE9160102F093FA02460B463046CB
:1058A000394602F0CFFE00287DD1DDE91623002025
:1058B0007F4902F083FA02460B463046394602F031
:1058C000A3FE68B1A046013C18F8013C302BF9D08A
:1058D000BBE20022774B02F025FC06460F46C2E7EA
:1058E0009DED127B8DED047B199B002B7CDBB9F1C8
:1058F0000E0F79DC704B259F03EBC903002FD3E912
:10590000004514DA079F002F11DC40F06F8120461C
:1059100029460022694B02F005FCDDE9042302F070
:1059200087FE079D2C46002840F062816AE1DDE990
:105930000467DDF8288022462B463046394602F0BF
:105940001BFD02F089FE049002F086FB22462B46E6
:1059500002F0E8FB02460B463046394602F02EFACA
:10596000049F07F1300608F8016B0A9FC7EB080691
:10597000079FBE4202460B4629D102F021FA224679
:105980002B4606460F4602F05DFE70B9304639469A
:1059900022462B4602F02EFE002800F05882049F7B
:1059A000FB0702D453E2DDF8409043469846013BA2
:1059B00018F8012C392A06D10A9F9F42F6D13022CD
:1059C00009F101093A701A7801321A703FE2002297
:1059D000384B02F0A7FB0022002306460F4602F0D8
:1059E00009FE0028A7D032E20F9F002F30D0249F5D
:1059F000012F0ADC159F17B103F2334302E0189B15
:105A0000C3F136030E9D089E16E0079F7D1E0E9F74
:105A1000AF4201DB7D1B06E00E9F0E95EB1B119F35
:105A20001F4411970025079F002F03DA08990023D0
:105A3000CE1B01E0089E079B089F1F440897099F03
:105A400050461F440121099700F0BAFB044602E0CA
:105A50000E9D089E0F9C6EB1099F002F0ADD3B46EC
:105A6000089FB342A8BF3346FF1A0897099FFF1A41
:105A7000F61A09970E9F002F28DD0F9F07B3002D00
:105A800010DD21462A46504600F03CFC04465A46AA
:105A90002146504600F09DFB59460746504600F00F
:105AA000AFFABB460E9F7A1B10D0504659460AE00B
:105AB0000000E03F00002440B892000800001440BD
:105AC0000E9A5046594600F01DFC8346504601216F
:105AD00000F076FB119F002F054605DD2946504654
