:020000040800F2
:1000000000800120850D0008D90D0008D90D0008D9
:10001000D90D0008D90D0008D90D00080000000016
:10002000000000000000000000000000D90D0008E2
:10003000D90D000800000000D90D0008D90D0008F6
:10004000D90D0008D90D0008D90D0008D90D0008F8
:10005000D90D0008D90D0008D90D0008D90D0008E8
:10006000D90D0008D90D0008D90D0008D90D0008D8
:10007000D90D0008D90D0008D90D0008D90D0008C8
:10008000D90D0008D90D0008D90D000800000000A6
:10009000000000000000000000000000D90D000872
:1000A000D90D0008D90D0008D90D0008D90D000898
:1000B000D90D0008D90D0008D90D0008D90D000888
:1000C000D90D0008D90D0008D90D0008D90D000878
:1000D000D90D0008D90D0008D90D00080000000056
:1000E000D90D0008D90D0008D90D00080000000046
:1000F000000000000000000000000000D90D000812
:1001000000000000D90D0008D90D0008D90D000825
:1001100000000000000000000000000000000000DF
:10012000D90D0008D90D0008D90D0008D90D000817
:10013000D90D0008000000000000000000000000D1
:10014000000000000000000000000000D90D0008C1
:10015000D90D0008D90D0008D90D0008D90D0008E7
:10016000D90D0008D90D00080000000000000000B3
:10017000000000000000000000000000000000007F
:1001800000000000D90D0008000000000000000081
:10019000D90D000810B5054C237833B9044B13B1C1
:1001A0000448AFF300800123237010BD88030020B2
:1001B00000000000D0E5010808B5064B1BB1064859
:1001C0000649AFF300800648036813B1054B03B13D
:1001D000984708BD00000000D0E501088C0300200E
:1001E0008403002000000000154B002B08BF134BB8
:1001F0009D46A3F5803A00218B460F461348144ACA
:10020000121A13F013F80F4B002B00D098470E4B27
:10021000002B00D098470020002104000D000D485D
:10022000002802D00C48AFF3008012F035FE200009
:10023000290000F073FD12F099F900BF00000800DA
:100240000080012000000000000000008803002062
:10025000541F00200000000000000000014B03605C
:10026000704700BFA8B6010810B5034B03600446F1
:1002700003F087F9204610BDA8B6010810B5074B5A
:10028000036003F118024C33044642658365543021
:1002900002F04EFD024B2360204610BD20BD010838
:1002A000A8B60108A0F15800FFF7E8BFA0F154007C
:1002B000FFF7E4BF10B50446FFF7E0FF204603F068
:1002C00060F9204610BDA0F15800F3E7A0F15400FA
:1002D000F0E700000148024902F070BD0804002068
:1002E000D0B601080148024902F068BD08040020A8
:1002F000FDB601080148024902F060BD0804002073
:1003000026B7010808B5054800F0B8FA04490246C6
:10031000BDE80840034802F051BD00BF280400209A
:100320004FB701080804002008B50448044902F04A
:1003300045FDBDE80840FFF7E5BF00BF0804002009
:100340005FB7010808B505480549064A02F036FDC1
:100350000548BDE8084013F0C1B800BF08040020FC
:100360008CB7010898010020CEB6010808B50448F2
:10037000044902F023FDBDE80840FFF7E3BF00BFDA
:10038000080400208FB7010810B50B4C0B482368F8
:1003900040F6CA0293420ADC094902F00FFD2168C7
:1003A000084832312160BDE8104002F029BA064900
:1003B000BDE8104002F002BDAC010020080400209E
:1003C000B9B701083C050020DAB7010808B50448B0
:1003D000044902F0F3FCBDE80840FFF7D5BF00BFB9
:1003E00008040020FBB7010810B50B4C0B4823682C
:1003F00040F2ED2293420ADD094902F0DFFC216858
:10040000084832392160BDE8104002F0F9B90649C8
:10041000BDE8104002F0D2BCAC010020080400206E
:1004200034B801083C050020DAB7010808B50448D3
:10043000044902F0C3FCBDE80840FFF7D5BF00BF88
:100440000804002055B8010810B50948094902F010
:10045000B5FC4FF42F742146074802F0D1F90A2069
:1004600002F090FD0A3440F606139C42F3D110BD11
:10047000080400208EB801083C05002008B5044897
:10048000044902F09BFCBDE80840FFF7DDBF00BF58
:1004900008040020BAB8010810B50948094902F05B
:1004A0008DFC40F6FC042146074802F0A9F90A2019
:1004B00002F068FD0A3C40F2B2239C42F3D110BD29
:1004C00008040020F3B801083C05002008B50448E2
:1004D000044902F073FCBDE80840FFF7DDBF00BF30
:1004E000080400201FB9010808B50649064802F0B3
:1004F00065FC064B064840F2DC511960BDE8084037
:1005000002F07EB958B9010808040020AC010020AF
:100510003C05002008B50448044902F04FFCBDE842
:100520000840FFF7E1BF00BF0804002075B90108CB
:1005300013B52E4C2E480023009311211023224680
:1005400002F0C6FA2B4B18602378312B04D102B08D
:10055000BDE81040FFF70ABF6378312B04D102B029
:10056000BDE81040FFF7D6BFA378312B04D102B00D
:10057000BDE81040FFF7D8BEE378312B04D102B0BC
:10058000BDE81040FFF7A6BE2379312B04D102B09D
:10059000BDE81040FFF71ABF6379312B04D102B0D8
:1005A000BDE81040FFF792BFA379312B04D102B010
:1005B000BDE81040FFF762BFE379312B04D102B0F0
:1005C000BDE81040FFF732BF237A312B04D102B0CF
:1005D000BDE81040FFF786BE637A312B04D102B02C
:1005E000BDE81040FFF786BE02B010BD98010020A4
:1005F000500500202404002008B5FFF799FF3220A1
:1006000002F0C0FCF9E7000073B51F4C1F4D204EEF
:10061000204602F0F5FF20461E4C1F492A4602F0F4
:10062000ABFF002320460221032202F0EDFA2A4606
:1006300020461A4902F0A0FF00244FF4FA738DE817
:10064000180030464FF0FF330121042200F096F8E5
:100650002A4630461249134D02F08EFF1A2213210A
:10066000114802F015FA2146104802F01DF8214603
:100670002846102212F0DAFD2846202102B0BDE8FB
:10068000704002F0E1BB00BF200400209401002074
:1006900028040020B4030020113700087D02000860
:1006A000B1060008A4030020500500203C050020EE
:1006B00010B50446AC3002F025FA04F1580002F0FF
:1006C00021FA201D02F01EFA204610BDD0F810318C
:1006D0000133C0F81031704708B54A680B6812F052
:1006E000010F4FEA620218BF8158104418BFCB585F
:1006F000984708BD38B50446043002F061FA054653
:1007000004F1580002F05CFA237840EA4500C4F88E
:100710000801C3B9D4F80431032B01D158BB02E05E
:100720002BB9032827D1D4F80C31013321E0022B57
:1007300001D1012802E0012B1DD102281BD1D4F8E0
:100740000C31013B15E0012B15D1D4F8043180EABE
:100750000302032A0FD098420DD003F00102C0F328
:100760004001914214BF01234FF0FF33D4F80C2114
:10077000D31AC4F80C31C4F8040138BD2DE9F04790
:10078000044600F10408154604F15807404699460E
:100790009DF8246002F0F2F92946384602F0EEF99D
:1007A000494604F1AC0002F0E9F90025089BC4F8C1
:1007B0000031C4F80C514046C4F81051267002F0C4
:1007C000FFF98046384602F0FBF9294FA46240EA5F
:1007D00048000121DFF8A080C4F8080104F1180ADC
:1007E0000A46C4F80401E76250462563C4F83C8019
:1007F00001F058FD24646764A564C4F85480504631
:100800000221012201F04EFD012E1AD104F16C0AE1
:10081000504631463246E467C4F88070C4F88450CC
:10082000C4F8908001F03EFDC4F89440C4F898707C
:10083000C4F89C50C4F8A88050460221324601F00A
:1008400031FDB9F1FF3F0FD00A4BC4F8D43001217C
:100850000023C4F8D040C4F8D830C4F8E48004F1D0
:10086000C0000A4601F01EFD2046BDE8F08700BF2B
:10087000F5060008CD060008D9060008D0F80C01DE
:100880007047000000B585B072B60521684602F0D9
:10089000DBFA10E0039B019A1A60962002F072FBCB
:1008A0009DF90030013310D0019A039B12041A60A5
:1008B000962002F067FB9DF900300133EAD106482B
:1008C0000649342202F090FAE4E70348034934224F
:1008D00002F08AFAE8E700BFA4B90108BCB9010830
:1008E0000F4A30B493689468B4F1006F1A4604D08C
:1008F000103030BC42F8201070470A4A03F5CA7520
:1009000053F8044B42F8044FAB42F9D14FF0005278
:10091000034B10309A6030BC42F82010704700BF83
:1009200000ED00E0FCFFFF1F70B5114C2368DA6892
:10093000910715D4DA68520709D56FF004020D4EFD
:100940001A615D6A3368EB1AB3F57A7F00D270BD25
:1009500000F060FA2368356005F57A759D6370BD17
:100960006FF002021A6102F0FBFA2368E2E700BFAF
:100970007C1E00205C050020244B30B51A6C244CF2
:1009800042F008021A641A6C83B002F00802019265
:10099000019A1A6A42F008021A621A6A22F00802E0
:1009A0001A6201F043FA1B4A1B4B12681B49216073
:1009B000A3FB0212920C0025013A4FF0FF332046B0
:1009C0006260E3602561A560656101F03FF8322057
:1009D0001349FFF785FF134B4FF480225A602946D5
:1009E000204600F0A1FF2046042100F09DFF23686F
:1009F0000D495A6A0A6002F57A729A63DA682846E3
:100A000042F00402DA6003B030BD00BF003802409B
:100A10007C1E0020D801002083DE1B43000C004018
:100A20002909000800E100E05C05002008B501F09C
:100A3000FDF9BDE8084000F0D3B900BF036870B508
:100A40001B690021012204469847431C05460ED02D
:100A5000236820461B690021022298472368064626
:100A600029461B69204600229847304670BD70BD5C
:100A7000084B094A026010B403F58071002453F852
:100A8000042B824208BF43F8044C8B42F7D15DF837
:100A9000044B70476005002050BA01080A4B0B4A0E
:100AA00010B503F5807104460260002053F8042B52
:100AB000944208BF43F8040C8B42F7D1204602F061
:100AC00060FD204610BD00BF6005002050BA01083F
:100AD00002480221032201F0CDBE00BFF81E002013
:100AE000F0B50E4685B03549054612F034FF20B901
:100AF000334B1B6863B105B0F0BD2846314912F095
:100B00002AFF78B92E4B1B6843B1012005B0F0BD18
:100B10000190FFF7DDFF019805B0F0BDFFF7D8FFAA
:100B20000120E8E72846284912F015FF10B3274BAB
:100B3000002402E00134402C21D053F8040F002897
:100B4000F8D12B783A2B32D0294602A801F048FF81
:100B500002A801F097FF90B102A801F07BFF88B1D5
:100B600002A801F081FF03464BB1194AE01C42F88C
:100B70002430C0E7124B1B68ABB10220BBE74FF03B
:100B8000FF30B8E702A801F059FF05460028F6D06B
:100B9000036802A89F6801F04FFF324601462846CD
:100BA000B8470346E0E7FFF793FF0220A3E7284694
:100BB000084902AA12F060FE029BD5E72CBA010890
:100BC000B80800203CBA010834BA01085C050020CE
:100BD0006005002078BA0108022808B50BDDC21EA6
:100BE000074B53F82200002143F8221028B1036874
:100BF0005B68984708BD002008BD4FF0FF3008BD76
:100C000060050020022870B50C4616460FDC0E4B1E
:100C10001B680BB9FFF75CFFA51936B114F8011B6F
:100C20000A4801F0D1FEAC42F8D1304670BD03381D
:100C3000074B53F8200018B103681B68984770BD34
:100C40004FF0FF3070BD00BFB8080020F81E002034
:100C500060050020022810B50C4609DC0D4B1B680E
:100C60008BB10D4801F0A4FE01232070184610BD81
:100C700003380A4B53F8200040B103689B6898473B
:100C80000346184610BDFFF723FFEAE74FF0FF3396
:100C9000ECE700BFB8080020F81E00206005002027
:100CA000022808B508DD0338064B53F8200028B1A8
:100CB0000368DB68984708BD012008BD4FF0FF308E
:100CC00008BD00BF60050020022808B508DD033814
:100CD000064B53F8200028B103681B69984708BDEC
:100CE000002008BD4FF0FF3008BD00BF60050020A8
:100CF000022808B504D84FF400534B60002008BD0B
:100D000011F02EFC092303604FF0FF3008BD00BF37
:100D100008B5012011F02AFC704700BF08B5FFF7A5
:100D200085FEFFF7F9FFBDE80840FFF765BC00BF8F
:100D3000074A13681844EFF30881884202D2106012
:100D400018467047034B0C221A604FF0FF30704773
:100D5000D4010020501F0020074C08B52368054629
:100D6000986811F01FFD2368D86811F01BFD05B9C4
:100D7000FEE7FFF787FDFBE7C0020020002112F02D
:100D800083BC00BFDFF838D0002100F004B80D4B61
:100D90005B58435004310C480C4B42189A42FFF404
:100DA000F6AF0B4A00F003B8002342F8043B094BAE
:100DB0009A42FFF4F9AF01F017F9FFF715FA7047FF
:100DC00000800120DCE50108940100208803002058
:100DD00088030020541F0020FFF7FEBF704700BFAC
:100DE00008B50B4B1A6842F400721A601A6842F494
:100DF00080621A601A6842F480721A60032000F060
:100E000017F80F20FFF7B8FDFFF7E8FF002008BD37
:100E1000003C0240024B1A6801321A60704700BF62
:100E200060060020014B1868704700BF6006002074
:100E3000074AD1684FF6FF030B4043F0BF6300F051
:100E4000070043F4003343EA0023D360704700BF38
:100E500000ED00E02DE9F00FD1F800C07C4E82B02B
:100E6000002303E00133102B00F09C80012404FADE
:100E700003F202EA0C049442F4D14A6822F0100909
:100E8000B9F1020F00F092805D004FF00308D0F836
:100E900000B008FA05F86FEA080802F0030A08EA49
:100EA0000B0B0AFA05FA09F1FF394BEA0A0AB9F104
:100EB000010FC0F800A040F2A280D0F80C908F681B
:100EC00008EA090807FA05F548EA0505C560D500EE
:100ED000C8D5604F7D6C45F480457D64D7F844806B
:100EE00023F0030508F48048CDF8048005F180451F
:100EF00003F003080F2705F59C354FEA880807FA29
:100F000008FA554FDDF80490D5F80890B84229EA60
:100F10000A0900F08C8007F58067B84200F08A80EB
:100F20004E4FB84200F08A804D4FB84200F08B809F
:100F30004C4FB8420CBF4FF0040A4FF0050A0AFAB2
:100F400008F848EA0908C5F80880D6F80080E543A3
:100F5000D7034CBF44EA080805EA0808C6F8008031
:100F6000D6F8048097034CBF44EA080805EA08084D
:100F7000C6F80480D6F80880D7024CBF44EA0808B7
:100F800005EA0808C6F80880D6F80C80920203F13A
:100F9000010354BF05EA080444EA0804102BF46076
:100FA0007FF464AF02B0BDE8F00F70474FEAD3089A
:100FB00000EB880803F00709D8F820704FEA890988
:100FC0000F2505FA09FB27EA0B0A0F6907FA09F949
:100FD0004AEA0905C8F820505D004FF00308D0F830
:100FE00000A008FA05F86FEA080802F0030908EA09
:100FF0000A0A09FA05F94AEA0909C0F80090D0F886
:101000000890CF6808EA090907FA05FA49EA0A09C7
:10101000C0F80890D0F804A0C2F300192AEA040A24
:1010200009FA03F94AEA0909C0F8049045E74FF0C4
:10103000000886E7012707FA08F882E74FF0020A5E
:101040000AFA08F87DE74FF0030A0AFA08F878E789
:10105000003C01400038024000000240000802400D
:10106000000C024000100240704700BFF8B5044673
:10107000002869D090F8353003F0FF02002B4ED0E5
:101080002368324D022284F835201A6822F00102CA
:101090001A6000F077FB2E4962682368A1FB0061AB
:1010A000890CAA42596024D85200B0FBF2F0C0F378
:1010B0000B020131032A19628CBF84464FF0040CE5
:1010C000206AE769E6682169A2696569C3F81CC0FE
:1010D000384331432A4318609960DA601868002267
:1010E00040F0010001211860A263104684F8351019
:1010F000F8BD4FF49677174EA56807FB01F1A6FBE4
:10110000017189090131196275B902EB4202B0FB24
:10111000F2F0C0F30B02A2B94FF0010CD0E780F857
:101120003420FFF7A1FFABE702EB820202EB820261
:10113000B0FBF2F0C0F30B02002AEDD040F4404CBB
:10114000BEE740F4004CBBE70120F8BDA0860100DB
:1011500083DE1B43D34D6210F0B50368DE0783B016
:10116000044637D5A54A916801F00C01042900F026
:10117000F380916801F00C01082900F0E980A04B90
:101180009E4D00221A70FFF74DFE41F28836074649
:1011900005E0FFF747FEC01BB04200F2C8802B6895
:1011A0009903F6D4964B22791A706368002B00F0ED
:1011B0001181FFF737FE914D074641F2883605E071
:1011C000FFF730FEC01BB04200F2B1802B689A03DB
:1011D000F6D523689F072FD5884A916811F00C0F28
:1011E00000F0AC80916801F00C01082900F0A280A9
:1011F000E368002B00F0DD80824B804D01221A60F5
:10120000FFF710FE064605E0FFF70CFE801B642882
:1012100000F28D802B68794A9807F5D51168F8207F
:1012200090FAA0F0B0FA80F02369C0B221F0F80182
:1012300083400B43136023681A0720D4580734D423
:10124000A369CBB16D4DAA6802F00C02082A7CD0CC
:10125000022B6D4B4FF000021A6000F0CB80FFF7BD
:10126000E1FD2C46054604E0FFF7DCFD401B642849
:101270005DD823689B01F7D4002003B0F0BD6369FB
:10128000002B73D0614B5D4D01221A60FFF7CAFD40
:10129000064604E0FFF7C6FD801B642847D86B6F45
:1012A0009B07F7D523685807CAD5544B584D1A6C7D
:1012B00042F080521A641B6C03F080530193019B2F
:1012C0002B6843F480732B60FFF7ACFD064604E007
:1012D000FFF7A8FD801B642829D82B68D905F7D50E
:1012E0004C4B464D00221A70FFF79CFD41F28836A8
:1012F000074604E0FFF796FDC01BB04217D82B6FDE
:101300009A07F7D4434B227A1A70A368002B00F097
:10131000C780FFF787FD394D074641F288362B6FAE
:101320009B078DD4FFF77EFDC01BB042F7D9032089
:1013300003B0F0BD526856023FF55AAF2F4A12680B
:10134000950723D5E268012A20D0012003B0F0BD23
:10135000526855027FF513AF284A126890037FF553
:1013600039AF6268002A7FF435AFEEE7274A234D94
:101370001360FFF757FD064604E0FFF753FD801B9F
:101380006428D4D86B6F9F07F7D48BE71B4AF825E6
:10139000106895FAA5F5B5FA85F522691749EDB2F9
:1013A00020F0F800AA4002430A601A077FF546AF12
:1013B00065E7144A114D1360FFF734FD064604E05B
:1013C000FFF730FD801B6428B1D82B689907F7D44C
:1013D000236831E7FFF726FD084D074641F28836BE
:1013E00004E0FFF71FFDC01BB042A0D82B689B0391
:1013F000F7D4EEE6FFF716FD064612E0003802408D
:10140000023802400000474260004742800E4742D7
:101410000070004070380240FFF704FD801B642814
:1014200085D82B689901F7D447F6C07595FAA5F5CC
:10143000B5FA85F54FF4403191FAA1F1B1FA81F195
:101440004FF0706292FAA2F2B2FA82F2A66AD4F86F
:1014500024C0D4F820E0E769E06A194B194CEDB2DA
:1014600076080CFA05F54EEA0707C9B2013E3D437E
:10147000D2B206FA01F100FA02F229431143012225
:1014800061601A60FFF7CEFC054605E0FFF7CAFC75
:10149000401B64283FF64BAF23689A01F6D5EBE674
:1014A000FFF7C0FC074D074641F288362B6F9807BF
:1014B0007FF5C6AEFFF7B6FCC01BB042F6D936E7E3
:1014C00060004742003802407C4B1A6802F00F026D
:1014D0008A422DE9F0410C46054609D2CAB21A707B
:1014E0001B6803F00F038B4258D00120BDE8F08148
:1014F00003689A0706D5724A8168906820F0F00068
:1015000001439160DF0727D56B68012B79D09A1EC4
:10151000012A6B4A126840F287809107E5D5684F2F
:10152000BA6822F003021343BB60FFF77BFC6B68D1
:10153000012B06467CD0022B00F08880032B65D05F
:1015400041F2883804E0FFF76DFC801B404565D808
:10155000BB6813F00C0FF6D1584BE2B21A701B683F
:1015600003F00F03A342C0D12B685A0706D5544A93
:10157000E968906820F4E050014391601B0707D5AB
:101580004F4B29699A6822F4604242EAC1029A608C
:101590000F20FFF7F1F90020BDE8F08103689F07F5
:1015A00006D5474A8168906820F0F00001439160B9
:1015B000DE07DAD56B68012B56D09A1E012A404A05
:1015C00012682ED9910790D53D4EB26822F00302E1
:1015D0001343B360FFF726FC6B68012B044648D029
:1015E000022B54D0032B60D041F2883704E0FFF780
:1015F00019FC001BB84211D8B36813F00C0FF6D1D8
:10160000B2E72F4A1268960389D46EE741F2883414
:10161000BB68FFF707FC801BA042F9D90320BDE897
:10162000F0819001D0D460E790013FF578AF5CE79E
:1016300041F2883804E0FFF7F5FB801B4045EDD808
:10164000BB6803F00C03042BF5D185E741F2883821
:1016500004E0FFF7E7FB801B4045DFD8BB6803F0E1
:101660000C03082BF5D177E7154A12689403ABD425
:101670003BE741F2883704E0FFF7D4FB001BB84298
:10168000CCD8B36803F00C03042BF5D16CE741F21E
:10169000883704E0FFF7C6FB001BB842BED8B3682A
:1016A00003F00C03082BF5D15EE741F28835B368EF
:1016B000FFF7B8FB001BA842F9D9AFE7003C024096
:1016C000003802401E4B9A6802F00C02042A10B443
:1016D00032D0082A03D01B485DF8044B7047586885
:1016E0005A685C6812F4800F00F03F0147F6C07240
:1016F00092FAA2F2B2FA82F247F6C07314BF12480D
:101700001048D2B22340D3400D4AB0FBF1F000FBA9
:1017100003F052684FF4403393FAA3F3B3FA83F320
:1017200002F44032DBB222FA03F301335B00B0FB78
:10173000F3F05DF8044B704703485DF8044B7047C5
:10174000003802400024F40000127A0008B5FFF7C8
:10175000B9FF094BF0229B6892FAA2F2B2FA82F228
:1017600003F0F003D2B223FA02F20449044B8A5C7C
:10177000D040186008BD00BF0038024088BA010898
:10178000D801002008B5FFF7E1FF084A4FF4E05305
:10179000926893FAA3F3B3FA83F302F4E052DBB254
:1017A00022FA03F3024AD35CD84008BD0038024055
:1017B00088BA010808B5FFF7C9FF084A4FF460432B
:1017C000926893FAA3F3B3FA83F302F46042DBB2B4
:1017D00022FA03F3024AD35CD84008BD0038024025
:1017E00088BA01080E4B0F22026010B49C680D4AA3
:1017F00004F0030444609C6804F0F00484609C6876
:1018000004F4E054C4609B685DF8044B03F4604347
:10181000DB080361136803F00F030B60704700BF20
:1018200000380240003C0240036A23F00103F0B498
:101830008F680E680362036A104D4268846923F062
:10184000020324F07304A84243EA070344EA0604AF
:1018500006D04968426084614163F0BC036270470E
:10186000CF688E694D6923F0080322F440723B4330
:10187000354323F004032A43EBE700BF0000014097
:10188000036A23F48073F0B48F680E680362036AFE
:10189000114D4268C46923F4007324F07304A84214
:1018A00043EA072344EA060406D049684260C4615B
:1018B000C163F0BC03627047CF684E698D6923F441
:1018C000006322F4405243EA072342EA061223F45B
:1018D000806342EA0512E8E700000140036A23F44E
:1018E0008053F0B48F680E680362026A0C4D43683F
:1018F000C46922F4005224F4E644A84242EA0732C2
:1019000044EA062406D049684360C4610164F0BC1F
:10191000026270474D6923F4804343EA8513F2E77E
:1019200000000140704700BF03680E4A186A10B4F7
:10193000012404FA01F120EA01001862186A9342B6
:1019400041EA0001196207D01A685DF8044B42F0C1
:10195000010200201A6070475A6C42F400425A6437
:10196000F2E700BF00000140704700BF03680E4A65
:10197000186A10B4012404FA01F120EA0100186287
:10198000186A934241EA0001196207D01A685DF8AB
:10199000044B42F0010200201A6070475A6C42F476
:1019A00000425A64F2E700BF00000140264A036883
:1019B000904230B434D0B0F1804F20D0A2F57C42B8
:1019C00090421CD002F58062904218D002F58062ED
:1019D000904214D002F59A32904214D002F58062FF
:1019E000904210D002F5806290420CD08C680A6858
:1019F00003600123C462826230BC436170474A685D
:101A000023F070031343CD688C680A6823F4407395
:101A10002B4303600123C462826230BC4361704780
:101A20004C68CA6823F070031C4324F440742243BA
:101A300002608B68C3620B6883620B6903630123D6
:101A4000436130BC704700BF0000014010B5044640
:101A5000B0B190F8393003F0FF0263B121460223A0
:101A600051F8040B84F83930FFF7A0FF012384F804
:101A70003930002010BD80F83820FFF753FFEDE724
:101A8000012010BD10B50446B0B190F8393003F014
:101A9000FF0263B12146022351F8040B84F8393068
:101AA000FFF784FF012384F83930002010BD80F84F
:101AB0003820FFF759FFEDE7012010BD036A23F03E
:101AC0001003F0B48F680E680362036A114D426818
:101AD000846923F0200324F4E644A84243EA071370
:101AE00044EA062406D04968426084618163F0BC00
:101AF00003627047CF684E698D6923F0800322F43A
:101B0000406243EA071342EA860223F0400342EAB6
:101B10008502E8E70000014038B590F83830012B25
:101B200004460D4628D00121022380F8381080F8A1
:101B300039300C2A19D8DFE802F0071818183418C1
:101B4000181847181818210029460068FFF76CFE7E
:101B500023682A69996941F008019961996921F01E
:101B60000401996199690A439A610123002084F86C
:101B7000393084F8380038BD022038BD2946006865
:101B8000FFF7ACFE23682969DA6942F40062DA6182
:101B9000DA6922F48062DA61DA6942EA0122DA6102
:101BA000E3E729460068FFF789FF236829699A69F6
:101BB00042F400629A619A6922F480629A619A6999
:101BC00042EA01229A61D0E729460068FFF758FEF1
:101BD00023682A69D96941F00801D961D96921F0DE
:101BE0000401D961D9690A43DA61BEE703680420B8
:101BF0001A6A00FA01F122EA01021A621A6A114312
:101C000019625A6C42F400425A641A6842F00102A6
:101C10001A600020704700BF2DE9F0410568C168D7
:101C20002B69C269D0F810E08768466923F44053F5
:101C30001943044680692961EB684EEA070123F4E1
:101C40001643314323F00C0311430B43EB606B69E4
:101C500023F440730343B2F5004F6B61594B3CD002
:101C60009D4200F08C8003F580639D4200F08780E8
:101C7000FFF788FD6368544E00EB80009B0000EB8B
:101C80008000B0FBF3F7FFF77DFD636800EB800099
:101C90009B0000EB8000B0FBF3F8FFF773FD636877
:101CA00000EB800000EB80009B00B0FBF3F3A6FB91
:101CB0000727A6FB03237F095B0964203F0100FB84
:101CC00013884FEA081808F13208A6FB0836C6F355
:101CD00043163743AF60BDE8F0819D422DD003F538
:101CE00080639D4229D0FFF74DFD6368364E00EBBF
:101CF00080005B0000EB8000B0FBF3F7FFF742FDD4
:101D0000636800EB80005B0000EB8000B0FBF3F841
:101D1000FFF738FDA6FB072763687F0900EB80000B
:101D20003F0100EB80005B00B0FBF3F3A6FB032355
:101D30005B09642202FB1388C3E7FFF73BFD63687E
:101D4000214E00EB80005B0000EB8000B0FBF3F75E
:101D5000FFF730FD636800EB80005B0000EB800064
:101D6000B0FBF3F8FFF726FDA6FB072763687F09A2
:101D700000EB80003F0100EB80005B00D4E7FFF741
:101D800019FD6368104E00EB80009B0000EB8000A3
:101D9000B0FBF3F7FFF70EFD636800EB80009B00DC
:101DA00000EB8000B0FBF3F8FFF704FDA6FB07276C
:101DB00063687F0900EB80003F0100EB80009B001F
:101DC000B2E700BF001001401F85EB51704700BF14
:101DD00010B5044640B390F8393003F0FF02F3B178
:101DE0002368022284F83920DA6822F40052DA608B
:101DF0002046FFF711FF23681A6922F490421A6106
:101E00005A6922F02A025A61D868002240F4005030
:101E10000121D860E263104684F8391010BD80F8C3
:101E20003820FFF7D3FFDBE7012010BD164B9A687F
:101E300002F00C02042A24D0082A0AD0134A124BBA
:101E400013489968134BC1F30311415CCA401A60EF
:101E50007047586859685B6842024CBF0E4A0B4A8B
:101E600001F03F01C3F38813B2FBF1F202FB03F26E
:101E7000054B5B68C3F3014301335B00B2FBF3F234
:101E8000DDE7054ADBE700BF003802400024F4002C
:101E900098BA0108D801002000127A00224A234B88
:101EA000116C70B541F080511164126C94B002F065
:101EB00080520192019A1A6822F4404242F4004290
:101EC0001A601B6803F4404302930123029A0893AB
:101ED00000B1052309934FF4A871072304220224BB
:101EE0004FF48006082508A813930E940F961095BA
:101EF00011911292FFF730F9034610B1002014B08F
:101F000070BD4FF4805221460F2503A80494059319
:101F1000079303950692FFF7D7FAD0F1010038BF77
:101F2000002014B070BD00BF0038024000700040B7
:101F3000234A244B116CF0B541F080511164126CAE
:101F400095B002F080520192019A1A6822F4404240
:101F500042F400421A601B6803F4404302934FF0BE
:101F6000030E1023002404210722012702254FF429
:101F7000A87608A80C931093DDF808C0CDF820E0EF
:101F80000B9709940F940E95119612911392FFF7E7
:101F9000E3F8034610B1204615B0F0BD4FF480526F
:101FA00029460F2403A804950593079303940692EA
:101FB000FFF78AFAD0F1010038BF002015B0F0BD5C
:101FC000003802400070004008B50120FFF766FFAE
:101FD00000B108BDFFF762FF0028FAD1FFF7A8FFA4
:101FE0000028F6D1FEE700BF174B1848D3F8882029
:101FF00070B542F47002164CC3F888202268154E62
:10200000154D002142F001022260A160226822F0F9
:10201000847222F480322260666026684FF000628B
:1020200026F480262660E1609A600560FEF7D8FEFF
:10203000FFF7CAFF236A43F008032362236A23F0F1
:102040000803236270BD00BF00ED00E0D80100204E
:1020500000380240103000240024F400194B2DE910
:10206000F0474FF04C080F4608FB003839B3DFF853
:102070005890DFF858A0454600240126D8F80030D3
:1020800006FA04F21A4215D06B6BD9F81420E969EC
:1020900006FA03F313420DD0C9F814306A684AB146
:1020A00009690B4210464FF00101DAF8003008BF11
:1020B000022198470134BC4205F10405DED1BDE898
:1020C000F08700BF64060020003C01407808002033
:1020D00000200121FFF7C2BF01200146FFF7BEBF6C
:1020E00002200121FFF7BABF03200121FFF7B6BF8D
:1020F00004200121FFF7B2BF05200146FFF7AEBF64
:1021000006200146FFF7AABF2DE9F04F85B09B4698
:102110004B1C0C460546029200F0888001F00F0629
:10212000731EC1F303100E2B47D8DFE803F04E57A0
:10213000616B0808080808757575757575003C4A67
:102140004FF400074FF0000A4FF005094FF0170851
:10215000019200F0E7F807210390204600F058F9BB
:10216000019A40461146FEF7BBFB3249324A41F81C
:102170002A704C2101FB09F1304F52F8262057F804
:1021800001C02F4B85F800800120904007EB01082B
:102190004CEA000C0020C5F804902C73A86008EBF2
:1021A000820247F801C002991960039BD361C2F80B
:1021B00004B0566305B0BDE8F08F4FF0000AD14679
:1021C000204A40274FF00608C2E71F4A80274FF0F9
:1021D000000A4FF001094FF00708B9E71B4A4FF416
:1021E00080774FF0000A4FF002094FF00808AFE780
:1021F000174A4FF400774FF0000A4FF003094FF0F1
:102200000908A5E7134A4FF480674FF0000A4FF022
:1022100004094FF00A089BE70F4A4FF480774FF00C
:10222000010A4FF006094FF0280891E70846C1E778
:10223000F920000800E100E0A8BA010864060020C7
:1022400078080020D1200008D9200008E1200008EB
:10225000E9200008F120000801210008F8B5054632
:10226000007B6B680D490E4E00F00F044C2202FB00
:1022700003F251F82430B158B41801279F4004EB01
:10228000830321EA07070024B75040B221465C606F
:10229000DC615C6300F0BCF8AC60F8BDA8BA010872
:1022A0006406002072B1012920D0022919D1836867
:1022B00023F00203012B2BD08160072190F90C0041
:1022C00000F0A6B801291BD002290AD1836823F0A7
:1022D0000203012B23D082600C2190F90C0000F046
:1022E00097B80C2190F90C0000F092B88368023B7B
:1022F000012B0DD98160062190F90C0000F088B8FF
:102300008368023B012BE6D8022383600721E9E7BB
:1023100003238360082190F90C0000F079B88360F2
:102320000621DFE700B587B0072859D8DFE800F0BD
:1023300012202E3C4A5858042D4B2E481A6B42F05E
:1023400080021A631B6B03F080030593059B07B0A3
:102350005DF804FB264B28481A6B42F001021A6311
:102360001B6B03F001030093009B07B05DF804FBB7
:102370001F4B22481A6B42F002021A631B6B03F0D8
:1023800002030193019B07B05DF804FB184B1C4846
:102390001A6B42F004021A631B6B03F004030293EE
:1023A000029B07B05DF804FB114B16481A6B42F014
:1023B00008021A631B6B03F008030393039B07B027
:1023C0005DF804FB0A4B10481A6B42F010021A63C6
:1023D0001B6B03F010030493049B07B05DF804FB30
:1023E0000A4800F00DFD002007B05DF804FB00BFB7
:1023F00000380240001C024000000240000402407D
:1024000000080240000C0240001002401CBB010802
:1024100030B5431C87B005460C461CD0C5F30310ED
:10242000FFF780FF05F00F0504F00F0201210D4BAF
:1024300001FA05F553F8223001950322C4F3021581
:1024400001A9C4F3C3140293039505940492FEF703
:1024500001FD07B030BD04480449812200F0C4FCEE
:10246000DCE700BFE8BA010840BB010854BB010823
:1024700038B5431C04460D4618D0C4F30310FFF7CB
:1024800051FF04F00F04C268022D4FEA44044FF0DC
:10249000030198BFA54001FA04F422EA0404C460D1
:1024A000C26888BF00251543C56038BD024803498E
:1024B000A62200F099FCE0E740BB010854BB0108EC
:1024C00030B507EE901A274A03681360F5EEC07A1C
:1024D000F1EE10FA89B004463DD4B7EE007AF4EE7E
:1024E000477AF1EE10FAC8BFF0EE477AD4ED026AEF
:1024F000227CB8EE667A002367EE277A6020FCEE35
:10250000E77A013AC4ED037ACDED027A01900393A4
:102510000493059306930793032A10D8DFE802F08B
:102520001102151304250F4801A92A46FFF7F4FAF2
:10253000A0B9637C0B4829464BB1FFF757FB09B0A4
:1025400030BD0025EFE70C25EDE70825EBE7FFF7A9
:102550000DFA09B030BDDFED047AC7E7034800F09B
:102560004FFCE6E77C08002000000000B8BB010833
:10257000F0B58268454D03682B6087B004460E466F
:10258000002A57D007EE102AF8EE477A90ED037A2A
:10259000F8EE476AB7EE007AC6EEA77AF4EEC77A8D
:1025A000F1EE10FAC8BF17EE107A45DD196A41F254
:1025B00011120A402AB9196A40F244420A40002A1C
:1025C0003DD001A86946FFF70DF92368304A9342D0
:1025D00045D039D92F4A934207D051D92E4A934238
:1025E00003D002F58062934222D1FFF7E3F8059A07
:1025F0000090731EEB60254B002A39D1274AA2FBBD
:102600000010800C01385860002320482B61AB601B
:10261000FFF738FA10B1224800F0F2FB39462046A5
:10262000FFF74EFF2B68A6601A6842F001021A609D
:1026300007B0F0BDDFED1B7A17EE907AB6E71A68A7
:1026400022F001021A60BCE7A2F50062934206D0B4
:1026500002F58062934202D0B3F1804FE8D1FFF7D8
:1026600091F8049A0090731EEB60084B002AC5D0C5
:102670000A4A4000A2FB0010800C01385860C3E7F2
:10268000A2F580429342B0D0D2E700BF7C08002080
:10269000000C0040004001400044014083DE1B4329
:1026A000B8BB01080000000070B50D46044688B0B4
:1026B0004849284600F020FC206001306FD02846B1
:1026C000444900F033FC431C06466ED02368424A5E
:1026D000C6F3C3219342C6F3C0362174667444D056
:1026E000B3F1804F29D03D4A93424AD102F50D32D1
:1026F000116C41F002011164126C02F002020392AB
:10270000039A374A934209D1364B5A6C42F48022DD
:102710005A645B6C03F480230793079B28462D497A
:1027200000F0B6FB00232571A360E360204644F669
:102730002061FFF71DFF08B070BD2A4A116C41F0FF
:1027400001011164126C02F001020292029A264AFF
:102750009342D6D1234B5A6C42F400325A645B6CDC
:1027600003F400330693069BD8E702F59C32516CC4
:1027700041F001015164526C02F001020192019A90
:10278000E5E71A4A934216D1164B1A6C42F004023E
:102790001A641B6C03F004030493049BBEE7144803
:1027A00014492D2200F020FB89E7134811493122FA
:1027B00000F01AFB8AE7114A9342C8D1094B5A6CC0
:1027C00042F480325A645B6C03F480330593059BBA
:1027D000A4E700BF0CBF0108000001400004004056
:1027E0000048014000380240004401400008004019
:1027F000D0BB0108E8BB010850BC01080040014003
:1028000006EE901AB8EEE67AD0ED026AF8EE667A35
:10281000C7EE277A17EE901AFFF752BEF8B5134BA2
:1028200090F9197006688568C468016942691E607C
:1028300001374FF000065D609C60D9601A619E61AF
:1028400010D090F9182001320CBF04220C225A61DA
:102850000648FFF7BDFA00B9F8BD0548BDE8F840E5
:1028600000F0CEBA08225A61F2E700BFB81E00207D
:102870006CBC0108F0B5044685B008460E463C49DC
:10288000154600F039FB3B490746284600F034FB6B
:102890000146384600F01EFB411C206061D0364BDB
:1028A000984247D003F58063984236D0A3F5504351
:1028B000984225D030462E4900F0EAFA28462D49A4
:1028C00000F0E6FA721C03D030460121FFF7D0FD7C
:1028D0006B1C03D028460121FFF7CAFD00234FF4EB
:1028E0001652A260E3602361636126766576204616
:1028F000FFF794FF214A2368934228D005B0F0BD2A
:102900001F4B1A6C42F400321A641B6C03F4003340
:1029100002930123029A6360CCE7194B5A6C42F090
:1029200020025A645B6C03F020030393039B05238E
:102930006360BFE7124B5A6C42F010025A645B6C42
:1029400003F0100301930023019A6360B2E70D4B7B
:102950000D4821461C2201241C6010F043FC05B0E8
:10296000F0BD0A480A49532200F03EFA206896E773
:10297000B0C00108C4BE010800100140004400407E
:1029800000380240B8080020F81E002084BC01086E
:10299000A0BC010810B4044B44680448196040F816
:1029A00024205DF8044B7047DC080020BC080020A0
:1029B000026813689B06FCD5024B50681A60C0F38E
:1029C00008007047B81E0020026813681B06FCD57B
:1029D000024BC1F3080151601A607047B81E002015
:1029E00038B50023036043600A782F2A044601D0DB
:1029F000204638BD4A78002AFAD0481C20604A7820
:102A00002F2A14D0B2B18D1C194600E052B12560B6
:102A10002A782F2A2B4601F1010105F10105F5D194
:102A20000133236000F064FD6060204638BD194624
:102A30000346F5E71146F5E70068704710B5044610
:102A4000406828B100F072FD012801D1606810BD16
:102A5000002010BD406808B528B100F067FDD0F136
:102A6000010038BF002008BD10B50446406830B1F1
:102A700000F05CFD18B9606808B1043810BD002092
:102A800010BD00BF4068003018BF0120704700BF74
:102A900010B5064B8360002303604360044600F0DA
:102AA000B3FB034B20461C6010BD00BFA086010095
:102AB000E008002038B5054D2B688342044603D05A
:102AC000816800F0B7FA2C6038BD00BFE008002034
:102AD0002DE9F04182B01C469DF820500F46164665
:102AE000804685F00105FFF7E5FF00954046394631
:102AF0003246234600F0F2FA201A18BF012002B035
:102B0000BDE8F08110B5044A044640F8142BFFF7E5
:102B1000A5FB204610BD00BF10BD010810B5054B38
:102B2000044640F8143BFFF799FB204600F029FDCE
:102B3000204610BD10BD0108012908B503460AD082
:102B4000022907D1026D7AB1C06B10B103F14001C7
:102B5000904708BD08BD826B5AB1406A0028F8D082
:102B600003F12801904708BDC36B002BF1D09847B3
:102B700008BD436A002BFAD1EBE700BF38B50E4B16
:102B800003600446002303718360C360036103751F
:102B90008361C36180F8203043628363C36303654C
:102BA0000D462346054A1430FFF7AEFA201D29468C
:102BB00000F038F9204638BD10BD0108392B000857
:102BC00090F90430013310B5044607D0E268A368D9
:102BD00012681A420CBF0020012010BD02480349B0
:102BE0003E2200F001F9F1E7A4B90108BCB90108DF
:102BF00000F058B8A0F15400FFF7FABF00F056B843
:102C0000A0F15400FFF7FABF38B504461D4600F0A6
:102C100025F8294604F1540000F0AEF8054B03F105
:102C2000080103F12002543321606265A365204648
:102C300038BD00BF18BD010801EB410108B5CB004C
:102C40002033C1184A6922B1C05808B104319047F5
:102C500008BDC358002BFBD0984708BD38B50446C3
:102C60000E4B0360251D00234FF416502065636052
:102C70002846A360E36023616361A36123776377E0
:102C800023626363A363E364FFF7F4FD28462246EF
:102C90000349FFF77FFE204638BD00BFA8B60108F4
:102CA000392C00080430FFF783BE00BF10B5043094
:102CB0000C46FFF789FE204610BD00BF002070477C
:102CC000F8B58E18B1420F4605460FD00C4601E00C
:102CD000A64209D02B6814F8011B5B6A2846984766
:102CE0000130F5D1E01BF8BDF01BF8BD0020F8BDA8
:102CF000F8B58E18B1420F4605460FD00C4603E0DA
:102D000004F8010BA64207D02B6828469B6A984717
:102D1000431CF5D1E01BF8BDF01BF8BD0020F8BD49
:102D20000020704700207047002070470020704747
:102D300010B5074B03F108023C33044680E80C0051
:102D400040690FF079FC204600F048FB204610BD9A
:102D500078BD0108A0F10400FFF7EABF10B50446F2
:102D6000FFF7E6FF204600F00CFC204610BD00BF38
:102D7000A0F10400FFF7F2BF10B584B0044600F0E4
:102D80005DFB0B4B0B4903F1080000223C3384E848
:102D90000900626101A8224610F04AFD064901A817
:102DA0000FF04AFE6061FDF7E9FF204604B010BD58
:102DB00078BD010878BA0108C0BD01080EB430B56D
:102DC00082B005AB044653F8045B406901930FF0F1
:102DD000E9FC29466069019A12F0E0FE02B0BDE804
:102DE000304003B0704700BF10B40C461346014694
:102DF000224602485DF8044B00F002B8C4BD010849
:102E00000FB400B5064B83B004AA1B6852F8041B2C
:102E1000D868019212F0C2FE01200FF0A7FB00BF9C
:102E2000C002002038B50D46044600F0C9F801354F
:102E300009D02046002100F0DDF820460021BDE841
:102E4000384000F0D3B838BD38B50D46044600F020
:102E5000B7F8013511D094F9003001330ED0626813
:102E6000E368120420461A60012100F0C3F82046EE
:102E70000021BDE8384000F0B9B838BD0248034928
:102E80003422FFF7B1FFEAE7A4B90108BCB9010891
:102E9000431C10B5044619D091F90030581C04D1D8
:102EA0000FE011F90C3F5A1C0BD09C42F9D120467F
:102EB0008968FFF7ADFA20460021BDE81040FFF712
:102EC000D7BA0348BDE81040FFF79ABF10BD00BF56
:102ED000F8BD0108884208B50AD0431C07D001316B
:102EE00006D00448FFF78CFF4FF0FF3008BD0846BE
:102EF00008BD00BF0CBE010808B5431C0DD091F9F8
:102F000000305A1C04D109E011F90C3F5A1C05D0BD
:102F10009842F9D14868411C00D008BD0248FFF72B
:102F20006FFF4FF0FF30F8E720BE010808B5431CE3
:102F30000DD091F900305A1C04D109E011F90C3F71
:102F40005A1C05D09842F9D18868411C00D008BDB0
:102F50000248FFF755FF4FF0FF30F8E740BE010889
:102F6000014800F0E5BA00BF74BE010838B5054657
:102F700000F00AFA044600F007FA001BA842FAD350
:102F800038BD00BF4FF47A7303FB00F0FFF7EEBFCC
:102F9000431C10B5044608D020460021FFF738FA3C
:102FA00004F00F040120A04010BD0348034927226C
:102FB000FFF71AFFF0E700BF40BB0108F8C00108A7
:102FC00070B505464B1C0C4629700DD0C1F303109B
:102FD000FFF7A8F906462046FFF7DAFF06F11003CF
:102FE00018366860AB60EE6070BD00BF90F90000FD
:102FF000FFF73EBA38B5054690F90000431C0C4671
:103000000BD0012C04D00021BDE83840FFF700BAF6
:103010002146BDE83840FFF7FBB904480449462281
:10302000FFF7E2FE95F90000EBE700BFA4B9010845
:10303000F8C00108F8B50E46074621B3154B994272
:1030400021DC154D3C682C6048F2010301E0013B96
:1030500002D0A2699207FAD40F4C6E6000234FF49D
:10306000804220466B61AB60EB612B62EB60AB6131
:103070002A61FDF7FBFF7B6823B123681A6842F4DD
:1030800080621A60F8BD054805496722FFF7ACFE6B
:10309000D7E700BF801A0600141F002060C1010896
:1030A0007CC101080068036871B123F48063036088
:1030B000094A41F20103116801E0013B08D04A6965
:1030C0005206FAD50069704743F480630360EFE766
:1030D0004FF0FF30704700BF141F00202DE9F04370
:1030E00007466FF480603C68284D606120682C6062
:1030F00040F4807083B090469946206041F201050B
:1031000001E0013D02D06369D807FAD54FF480553C
:1031100001E0013D34D06669F207FAD541F00101C2
:10312000C9B221614FF4805101E0013928D06369AF
:103130009B07FAD563690193A369019309F1FF35F0
:10314000002D019B4FF0000408DD38460021FFF7F9
:10315000A9FF08F804000134AC42F6D10A9B4BB930
:1031600038460121FFF79EFF08F80400484603B0E7
:10317000BDE8F0833B681A6842F400721A60EFE71A
:103180004FF0FF3003B0BDE8F08300BF141F0020F4
:10319000184B196848F2010301E0013B02D08A692B
:1031A0009207FAD40368144A934219D0134A9342FF
:1031B0000CD0134A934208D1124B1A6A42F400020F
:1031C0001A621A6A22F400021A6270470D4B1A6AD8
:1031D00042F480021A621A6A22F480021A6270476C
:1031E000084B1A6A42F400121A621A6A22F4001298
:1031F0001A627047141F002000540040005800401D
:10320000005C004000380240F0B5044685B0084636
:103210000E4648491546FFF76FFE474907462846C0
:10322000FFF76AFE01463846FFF754FE431C206054
:1032300079D00346414A934236D0414A934211D055
:10324000404A934203D1404B1A68002A4ED0204690
:10325000FFF79EFF20463D49FFF7ECFE0023636029
:1032600005B0F0BD3A4B1A68002AF0D1394A012165
:103270001960136C2F4943F480031364136C03F437
:10328000800302933046029BFFF702FE28462A493C
:10329000FFF7FEFD30460321FFF7EAF82846032139
:1032A000FFF7E6F82368CBE72B4B1A68002ACED14C
:1032B000284A01211960136C1E4943F4001313645A
:1032C000136C03F4001301933046019BFFF7E0FDFC
:1032D00028461949FFF7DCFD30460321FFF7C8F8FF
:1032E00028460321FFF7C4F82368A6E7194A0121FD
:1032F0001960136C0F4943F400031364136C03F457
:10330000000303933046039BFFF7C2FD28460A499A
:10331000FFF7BEFD30460321FFF7AAF82846032138
:10332000FFF7A6F893E70D480D493A22FFF75CFD39
:1033300023687FE77CBE010874C001080054004088
:1033400000580040005C0040F0080020A08601000A
:10335000F408002000380240EC080020E4C1010815
:103360007CC10108054B186800B17047044A054943
:10337000116001221A60FDF7FFBA00BF3409002076
:10338000F8080020000C004008B5044B1B680BB97E
:10339000FFF7E8FF024B586A08BD00BF3409002060
:1033A000000C0040034B1B685863DA6842F00202CD
:1033B000DA607047F8080020034B1B68DA6822F0D7
:1033C0000202DA60704700BFF8080020024B1B6859
:1033D0006FF002021A617047F808002010B5074B21
:1033E000044603F108023433226040F8043F00F041
:1033F00039F82046FDF73CFB204610BD00C201080D
:10340000A0F10400FFF7EABF094B10B5044603F131
:1034100008023433226040F8043F00F023F82046CD
:10342000FDF726FB204600F0ACF8204610BD00BF9B
:1034300000C20108A0F10400FFF7E6BF10B5074B7A
:103440000446002240F8043B00F042F8044B03F12C
:103450000802343384E80C00204610BD50BA01083D
:1034600000C201088368094A026053B1084B1A6818
:10347000824201D106E01A4653688342FBD1436879
:103480005360704742681A60704700BF48C2010825
:103490003809002083680C4A10B50446026053B115
:1034A0000A4B1A68904201D10AE01A4653689C42BE
:1034B000FBD163685360204600F063F8204610BDDE
:1034C00042681A60F7E700BF48C2010838090020C7
:1034D000054B0273002281600360426019B1034B07
:1034E0001A6842601860704748C201083809002015
:1034F0000D4B70B51C6806460D4614B912E06468A1
:1035000084B1A36831462A461846002BF7D010F044
:10351000CDFE0028F3D1A06810F0C0FEA842EED185
:10352000204670BD002070BD38090020007B704728
:1035300038B50368DB680446984763685B6883B105
:1035400022681D6853689847281A002862680CDCB6
:1035500050681168836853600029F0D0406888473C
:10356000EBE723689B68984738BD236852681B695E
:103570001068984738BD00BF0346084619460EF04C
:10358000DFBF08B10FF0BCBD7047000010B50028C8
:1035900014BF0446012420460FF0AAFD30B9044BA5
:1035A0001B680BB90EF078FF9847F4E710BD00BF19
:1035B000300A002010B5034B0360044606F0B6FB4A
:1035C000204610BD20CB010810B5034B0360044614
:1035D00006F0B8FB204610BD60CB010810B50446CC
:1035E000FFF7E8FF2046FFF7CCFF204610BD10B5DF
:1035F0000446FFF7E9FF2046FFF7C3FF204610BD52
:103600002DE9F843314D2B685A1C81462A60002B66
:1036100058D12F4C2F4B3048304FDFF8F080304ED0
:1036200001221A702368996805F0FEFF23682D486F
:10363000596805F0F9FF23682B48D96805F0F4FFB5
:103640003846254906F09CFA2649404600F0D2F853
:103650003046254906F094FA2349244806F090FAAA
:103660003369776743F4005333612368C8F878708F
:1036700099681F481F4E204F05F0E6FF23681F483A
:10368000596805F0E1FF23681D48D9681D4C05F015
:10369000DBFF1749304606F09DFA1849384600F01E
:1036A000BFF81749204606F095FA1748144906F066
:1036B00091FA2369BE6743F4005323612B68666760
:1036C00001332B604846BDE8F88300BFAC0F0020F3
:1036D000C002002058020020840F0020FC0C0020B3
:1036E0006C0A0020180E0020D40C0020D00E002000
:1036F000AC0C0020F80A0020880B0020440A0020AF
:103700005C0F0020400E00201C0C0020880D0020C3
:103710000D4A1368591E022B10B50446116011D1D1
:103720000A4806F041FA0A4806F03EFA094806F04F
:103730003BFA094806F062FA084806F05FFA0848C2
:1037400006F05CFA204610BDAC0F0020FC0C0020F7
:103750006C0A0020D00E0020F80A0020400E002045
:103760001C0C002010B5064B03601433836000234B
:103770000446436008300EF07DF9204610BD00BFBE
:1037800064C20108036853F80C3C1844EAE700BF20
:1037900010B5064B03601433836000230446436076
:1037A00008300EF071F9204610BD00BF94C2010828
:1037B000036853F80C3C1844EAE700BF10B5044610
:1037C000FFF7D0FF2046FFF7DCFE204610BD036860
:1037D00053F80C3C1844F1E710B50446FFF7D8FF46
:1037E0002046FFF7CEFE204610BD036853F80C3C80
:1037F0001844F1E770B500F10805044628460E4666
:103800000EF074F9054B23601433A360002328469F
:10381000636031460EF09EF9204670BD64C2010817
:1038200070B500F10805044628460E460EF0C0F9B2
:10383000054B23601433A3600023284663603146A0
:103840000EF0EBF9204670BD94C2010808B503687C
:103850009B68984708BD8368587C70478368987C4C
:1038600070478368D86A704783681B6B0020DAB2A0
:1038700062F30700C3F3072262F30F20C3F307428A
:1038800062F317401B0E63F31F6082B002B07047F3
:1038900083685B6B0020DAB262F30700C3F3072290
:1038A00062F30F20C3F3074262F317401B0E63F36A
:1038B0001F6082B002B070478368587C704783688D
:1038C000987C70478368D86A704783681B6B0020B8
:1038D000DAB262F30700C3F3072262F30F20C3F3E7
:1038E000074262F317401B0E63F31F6082B002B001
:1038F000704783685B6B0020DAB262F30700C3F3A2
:10390000072262F30F20C3F3074262F317401B0E36
:1039100063F31F6082B002B07047836893F824009D
:103920007047836893F82500704700207047002097
:10393000704770470020914204D211F8013B03EB1D
:103940007060F8E7704713B58B6801AA9968044660
:103950000CF08EFC204602B010BD13B58B6801AA96
:10396000596904460CF084FC204602B010BD13B522
:103970008B6801AAD96904460CF07AFC204602B093
:1039800010BD13B58B6801AA596A04460CF070FC8F
:10399000204602B010BD13B58B6801AA9968044691
:1039A0000CF066FC204602B010BD13B58B6801AA6E
:1039B000596904460CF05CFC204602B010BD13B5FA
:1039C0008B6801AAD96904460CF052FC204602B06B
:1039D00010BD13B58B6801AA596A04460CF048FC67
:1039E000204602B010BD13B58B6801AA9968044641
:1039F0000CF03EFC204602B010BD13B58B6801AA46
:103A0000596904460CF034FC204602B010BD13B5D1
:103A10008B6801AAD96904460CF02AFC204602B042
:103A200010BD00000D4B10B5036090F84330044604
:103A30007BB1806808B10DF01CF8606908B10DF029
:103A400018F8E06908B10DF014F8606A08B10DF0DB
:103A500010F8204605F01AFB204610BDA0C501084D
:103A60000D4B10B5036090F8433004467BB180687D
:103A700008B10CF0FEFF606908B10CF0FAFFE069D4
:103A800008B10CF0F6FF606A08B10CF0F2FF2046B6
:103A900005F0FCFA204610BDB0C5010810B5034B77
:103AA0000360044605F0F2FA204610BD30C5010857
:103AB00010B5034B0360044605F0E8FA204610BD3C
:103AC00048C501080B4B10B5036090F864300446FC
:103AD0005BB1806808B10CF0CCFF606908B10CF0F4
:103AE000C8FFE06908B10CF0C4FF204605F0CEFA2B
:103AF000204610BDC0C5010810B5034B0360044645
:103B000005F0C4FA204610BDE0C3010810B5034B10
:103B10000360044605F0BAFA204610BD20C401082F
:103B200010B5034B0360044605F0B0FA204610BD03
:103B300050C4010810B5034B0360044605F0A6FA13
:103B4000204610BD60C5010810B5034B0360044654
:103B500005F09CFA204610BD78C5010810B5034B4E
:103B60000360044605F092FA204610BD00C5010826
:103B700010B50446FFF756FF2046FFF702FD20462A
:103B800010BD10B50446FFF76BFF2046FFF7F9FCA8
:103B9000204610BD10B50446FFF780FF2046FFF712
:103BA000F0FC204610BD10B50446FFF781FF20460B
:103BB000FFF7E7FC204610BD10B50446FFF782FF73
:103BC0002046FFF7DEFC204610BD10B50446FFF787
:103BD00093FF2046FFF7D5FC204610BD10B50446E4
:103BE000FFF794FF2046FFF7CCFC204610BD10B530
:103BF0000446FFF795FF2046FFF7C3FC204610BDA3
:103C000010B50446FFF796FF2046FFF7BAFC2046A2
:103C100010BD10B50446FFF797FF2046FFF7B1FC33
:103C2000204610BD10B50446FFF798FF2046FFF769
:103C3000A8FC204610BD000010B5054B044640F816
:103C4000083B0DF085FB204605F020FA204610BD0C
:103C5000E0C4010810B50446FFF7EEFF2046FFF769
:103C600090FC204610BD000010B5054B044640F8FE
:103C7000083B0DF06DFB204605F008FA204610BD0C
:103C800098C3010810B50446FFF7EEFF2046FFF782
:103C900078FC204610BD000038B50D4B0360056967
:103CA000044605F029FA854203D015B128460CF0E8
:103CB000E0FEA06810B103685B68984704F10C004F
:103CC0000DF046FB204605F0E1F9204638BD00BF67
:103CD00060C4010810B50446FFF7DEFF2046FFF779
:103CE00050FC204610BD2DE9FF411C46804603AB29
:103CF00002A80CF0D2FA214603A80A9A01AB0CF0F4
:103D0000CCFA029D039C55F80C7C54F80C6C2F44A3
:103D100026444046294622460DF055FC98B92846CF
:103D200010F0BCFA0544204610F0B8FABD42204419
:103D300004D1841B18BF6FF0000407E0B04204D028
:103D40000135441CE5E7044600E0012403A80CF01B
:103D500003F802A80CF000F8204604B0BDE8F0819A
:103D60002DE9F7431E46254B036014466B46074674
:103D7000884601A8114632460CF08FFA019D361B89
:103D800055F80C3C7600304605EB03090CF0E2FEDA
:103D900004462A464046214633460DF020FCB042F8
:103DA00002460FD3461C14B120460CF062FE30468A
:103DB0000CF0D0FE04462A464046214633460DF01C
:103DC0000EFC0246214638460CF06AF9284610F0EF
:103DD00065FA2844484505D0451C002138460CF0BA
:103DE000ECF9D6E714B120460CF043FE01A80BF025
:103DF000B3FF384603B0BDE8F08300BF1C0A0020C3
:103E00000A2808D82F291BD93030C0B2814217D2D6
:103E1000A1F130007047A1F13003DBB2092BF7D9D3
:103E2000A1F16103DBB2052B02D8A1F15700704765
:103E3000A1F14103DBB2052B02D8A1F13700704795
:103E40004FF0FF307047000008B4F3B50F46042070
:103E500000210FF0F5F8164905460FF07CFD80B102
:103E6000284610F01BFA461C30460CF073FE29461B
:103E7000324604460FF0B6F90D4904200FF0E0F881
:103E800000E0044608AA38460799019212F016FE8F
:103E9000054634B1042021460FF0D2F820460CF03C
:103EA000E8FD284602B0BDE8F04001B0704700BF11
:103EB000E7DB010838B5037F04460D4613B10C4417
:103EC000607F38BD0DF0EAFB236820469B692946D8
:103ED000984738BDF8B51F46037F012B05460E46AF
:103EE000144605D13846521A0FF07CF92046F8BD29
:103EF0000BB90DF0D3FB2B682846D3F81CC0314614
:103F000022463B46E047F8BD70B54418164694F883
:103F10001D313BB903681B6A9847B04218BF84F84B
:103F20001D010346184670BD10B5003218BF0122AE
:103F3000054B816000210446426003600A4605F09B
:103F40003DFC204610BD00BFA8C4010808B50368A9
:103F50009B68984708BD08B50368DB68984708BDAB
:103F600010B50B6804461B699847204610BD10B574
:103F70000B6804465B699847204610BD10B50B6876
:103F800004469B699847204610BD10B50B6804464F
:103F9000DB699847204610BD08B503681B6A98473F
:103FA00008BD036807B55B6A98470023C2B262F395
:103FB0000703C0F3072262F30F23C0F3074262F343
:103FC0001743000E60F31F63184603B05DF804FB4F
:103FD000036807B59B6A98470023C2B262F30703E0
:103FE000C0F3072262F30F23C0F3074262F31743C3
:103FF000000E60F31F63184603B05DF804FB000079
:1040000010B5003218BF0122054B81600021044623
:10401000426003600A4605F08BFB204610BD00BFDE
:1040200070C4010808B503689B68984708BD08B5C7
:104030000368DB68984708BD10B50B6804461B6928
:104040009847204610BD10B50B6804465B69984739
:10405000204610BD10B50B6804469B699847204662
:1040600010BD10B50B680446DB699847204610BDAB
:1040700008B503681B6A984708BD036807B55B6A03
:1040800098470023C2B262F30703C0F3072262F32A
:104090000F23C0F3074262F31743000E60F31F6360
:1040A000184603B05DF804FB036807B59B6A9847A0
:1040B0000023C2B262F30703C0F3072262F30F23A7
:1040C000C0F3074262F31743000E60F31F63184604
:1040D00003B05DF804FB000000310B4A026018BF1A
:1040E0000121002241608260C260027442748274C5
:1040F00042618261C261026242628262C2620263A2
:10410000426380F843207047A0C5010800310B4A84
:10411000026018BF0121002241608260C260027407
:104120004274827442618261C2610262426282624E
:10413000C2620263426380F843207047B0C5010841
:1041400010B5003218BF0122044B426004460360E0
:104150008160002105F036FC204610BDB8C301087F
:1041600008B503689B68984708BD08B50368DB6815
:10417000984708BD10B50B6804461B699847204650
:1041800010BD10B50B6804465B699847204610BD0A
:1041900010B50B6804469B699847204610BD000087
:1041A00000310A4A026018BF01210022416082608A
:1041B000C260027442618261C261026280F824209E
:1041C00080F8252080F86420704700BFC0C5010832
:1041D000003218BF0122074B10B5426003608160B6
:1041E000044604F089FF00212061204605F0F0FE1E
:1041F000204610BD60C4010883689B680B6083681B
:10420000DB684B60704783681B690B6083685B6980
:104210004B60704783689B690B608368DB694B6008
:1042200070478368DB6A0B6083681B6B4B60836835
:104230005B6B8B6083689B6BCB608368DB6B0B6114
:1042400083681B6C4B6183685B6C8B617047836810
:104250009B6C0B608368DB6C4B6083681B6D8B60B1
:1042600083685B6DCB6083689B6D0B618368DB6DDE
:104270004B6183681B6E8B61704783685B6E0B605C
:1042800083689B6E4B608368DB6E8B6083681B6FFB
:10429000CB6083685B6F0B6183689B6F4B61836846
:1042A000DB6F8B618368D3F88030CB618368D3F890
:1042B00084300B628368D3F888304B628368D3F80C
:1042C0008C308B628368D3F89030CB627047836800
:1042D000D3F894300B608368D3F898304B608368D0
:1042E000D3F89C308B608368D3F8A030CB608368B0
:1042F000D3F8A4300B618368D3F8A8304B6183688E
:10430000D3F8AC308B618368D3F8B030CB6183686D
:10431000D3F8B4300B628368D3F8B8304B6283684B
:10432000D3F8BC308B628368D3F8C030CB6270475F
:10433000003110B518BF0121044B416003600446F1
:1043400004F0CEFEA060204610BD00BFE0C401080E
:10435000003110B518BF0121044B416003600446D1
:1043600004F0BEFEA060204610BD00BF98C3010847
:1043700010B504460A4804F045FF22685168926867
:10438000904202D251F8200008B90BF0D7FB054942
:10439000054A00230CF06FFB08B90CF0C7FB10BDF9
:1043A000400A0020B4C90108D4DC010810B5044655
:1043B0000A4804F027FF226851689268904202D2AE
:1043C00051F8200008B90BF0B9FB0549054A002354
:1043D0000CF051FB08B90CF0A9FB10BD88090020B6
:1043E000B4C90108F0C701080123F7B5044680F8F5
:1043F000643008460F46FFF7D9FF0546294601A855
:10440000FFF7B8FE019B53F80C3CE36001A80BF0EA
:10441000A3FCE0680CF09EFB2946064601A8FFF7C6
:10442000A9FE00233146E26801A80BF0E7FB01A8D2
:104430000BF092FCE368A6602BB196F90030002BDC
:10444000D4BF002301232946237401A8FFF799FE56
:10445000019B53F80C3CA36101A80BF07DFCA06903
:104460000CF078FB2946064601A8FFF78AFEA269F0
:104470003146002301A80BF0C1FB01A80BF06CFC36
:104480002946666101A8FFF783FE019B53F80C3CA7
:10449000236201A80BF060FC206A0CF05BFB29464C
:1044A000064601A8FFF774FE3146226A002301A8E0
:1044B0000BF0A4FB01A80BF04FFCE6612846FFF7C8
:1044C0004FFE84F824002846FFF74FFE84F82500AD
:1044D0003846FFF74DFF0A4B196804F1260301F136
:1044E00024020546FFF7F6FC064B1968284601F141
:1044F0001A0204F14A03FFF7EDFC03B0F0BD00BF60
:10450000540200204C0200202DE9F04104460F48DF
:1045100004F078FE2368DF6857F820800546B8F17C
:10452000000F0FD16820FFF731F841460646FFF72C
:1045300037FE30462146FFF757FF206831462A46AE
:1045400004F03EFE57F82500BDE8F0818809002000
:1045500010B504460A4804F055FE22685168926876
:10456000904202D251F8200008B90BF0E7FA054951
:10457000054A00230CF07FFA08B90CF0D7FA10BDF9
:1045800080090020B4C9010840C6010810B50446DE
:104590000A4804F037FE226851689268904202D2BD
:1045A00051F8200008B90BF0C9FA0549054A002363
:1045B0000CF061FA08B90CF0B9FA10BD84090020BA
:1045C000B4C9010850C7010810B504460A4804F0F0
:1045D00019FE226851689268904202D251F8200078
:1045E00008B90BF0ABFA0549054A00230CF043FA71
:1045F00008B90CF09BFA10BD94090020B4C9010859
:10460000C4C701080123F7B5044680F843300846C3
:104610000F46FFF7D9FF0546FFF704FD60742846F3
:10462000FFF705FDA0742846FFF722FD2946E0624A
:1046300001A8FFF701FD019B53F80C3CE36001A8C2
:104640000BF08AFBE0680CF085FA2946064601A8C3
:10465000FFF7F2FC00233146E26801A80BF0CEFA26
:1046600001A80BF079FBE368A6602BB196F9003046
:10467000002BD4BF002301232946237401A8FFF790
:10468000E2FC019B53F80C3CA36101A80BF064FB16
:10469000A0690CF05FFA2946064601A8FFF7D3FC93
:1046A000A2693146002301A80BF0A8FA01A80BF07B
:1046B00053FB2946666101A8FFF7CCFC019B53F828
:1046C0000C3C236201A80BF047FB206A0CF042FA75
:1046D0002946064601A8FFF7BDFC226A31460023A1
:1046E00001A80BF08BFA01A80BF036FB2946E66116
:1046F00001A8FFF7B6FC019B53F80C3CA36201A88C
:104700000BF02AFBA06A0CF025FA2946064601A800
:10471000FFF7A7FC3146A26A002301A80BF06EFA4E
:1047200001A80BF019FB66622846FFF7A6FC206380
:104730002846FFF7B9FC60633846FFF719FE054BC2
:10474000196804F1380301F10B02FFF7C3FB03B052
:10475000F0BD00BF500200202DE9F04104460F4893
:1047600004F050FD2368DF6857F820800546B8F153
:10477000000F0FD14420FEF709FF41460646FFF720
:10478000C5FC30462146FFF73DFF206831462A46EA
:1047900004F016FD57F82500BDE8F08194090020CB
:1047A00010B504460A4804F02DFD2268516892684D
:1047B000904202D251F8200008B90BF0BFF9054928
:1047C000054A00230CF057F908B90CF0AFF910BDF9
:1047D00098090020B4C9010830C801080123F7B5C1
:1047E000044680F8433008460F46FFF7D9FF0546D8
:1047F000FFF7ACFB60742846FFF7ADFBA0742846BA
:10480000FFF7CAFB2946E06201A8FFF7A9FB019B5D
:1048100053F80C3CE36001A80BF09EFAE0680CF042
:1048200099F92946064601A8FFF79AFB002331466D
:10483000E26801A80BF0E2F901A80BF08DFAE36839
:10484000A6602BB196F90030002BD4BF00230123C2
:104850002946237401A8FFF78AFB019B53F80C3CFF
:10486000A36101A80BF078FAA0690CF073F929464E
:10487000064601A8FFF77BFBA2693146002301A889
:104880000BF0BCF901A80BF067FA2946666101A894
:10489000FFF774FB019B53F80C3C236201A80BF05B
:1048A0005BFA206A0CF056F92946064601A8FFF784
:1048B00065FB226A3146002301A80BF09FF901A88D
:1048C0000BF04AFA2946E66101A8FFF75EFB019B5F
:1048D00053F80C3CA36201A80BF03EFAA06A0CF05E
:1048E00039F92946064601A8FFF74FFB3146A26A6F
:1048F000002301A80BF082F901A80BF02DFA6662E3
:104900002846FFF74EFB20632846FFF761FB6063F4
:104910003846FFF72DFD054B196804F1380301F106
:104920000B02FFF7D7FA03B0F0BD00BF5002002022
:104930002DE9F04104460F4804F064FC2368DF6869
:1049400057F820800546B8F1000F0FD14420FEF73C
:104950001DFE41460646FFF7BFFB30462146FFF7E6
:104960003DFF206831462A4604F02AFC57F825000E
:10497000BDE8F0819809002010B504460A4804F00B
:1049800041FC226851689268904202D251F820009E
:1049900008B90BF0D3F80549054A00230CF06BF871
:1049A00008B90CF0C3F810BD7C090020B4C9010897
:1049B0007CC7010810B504460A4804F023FC2268AD
:1049C0005168926890420BD251F8200048B10649D4
:1049D000064A00230CF04FF8003018BF012010BD2C
:1049E000002010BD400A0020B4C90108D4DC010831
:1049F00010B504460A4804F005FC22685168926824
:104A000090420BD251F8200048B10649064A0023D3
:104A10000CF031F8003018BF012010BD002010BD8F
:104A200080090020B4C9010840C6010810B5044639
:104A30000A4804F0E7FB22685168926890420BD262
:104A400051F8200048B10649064A00230CF013F83B
:104A5000003018BF012010BD002010BD84090020C7
:104A6000B4C9010850C701082DE9F047089E099F05
:104A700000252C4612F804C0C6EB0709E14502EBFD
:104A8000040802DC334684460DE04FFA8CF9B9F194
:104A9000000FF7DDCCEB070703F1FF3C644534BFA3
:104AA00001340135E6E7BB4204D013F8019B0CF852
:104AB000019BF8E79B1B1844334415F1FF3517D3CE
:104AC000017098F8007000F1010C00265FFA86F979
:104AD0004F4507D000EB060913F806A089F801A09E
:104AE0000136F3E70CEB07003B44E6E7B819334423
:104AF00014F1FF340FD30170165D471C00255FFAD7
:104B000085FC6645F2D000EB050C13F805808CF8A7
:104B100001800135F3E7BDE8F0872DE9F341089EF8
:104B2000DDF824800A9F0B9C8C4696460EB1F51B3F
:104B300000E0256800972F440197194640466246D9
:104B40007346FFF791FFC8EB00073EB1226831467C
:104B5000521B0EF047FB23685D1B2F44276002B0F9
:104B6000BDE8F081F7B50A980B9C00902668099D76
:104B70008E461746304401901946284672463B46F9
:104B8000FFF772FF401B206003B0F0BD2DE9F84332
:104B9000099E1D46089BC6EB0308C36803F0B003DB
:104BA000202B894614460BD12946104632460EF07A
:104BB00019FBA01949464246BDE8F8430EF036BB42
:104BC000102B19D16C30FFF7D3FB2D210746FFF7CF
:104BD00071F92B7883421DD038462B21FFF76AF9F3
:104BE0002B78834216D038463021FFF763F92B78B3
:104BF000834201D1012E12DC00274946424620465D
:104C00000EF014FB04EB0800E919F21BBDE8F843B1
:104C10000EF0E8BA2B7804F8013B0127EDE738469F
:104C20007821FFF747F96B78834206D03846582140
:104C3000FFF740F96B788342DED12B7823706B78D5
:104C4000637002270234D8E737B5089C00921546F6
:104C5000226801921846069A079BFFF797FF256086
:104C600003B030BDF0B59DF81450441E6DB10A2656
:104C7000B1FBF6F506FB151111442346097904F83A
:104C800001192946002DF2D11BE003F04A05402D01
:104C900009D101F007051544C9082D79234604F808
:104CA0000159F6D10DE013F4804F0CBF04271427EF
:104CB00001F00F05D6190909755D234604F801595D
:104CC000F6D1C01AF0BD2DE9F84F9DF8301014460A
:104CD0001D4682460B9A431EC1B11E4620462946F8
:104CE0000A22002316F0EAF90A990A4420461379A9
:104CF00029460A22B34606F80139002316F0DEF9E8
:104D000004460D4654EA0502E8D12DE002F04A01BE
:104D1000402913D10A9904F007020A444FEAD40843
:104D200048EA457812794FEAD5099B4603F80129EC
:104D300058EA090244464D46ECD115E012F4804F82
:104D40000CBF042014200A9904F00F020144260924
:104D500046EA05762F098A5C56EA07019B463446E7
:104D600003F801293D46EED1CBEB0A00BDE8F88FF0
:104D700010B50446006820B105F096F84FF0FF33F7
:104D80006360204610BDF7B58DE806009DF804501D
:104D9000089F06466C463DB908463A46194605F056
:104DA0009CF8B84218BF01258DF8045094E8030020
:104DB00086E80300304603B0F0BD2DE9F043A7B00C
:104DC00002AC84E80C002E9B9DF8C4709DF8C8507E
:104DD00003F16C0806464046FFF7CAFA8146404692
:104DE000FFF7CAFD252180464846FFF763F88DF896
:104DF000140025B98DF815708DF8165006E00023C3
:104E00008DF815508DF816708DF81730309B009383
:104E100006A905AB4046802205F0ACF806A80FF0C5
:104E20003DFA009094E80600304606ABFFF7ABFF72
:104E3000304627B0BDE8F0832DE9F04F8DB004AFC8
:104E40008346BD6CB96005F16C0007F1100181E883
:104E50000C003E6DFFF758FBD5F80C8008F04A0AAD
:104E600000F1260388B0BAF1400F0446FB600DF153
:104E7000100C07D0BAF1080318BF0123002E04DC80
:104E800033B902E04FF0000900E09946314602E0F4
:104E900071424FF001090CF11400FA68CDF800904E
:104EA0004346C7F804C0FFF7DDFED7F804C0227CF4
:104EB000F861C0F114036344D2B14000103020F017
:104EC0000700ADEB000D0DF1120C94F825E00293F4
:104ED0008DE8201007F11C030393A168E268B8680D
:104EE000C7F804C07346FFF73DFED7F804C0634619
:104EF000FA69B9F1000F08D0002E03DB18F4006F37
:104F00002ED115E094F826102CE018F4007F0FD075
:104F100076BB0DE0F968C8F38038414402328978E5
:104F200003F8011C94F82A1003F8021CFA61023BF2
:104F3000AA68F9698A4221DD02F10E0121F0070118
:104F4000ADEB010D04AC019307F11C030293009437
:104F50002B46B86897F84C10FFF776FE23460DE015
:104F600094F82710013203F8011CFA61013BDFE7D6
:104F7000BAF1400FCED194F82A10F3E70022AA60CC
:104F8000FA69009207F11002584606CAFFF7FBFEC5
:104F900058462437BD46BDE8F08F30B587B004AC25
:104FA00084E80C000A9B00939DF82C3001930C9B25
:104FB000029394E80C000546FFF73EFF284607B031
:104FC00030BD2DE9F04F8BB004AF07F1080484E841
:104FD0000C003B6C97F84420D3F80CB097F848606D
:104FE0001BF0010F804607F1100508D100930192D4
:104FF0000296284694E80C00FFF71EFF57E003F1E5
:105000006C007A603B60FFF77FFA7A683B681EB1FC
:10501000D0F81490866902E0D0F81C90066A99686E
:10502000B1423BDDC6EB010A0AF10E0121F0070196
:10503000ADEB010D0DF1100C6046114652463B6080
:105040000EF0F4F80BF0B00B3B680022BBF1200F20
:1050500084469A6015D194E8060028464B4600968F
:10506000C7F804C0FFF78FFE95E80300D7F804C027
:10507000B8603973CDF800A0284694E8060063466E
:1050800013E0284694E80600CDF800A06346FFF739
:105090007AFE95E80300B860397301E000229A6057
:1050A00094E80600009628464B46FFF76CFE95E80C
:1050B0000300B860397394E803001C3788E80300E4
:1050C0004046BD46BDE8F08F2DE9F04F8BB004AFF0
:1050D00082463D6C8B4605F16C0007F1080181E8C2
:1050E0000C00FFF711FAEE6806F04A0900F12601FC
:1050F00088B0B9F1400F044679600DF1100C05D06D
:10510000B9F1080818BF4FF0010801E04FF000089E
:105110000CF114007A68CDF800803346B96CC7F8FA
:1051200000C0FFF79FFDD7F800C0227C7861C0F176
:1051300014036344D2B14000103020F00700ADEBFF
:10514000000D0DF1120C94F825E002938DE820106B
:1051500007F114030393A168E268C7F800C073461F
:105160005846FFF7FFFCD7F800C06346B8F1000FC0
:105170000ED1B2050CD5BA6C52B1B9F1400F7A69B3
:105180001ED194F82A1003F8011C01327A61013B08
:10519000AA6879698A4222DD02F10E0121F0070135
:1051A000ADEB010D04AC019307F1140302930094DD
:1051B0002B46584697F84410FFF746FD23460EE06D
:1051C0007968C6F380360E440232B17803F8011CC8
:1051D00094F82A1003F8021C7A61023BD8E70022F7
:1051E000AA607A69009207F10802504606CAFFF7E2
:1051F000CAFD50461C37BD46BDE8F08F30B587B0BC
:1052000004AC84E80C000A9B00939DF82C300193B9
:105210000C9B029394E80C000546FFF755FF2846C7
:1052200007B030BD2DE9F04188B004AC0E9DD5F833
:105230000C8084E80C0028F4804323F04A0343F4F4
:105240000273EB609DF83C300193109B009506AF14
:105250000293064694E80C003846FFF735FF97E8BE
:10526000030004908DF8141094E8030086E803000E
:105270003046C5F80C8008B0BDE8F0812DE9F04F4C
:105280008BB004AF82463D6C8B4605F16C0007F194
:10529000080181E80C00FFF737F9EE6806F04A09CB
:1052A00004468CB02630B9F1400F78600DF1100C37
:1052B0000BD0D7E91201B9F1080318BF0123012867
:1052C00071F1000104DA3BB902E04FF0000800E0A0
:1052D0009846D7E9122306E0D7E912234FF00108D8
:1052E000524263EB43037868C7F800C08DE8410180
:1052F0000CF12800FFF7E7FCD7F800C0227C7861AA
:10530000C0F128036344D2B14000103020F0070000
:10531000ADEB000D0DF1120C94F825E002938DE831
:10532000201007F114030393A168E268C7F800C0D6
:1053300073465846FFF716FCD7F800C063467A69F3
:10534000B8F1000F0BD0D7E91201002871F100016C
:1053500002DB300530D417E094F826102EE0B105BA
:1053600012D5D7E9120101432ED10DE07868C6F3BA
:10537000803606440232B17803F8011C94F82A10F2
:1053800003F8021C7A61023BAA6879698A4221DD2E
:1053900002F10E0121F00701ADEB010D04AC019308
:1053A00007F11403029300942B46584697F84410D3
:1053B000FFF74AFC23460DE094F82710013203F86A
:1053C000011C7A61013BDFE7B9F1400FCED194F8BF
:1053D0002A10F3E70022AA607A69009207F1080216
:1053E000504606CAFFF7CFFC50461C37BD46BDE805
:1053F000F08F30B587B004AC84E80C000A9B0093B2
:105400009DF82C300193DDE90C23CDE9022394E8CB
:105410000C000546FFF732FF284607B030BD2DE9E6
:10542000F04F8BB004AF82463D6C8B4605F16C00AB
:1054300007F1080181E80C00FFF766F8EE6806F056
:105440004A0904468CB02630B9F1400F786004A9AF
:1054500005D0B9F1080818BF4FF0010801E04FF07E
:1054600000087A6839608DE8440101F12800D7E925
:105470001223FFF728FC3968227C7861C0F12803E9
:105480000B44D2B14000103020F00700ADEB000D0E
:105490000DF1120C94F825E002938DE8201007F12D
:1054A00014030393A168E268C7F800C07346584626
:1054B000FFF758FBD7F800C06346B8F1000F10D1D2
:1054C000B2050ED5D7E9120101430AD0B9F1400F58
:1054D0007A691ED194F82A1003F8011C01327A610E
:1054E000013BAA6879698A4222DD02F10E0121F0AE
:1054F0000701ADEB010D04AC019307F11403029316
:1055000000942B46584697F84410FFF79DFB23461E
:105510000EE07868C6F3803606440232B17803F8AC
:10552000011C94F82A1003F8021C7A61023BD8E7A8
:105530000022AA607A69009207F10802504606CA62
:10554000FFF721FC50461C37BD46BDE8F08F30B553
:1055500087B004AC84E80C000A9B00939DF82C30C3
:105560000193DDE90C23CDE9022394E80C00054604
:10557000FFF755FF284607B030BD2DE9F04F91B039
:1055800004AF8146BD6D05F16C0B58468A4607F1A4
:10559000100181E80C00F960FEF7B6FF6B6897F820
:1055A0006020002B07F1200106462846ACBF984634
:1055B0004FF0060803F0A7FEEA6853074CBF08F552
:1055C0009C7208F11E020E3222F00702ADEB020DB2
:1055D00003F086FD07F13001D7E91A2341F8140DD5
:1055E00004ACCDE90223CDF80080002207F12003AE
:1055F00008462146FEF728FCB8615846FEF7B8FE7B
:10560000BA6902F10E0323F00703ADEB030D0DF1B0
:10561000170C4FEADC0C4FEACC0B214622445B46C8
:10562000C7F804C0FEF756FCBB69BB601A462046AB
:105630002E210DF0B9FDBB68D7F804C030B1021BB4
:1056400096F8241002F83C100BEB0200327C002A82
:105650003CD060B9022B0ADD6278392A36D82F2A6D
:10566000A17833D9A1F13002D2B2092A2ED85A003A
:105670000E3222F00702ADEB020D22782D2A0DF139
:10568000100C01D02B2A07D19BF800208CF80020A9
:10569000013BBB61012400E000240CEB040296F8FE
:1056A000253001920BEB0402029207F118020090E0
:1056B0000392B168F268C7F804C05046FFF72DFAAC
:1056C000BB69D7F804C01C44BC61E346AA68BB6947
:1056D0009A4212DD02F10E0323F00703ADEB030D36
:1056E00004AC07F118038DE810080293504697F8B0
:1056F0005C102B46FFF7A8FAA3460023AB60BB69FA
:105700000093FB68484693E806005B46FFF73BFBC7
:1057100048463437BD46BDE8F08F30B589B006AC99
:1057200084E80C000C9B00939DF834300193002317
:105730000293DDE90E23CDE9042394E80C0005462D
:10574000FFF71BFF284609B030BD2DE9F04F91B09F
:1057500004AF8146BD6D05F16C0B58468A4607F1D2
:10576000100181E80C00F960FEF7CEFE6B6897F837
:105770006020002B07F1200106462846ACBF984662
:105780004FF0060803F0BFFDEA6853074CBF08F569
:105790009C7208F11E020E3222F00702ADEB020DE0
:1057A00003F09EFC07F13001D7E91A2341F8140DEC
:1057B00004ACCDE90223CDF80080002207F12003DC
:1057C00008462146FEF740FBB8615846FEF7D0FD7B
:1057D000BA6902F10E0323F00703ADEB030D0DF1DF
:1057E000170C4FEADC0C4FEACC0B214622445B46F7
:1057F000C7F804C0FEF76EFBBB69BB601A462046C3
:105800002E210DF0D1FCBB68D7F804C030B1021BCB
:1058100096F8241002F83C100BEB0200327C002AB0
:105820003CD060B9022B0ADD6278392A36D82F2A9B
:10583000A17833D9A1F13002D2B2092A2ED85A0068
:105840000E3222F00702ADEB020D22782D2A0DF167
:10585000100C01D02B2A07D19BF800208CF80020D7
:10586000013BBB61012400E000240CEB040296F82C
:10587000253001920BEB0402029207F1180200900E
:105880000392B168F268C7F804C05046FFF745F9C3
:10589000BB69D7F804C01C44BC61E346AA68BB6975
:1058A0009A4212DD02F10E0323F00703ADEB030D64
:1058B00004AC07F118038DE810080293504697F8DE
:1058C0005C102B46FFF7C0F9A3460023AB60BB6911
:1058D0000093FB68484693E806005B46FFF753FADF
:1058E00048463437BD46BDE8F08F30B589B006ACC8
:1058F00084E80C000C9B00939DF8343001934C23FA
:105900000293DDE90E23CDE9042394E80C0005465B
:10591000FFF71BFF284609B030BD00002DE9F04F0E
:1059200091B008A9DDF86880069008F16C04204663
:1059300081E80C009DF86C90FEF71AFD8246204627
:10594000FEF70AFF1C9B1E6890F8383032789A42A6
:10595000044656F80C3C05D0026B0B92C2690492C7
:10596000076A06E0426B0B92426A0492876A03B1AF
:105970000136F11833468B421D4607D22878DAF8F3
:105980001820125C520703F10103F4D4AD1BAA46A0
:10599000002D00F0D9800DF1400B724B4BF8103DFB
:1059A000690058460AF02FFBE26AAB1A002B29DD8A
:1059B00015EA220538BF1D46E3685846EBB1690079
:1059C00000220AF083FA58460AF034FA7319A17CCF
:1059D00000960193A268E3680C98FFF745F801462A
:1059E000584603910AF026FA0C9B03995846C91AA7
:1059F0004FF0FF320AF036FA05E031462A460AF047
:105A0000A7FA00E01D46E36A002B13DD0CA8617CB9
:105A10000AF0D3FB002D0CA802DB7119E26A07E043
:105A2000694294F839200AF075FB0CA831465246B9
:105A30000AF036FBD8F80C3003F0B00207920C9A4B
:105A400013F4007352F80C2C18BFA3693A4410AD3C
:105A500002EB030B434B45F80C3D4FEA4B01284644
:105A60000AF0D1FA079BD8F80860102B04D1B3458F
:105A70002CBF0023012300E0002305934FF0000A10
:105A80000BAB1AF80330042B27D8DFE803F01E17FE
:105A9000030D1200D8F80C309B051ED50DA86169C6
:105AA000A2690AF0FDFA18E0BFB1049B28461978F4
:105AB00008E028460CA90AF0EEFA0EE0059B33B97F
:105AC000284649460AF079FB07E0059B2BB10DA853
:105AD000CBEB06014A460AF01DFB0AF1010ABAF1B6
